:020000040800F2
:100000000050002085490008351400083714000806
:10001000391400083B1400083D14000800000000DB
:100020000000000000000000000000003F14000875
:1000300041140008000000004314000845140008A3
:10004000CD490008CD490008CD490008CD49000838
:10005000CD490008CD490008CD490008CD49000828
:10006000CD490008CD490008CD490008CD49000818
:10007000CD490008CD490008CD490008CD49000808
:100080004D140008CD490008CD490008CD490008AD
:10009000CD490008CD490008CD490008CD490008E8
:1000A000CD490008CD490008CD490008CD490008D8
:1000B000CD4900085D1400086D1400087D14000887
:1000C0008D140008CD490008CD490008CD4900082D
:1000D000CD4900089D140008CD490008CD4900080D
:1000E000CD490008CD490008CD49000800000000B6
:1000F0000000000000000000000000000000000000
:0C01000000000000000000005FF808F1A3
:1001100010B5054C237833B9044B13B10448AFF341
:1001200000800123237010BD2C000020000000007F
:10013000FC5D000808B5034B1BB103490348AFF34E
:10014000008008BD0000000030000020FC5D0008B9
:1001500081F0004102E000BF83F0004330B54FEA78
:1001600041044FEA430594EA050F08BF90EA020FE5
:100170001FBF54EA000C55EA020C7FEA645C7FEA78
:10018000655C00F0E2804FEA5454D4EB5555B8BF9B
:100190006D420CDD2C4480EA020281EA030382EA0C
:1001A000000083EA010180EA020281EA0303362D9E
:1001B00088BF30BD11F0004F4FEA01314FF4801C71
:1001C0004CEA113102D0404261EB410113F0004F83
:1001D0004FEA03334CEA133302D0524263EB43033A
:1001E00094EA050F00F0A780A4F10104D5F1200ED8
:1001F0000DDB02FA0EFC22FA05F2801841F1000133
:1002000003FA0EF2801843FA05F359410EE0A5F106
:1002100020050EF1200E012A03FA0EFC28BF4CF037
:10022000020C43FA05F3C01851EBE37101F00045ED
:1002300007D54FF0000EDCF1000C7EEB00006EEBFA
:100240000101B1F5801F1BD3B1F5001F0CD3490884
:100250005FEA30004FEA3C0C04F101044FEA4452DB
:1002600012F5800F80F09A80BCF1004F08BF5FEA62
:10027000500C50F1000041EB045141EA050130BD42
:100280005FEA4C0C404141EB0101013C28BFB1F554
:10029000801FE9D291F0000F04BF01460020B1FA9F
:1002A00081F308BF2033A3F10B03B3F120020CDA72
:1002B0000C3208DD02F1140CC2F10C0201FA0CF050
:1002C00021FA02F10CE002F11402D8BFC2F1200CB5
:1002D00001FA02F120FA0CFCDCBF41EA0C0190406B
:1002E000E41AA2BF01EB0451294330BD6FEA0404B4
:1002F0001F3C1CDA0C340EDC04F11404C4F120029F
:1003000020FA04F001FA02F340EA030021FA04F3B0
:1003100045EA030130BDC4F10C04C4F1200220FA07
:1003200002F001FA04F340EA0300294630BD21FA45
:1003300004F0294630BD94F0000F83F4801306BF0B
:1003400081F480110134013D4EE77FEA645C18BFFF
:100350007FEA655C29D094EA050F08BF90EA020F96
:1003600005D054EA000C04BF1946104630BD91EA8E
:10037000030F1EBF0021002030BD5FEA545C05D191
:100380004000494128BF41F0004130BD14F58004D0
:100390003CBF01F5801130BD01F0004545F0FE4144
:1003A00041F470014FF0000030BD7FEA645C1ABF79
:1003B000194610467FEA655C1CBF0B46024650EAB0
:1003C000013406BF52EA033591EA030F41F40021DC
:1003D00030BD00BF90F0000F04BF0021704730B562
:1003E0004FF4806404F132044FF000054FF0000137
:1003F00050E700BF90F0000F04BF0021704730B5F8
:100400004FF4806404F1320410F0004548BF4042CC
:100410004FF000013EE700BF42004FEAE2014FEA21
:1004200031014FEA02701FBF12F07F4393F07F4FFC
:1004300081F06051704732F07F4208BF704793F0FF
:100440007F4F04BF41F40021704730B54FF4607412
:1004500001F0004521F000411CE700BF50EA010215
:1004600008BF704730B54FF000050AE050EA0102BE
:1004700008BF704730B511F0004502D5404261EB2E
:1004800041014FF4806404F132045FEA915C3FF46F
:10049000D8AE4FF003025FEADC0C18BF03325FEA0C
:1004A000DC0C18BF033202EBDC02C2F1200300FABD
:1004B00003FC20FA02F001FA03FE40EA0E0021FAE2
:1004C00002F11444BDE600BF70B54FF0FF0C4CF4D0
:1004D000E06C1CEA11541DBF1CEA135594EA0C0F82
:1004E00095EA0C0F00F0DEF82C4481EA030621EABD
:1004F0004C5123EA4C5350EA013518BF52EA0335F8
:1005000041F4801143F4801338D0A0FB02CE4FF0A9
:100510000005E1FB02E506F00042E0FB03E54FF0D9
:100520000006E1FB03569CF0000F18BF4EF0010ED1
:10053000A4F1FF04B6F5007F64F5407404D25FEACD
:100540004E0E6D4146EB060642EAC62141EA555180
:100550004FEAC52040EA5E504FEACE2EB4F1FD0CC2
:1005600088BFBCF5E06F1ED8BEF1004F08BF5FEA40
:10057000500E50F1000041EB045170BD06F00046F2
:1005800046EA010140EA020081EA0301B4EB5C049F
:10059000C2BFD4EB0C0541EA045170BD41F4801197
:1005A0004FF0000E013C00F3AB8014F1360FDEBFBC
:1005B000002001F0004170BDC4F10004203C35DA98
:1005C0000C341BDC04F11404C4F1200500FA05F31B
:1005D00020FA04F001FA05F240EA020001F00042BC
:1005E00021F0004110EBD37021FA04F642EB060132
:1005F0005EEA430E08BF20EAD37070BDC4F10C045C
:10060000C4F1200500FA04F320FA05F001FA04F21F
:1006100040EA020001F0004110EBD37041F100010B
:100620005EEA430E08BF20EAD37070BDC4F1200516
:1006300000FA05F24EEA020E20FA04F301FA05F27E
:1006400043EA020321FA04F001F0004121FA04F226
:1006500020EA020000EBD3705EEA430E08BF20EAF6
:10066000D37070BD94F0000F0FD101F00046400030
:1006700041EB010111F4801F08BF013CF7D041EAB2
:10068000060195F0000F18BF704703F000465200B6
:1006900043EB030313F4801F08BF013DF7D043EA87
:1006A0000603704794EA0C0F0CEA135518BF95EA3D
:1006B0000C0F0CD050EA410618BF52EA4306D1D1C4
:1006C00081EA030101F000414FF0000070BD50EAE3
:1006D000410606BF1046194652EA430619D094EA6D
:1006E0000C0F02D150EA013613D195EA0C0F05D157
:1006F00052EA03361CBF104619460AD181EA0301AB
:1007000001F0004141F0FE4141F470014FF0000062
:1007100070BD41F0FE4141F4780170BD70B54FF0FD
:10072000FF0C4CF4E06C1CEA11541DBF1CEA13557D
:1007300094EA0C0F95EA0C0F00F0A7F8A4EB05045F
:1007400081EA030E52EA03354FEA013100F0888056
:100750004FEA03334FF0805545EA131343EA12631F
:100760004FEA022245EA111545EA10654FEA0026D4
:100770000EF000419D4208BF964244F1FD0404F58D
:10078000407402D25B084FEA3202B61A65EB0305E9
:100790005B084FEA32024FF480104FF4002CB6EBA6
:1007A000020E75EB030E22BFB61A754640EA0C0026
:1007B0005B084FEA3202B6EB020E75EB030E22BF66
:1007C000B61A754640EA5C005B084FEA3202B6EBA7
:1007D000020E75EB030E22BFB61A754640EA9C0066
:1007E0005B084FEA3202B6EB020E75EB030E22BF36
:1007F000B61A754640EADC0055EA060E18D04FEAF4
:10080000051545EA16754FEA06164FEAC30343EA93
:1008100052734FEAC2025FEA1C1CC0D111F4801F60
:100820000BD141EA00014FF000004FF0004CB6E759
:1008300011F4801F04BF01430020B4F1FD0C88BFF8
:10084000BCF5E06F3FF6AFAEB5EB030C04BFB6EB03
:10085000020C5FEA500C50F1000041EB045170BDF6
:100860000EF0004E4EEA113114EB5C04C2BFD4EB23
:100870000C0541EA045170BD41F480114FF0000EA7
:10088000013C90E645EA060E8DE60CEA135594EA23
:100890000C0F08BF95EA0C0F3FF43BAF94EA0C0F26
:1008A0000AD150EA01347FF434AF95EA0C0F7FF49B
:1008B00025AF104619462CE795EA0C0F06D152EAEF
:1008C00003353FF4FDAE1046194622E750EA4106D3
:1008D00018BF52EA43067FF4C5AE50EA41047FF4E4
:1008E0000DAF52EA43057FF4EBAE12E74FF0FF3C49
:1008F00006E000BF4FF0010C02E000BF4FF0010C1A
:100900004DF804CD4FEA410C7FEA6C5C4FEA430C92
:1009100018BF7FEA6C5C1BD001B050EA410C0CBFE1
:1009200052EA430C91EA030F02BF90EA020F002043
:10093000704710F1000F91EA030F58BF994208BFAA
:1009400090422CBFD8176FEAE37040F00100704767
:100950004FEA410C7FEA6C5C02D150EA013C07D1BE
:100960004FEA430C7FEA6C5CD6D152EA033CD3D009
:100970005DF8040B704700BF8446104662468C4603
:100980001946634600E000BF01B5FFF7B7FF002836
:1009900048BF10F1000F01BD4DF808EDFFF7F4FF5F
:1009A0000CBF012000205DF808FB00BF4DF808EDEA
:1009B000FFF7EAFF34BF012000205DF808FB00BF0D
:1009C0004DF808EDFFF7E0FF94BF012000205DF82F
:1009D00008FB00BF4DF808EDFFF7CEFF94BF0120E4
:1009E00000205DF808FB00BF4DF808EDFFF7C4FFDD
:1009F00034BF012000205DF808FB00BF4FEA410230
:100A000012F5001215D211D56FF47873B3EB625260
:100A100012D94FEAC12343F0004343EA505311F087
:100A2000004F23FA02F018BF404270474FF0000019
:100A3000704750EA013005D111F0004008BF6FF057
:100A4000004070474FF00000704700BF4FEA41027E
:100A5000B2F1E04324BFB3F5001CDCF1FE5C0DD91C
:100A600001F0004C4FEAC0024CEA5070B2F1004F66
:100A700040EB830008BF20F00100704711F0804F69
:100A800021D113F13872BCBF01F00040704741F42E
:100A900080114FEA5252C2F11802C2F1200C10FA32
:100AA0000CF320FA02F018BF40F001004FEAC12316
:100AB0004FEAD32303FA0CFC40EA0C0023FA02F3BA
:100AC0004FEA4303CCE77FEA625307D150EA013390
:100AD0001EBF4FF0FE4040F44000704701F0004060
:100AE00040F0FE4040F40000704700BF80F000403E
:100AF00002E000BF81F0004142001FBF5FEA4103F6
:100B000092EA030F7FEA226C7FEA236C6AD04FEAF5
:100B10001262D2EB1363C1BFD2184140484041403A
:100B2000B8BF5B42192B88BF704710F0004F40F4EC
:100B3000000020F07F4018BF404211F0004F41F408
:100B4000000121F07F4118BF494292EA030F3FD0D4
:100B5000A2F1010241FA03FC10EB0C00C3F12003E7
:100B600001FA03F100F0004302D5494260EB400076
:100B7000B0F5000F13D3B0F1807F06D340084FEAE1
:100B8000310102F10102FE2A51D2B1F1004F40EBD6
:100B9000C25008BF20F0010040EA0300704749003E
:100BA00040EB0000013A28BFB0F5000FEDD2B0FADB
:100BB00080FCACF1080CB2EB0C0200FA0CF0AABFFE
:100BC00000EBC25052421843BCBFD040184370479C
:100BD00092F0000F81F4000106BF80F400000132A2
:100BE000013BB5E74FEA41037FEA226C18BF7FEA79
:100BF000236C21D092EA030F04D092F0000F08BFBB
:100C00000846704790EA010F1CBF0020704712F0A1
:100C10007F4F04D1400028BF40F00040704712F1E0
:100C200000723CBF00F50000704700F0004343F045
:100C3000FE4040F4000070477FEA226216BF08467B
:100C40007FEA23630146420206BF5FEA412390EA3E
:100C5000010F40F4800070474FF0000304E000BF34
:100C600010F0004348BF40425FEA000C08BF7047E5
:100C700043F0964301464FF000001CE050EA0102A9
:100C800008BF70474FF000030AE000BF50EA0102BE
:100C900008BF704711F0004302D5404261EB4101AB
:100CA0005FEA010C02BF84460146002043F0B643D0
:100CB00008BFA3F18053A3F50003BCFA8CF2083AF5
:100CC000A3EBC25310DB01FA02FC634400FA02FCFE
:100CD000C2F12002BCF1004F20FA02F243EB020005
:100CE00008BF20F00100704702F1200201FA02FC67
:100CF000C2F1200250EA4C0021FA02F243EB02005A
:100D000008BF20EADC7070474FF0FF0C1CEAD0529D
:100D10001EBF1CEAD15392EA0C0F93EA0C0F6FD05E
:100D20001A4480EA010C400218BF5FEA41211ED03C
:100D30004FF0006343EA501043EA5111A0FB013128
:100D40000CF00040B1F5000F3EBF490041EAD371FD
:100D50005B0040EA010062F17F02FD2A1DD8B3F179
:100D6000004F40EBC25008BF20F00100704790F0E8
:100D7000000F0CF0004C08BF49024CEA502040EA3A
:100D800051207F3AC2BFD2F1FF0340EAC250704700
:100D900040F400004FF00003013A5DDC12F1190F3E
:100DA000DCBF00F000407047C2F10002410021FAB0
:100DB00002F1C2F1200200FA02FC5FEA310040F1C8
:100DC000000053EA4C0308BF20EADC70704792F041
:100DD000000F00F0004C02BF400010F4000F013A79
:100DE000F9D040EA0C0093F0000F01F0004C02BF74
:100DF000490011F4000F013BF9D041EA0C018FE7E3
:100E00000CEAD15392EA0C0F18BF93EA0C0F0AD0E8
:100E100030F0004C18BF31F0004CD8D180EA01000E
:100E200000F00040704790F0000F17BF90F0004FA7
:100E3000084691F0000F91F0004F14D092EA0C0F89
:100E400001D142020FD193EA0C0F03D14B0218BF1C
:100E5000084608D180EA010000F0004040F0FE4062
:100E600040F40000704740F0FE4040F440007047FE
:100E70004FF0FF0C1CEAD0521EBF1CEAD15392EA7D
:100E80000C0F93EA0C0F69D0A2EB030280EA010C6D
:100E900049024FEA402037D04FF0805343EA111106
:100EA00043EA10130CF000408B4238BF5B0042F164
:100EB0007D024FF4000C8B4224BF5B1A40EA0C0009
:100EC000B3EB510F24BFA3EB510340EA5C00B3EB3B
:100ED000910F24BFA3EB910340EA9C00B3EBD10F29
:100EE00024BFA3EBD10340EADC001B0118BF5FEA7B
:100EF0001C1CE0D1FD2A3FF650AF8B4240EBC250A4
:100F000008BF20F0010070470CF0004C4CEA502064
:100F10007F32C2BFD2F1FF0340EAC250704740F4B3
:100F200000004FF00003013A37E792F0000F00F0A5
:100F3000004C02BF400010F4000F013AF9D040EA23
:100F40000C0093F0000F01F0004C02BF490011F4B7
:100F5000000F013BF9D041EA0C0195E70CEAD153AF
:100F600092EA0C0F08D142027FF47DAF93EA0C0F96
:100F70007FF470AF084676E793EA0C0F04D14B027A
:100F80003FF44CAF08466EE730F0004C18BF31F02C
:100F9000004CCAD130F000427FF45CAF31F0004326
:100FA0007FF43CAF5FE700BF72B6FEE700B591B0DB
:100FB0002822002106A803F02FFD002301930293AD
:100FC000039304930593012206924FF48033079311
:100FD0000A9202220D920E934FF4E0130F9306A88B
:100FE00001F0D6FD80B90F23019302210291002365
:100FF00003934FF480620492059301A802F006F86F
:1010000020B911B05DF804FBFFF7CEFFFFF7CCFF6E
:1010100008B501F06FFDFFF7C9FF00F00FF800F011
:101020005DF800F0F9F800F09FF900F071F800F0B9
:101030002BF903F047FB03F051FBFCE770B588B0D8
:1010400000240494059406940794214B9A6942F075
:1010500010029A619A6902F010020092009A9A694D
:1010600042F020029A619A6902F020020192019AEC
:101070009A6942F004029A619A6902F004020292AB
:10108000029A9A6942F008029A619B6903F0080388
:101090000393039B0F4E22464FF40051304602F05B
:1010A000AAF94FF4005304930125059506940223F1
:1010B000079304A9304602F085F8072304930594AA
:1010C000069504A9044802F07DF808B070BD00BF81
:1010D00000100240001001400008014000B583B03C
:1010E0000A4B5A6942F001025A615B6903F001033D
:1010F0000193019B00221146102002F0DFFA10201C
:1011000002F014FB03B05DF804FB00BF00100240C6
:1011100008B50B480B4B03600B4B43600023836007
:101120009C22C2604FF48042026143618361C361CB
:10113000036200F011FD00B908BDFFF735FFFBE7C2
:101140008C00002000540040A086010030B587B01C
:10115000002302930393049305930268284B9A4259
:1011600001D007B030BD0446264DAB6943F00803FB
:10117000AB61AB6903F008030093009B4FF440732D
:101180000293122303930323059302A91E4802F03E
:1011900019F81E4A536843F0E06343F002035360BA
:1011A000EB6943F40013EB61EB6903F40013019363
:1011B000019B1748174B0360102343600023836093
:1011C0008022C260036143618361C36102F01AF946
:1011D00098B90F4B63635C62002211461F2002F036
:1011E0006DFA1F2002F0A2FA00221146202002F020
:1011F00065FA202002F09AFAB3E7FFF7D5FEE8E798
:101200000054004000100240000C0140000001406A
:10121000480000206C00024000B587B00023029314
:10122000039304930593009301931548154A0260B4
:1012300047224260836042F20F72C26003618361A1
:1012400002F0F4FB90B94FF48053029302A90C48CA
:1012500002F024FC68B90023009301936946084812
:1012600002F08AFC40B907B05DF804FBFFF79CFE72
:10127000E9E7FFF799FEEEE7FFF796FEF3E700BF19
:10128000E00000200004004000B587B00023029376
:10129000039304930593009301931548154A026044
:1012A00047224260836040F2E732C26003618023DC
:1012B000836102F0BBFB90B94FF48053029302A903
:1012C0000B4802F0EBFB68B90023009301936946D9
:1012D000074802F051FC40B907B05DF804FBFFF786
:1012E00063FEE9E7FFF760FEEEE7FFF75DFEF3E779
:1012F000280100200008004000B583B00368174AA9
:10130000934205D0164A934215D003B05DF804FB12
:10131000144BDA6942F00202DA61DB6903F002037E
:101320000093009B002211461D2002F0C7F91D20EA
:1013300002F0FCF9E9E70B4BDA6942F00402DA61EA
:10134000DB6903F004030193019B002211461E2078
:1013500002F0B4F91E2002F0E9F9D6E700040040DB
:10136000000800400010024008B50A480A4B03601C
:101370004FF4E133436000238360C36003610C22B8
:1013800042618361C36102F0C3FC00B908BDFFF78D
:101390000BFEFBE7700100200038014030B587B03C
:1013A0000023029303930493059302681E4B9A4211
:1013B00001D007B030BD03F558439A6942F480422A
:1013C0009A619A6902F480420092009A9A6942F006
:1013D00008029A619B6903F008030193019B402373
:1013E00002930223039303230593104D02A9284679
:1013F00001F0E8FE8023029300240394049402A9E0
:10140000284601F0DFFE0A4A536843F0E06343F0E8
:101410000403536022462146252002F04FF925207F
:1014200002F084F9C5E700BF00380140000C01401C
:1014300000000140FEE7FEE7FEE7FEE7FEE770473B
:101440007047704708B501F067FB08BD08B5024852
:1014500002F07CF808BD00BF4800002008B5024833
:1014600002F0ECF908BD00BFE000002008B502481A
:1014700002F0E4F908BD00BF2801002008B50248C9
:1014800001F0DAF908BD00BF8C00002008B5024861
:1014900001F0A2FA08BD00BF8C00002008B5024888
:1014A00002F0E8FC08BD00BF7001002082B00E4BC6
:1014B0009A6942F001029A619A6902F0010200926F
:1014C000009ADA6942F08052DA61DB6903F08053F6
:1014D0000193019B054A536823F0E06343F00073D6
:1014E000536002B0704700BF00100240000001408E
:1014F00090F83E30DBB2402B10D00369B3F5804F3B
:101500001BD0036D002B39D1436CC3F3C8130268A1
:1015100003F0060343F0F00313617047036D2BB92A
:10152000436C026803F0FE0313617047436C02686A
:1015300043F00103DBB21361704790F83D30DBB23A
:10154000212B0FD0436C026843F00103DBB213611F
:10155000436B6BB19B6A5BB10268536843F40063F1
:1015600053607047436C026803F0FE031361EFE7BA
:10157000836B33B19B6A002BEED102E0036D012B2C
:1015800000D07047436CC3F3C813026803F006032E
:1015900043F0F1031361F4E7436C0268DBB21361BB
:1015A000436B3BB19B6A2BB10268536843F4006301
:1015B00053607047836B002BFBD09B6A002BF3D1E9
:1015C000F7E710B48DB090F83E30DAB2C16A046B20
:1015D00090F83D30DBB2222B0AD000230B93036836
:1015E0005A690B929B690B930B9B0DB010BC704713
:1015F000036D0BB9402A17D0036D1BB90369B3F50E
:10160000404F19D0438D9BB2002B25D10393036823
:101610005A6903929A690392039A1A6842F4007213
:101620001A6000230365E0E7019303685A69019299
:101630009B690193019BD8E70023029303685A69D1
:1016400002929A690292029A1A6842F480721A60AF
:10165000036D01330365C8E7438D9BB2012B25D091
:10166000438D9BB2022B7BD00268136843F48063E6
:10167000136003685A6812F4006F0ED011F5803FB2
:1016800007D0012905D0082903D0102901D020292D
:1016900003D15A6842F480525A6000230A930368C7
:1016A0005A690A929B690A930A9BBAE711F5803F2F
:1016B00011D0082934D0202932D0122C2ED0042960
:1016C00040D002293ED010293CD00268136823F490
:1016D000806313603BE00268136823F48063136047
:1016E00003685A6812F4006F0CD01A6822F4806202
:1016F0001A600023049303685A6904929B69049357
:10170000049B8EE7002205925A6905929A69059218
:10171000059A1A6842F400721A6082E70129CED055
:101720000268136823F4806313600023079303683F
:101730005A6907929A690792079A1A6842F40072E6
:101740001A606EE70268136843F480631360002335
:10175000069303685A6906929B690693069B60E7A5
:10176000042915D0022913D0102911D0026813685A
:1017700043F4006313600023089303685A690892D6
:101780009A690892089A1A6822F480621A600CE03A
:101790000268136843F480631360002309930368AD
:1017A0005A6909929B690993099B03685A6812F464
:1017B000006F3FF436AF11F5803F08D0012906D005
:1017C000082904D0102902D020297FF42AAF5A68B2
:1017D00042F480525A6024E7438D9BB25BB1426A67
:1017E000036812781A61436A01334362438D9BB2E6
:1017F000013B9BB243857047438D9BB25BB103684D
:101800001A69436A1A70436A01334362438D9BB27B
:10181000013B9BB24385704782B0002301930E4B7E
:101820001B68DB080D4AA2FB03231B0A03EB83039F
:101830000193019B013B0193019B33B103681B683A
:1018400013F4007FF5D1002004E0036C43F0200383
:101850000364012002B070470800002089B5F81425
:1018600003685A6912F4806F01D1002070476FF449
:1018700080625A6100230363202280F83D2080F8B3
:101880003E30026C42F00402026480F83C300120D9
:101890007047C36AB3F52A0F04D0C36AB3F12A4F65
:1018A00003D070470123C36270470823C362F8E77F
:1018B0002DE9F04107460D4690461E4624E001F012
:1018C00037F9069BC01AB04200D8EEB900233B633B
:1018D000202287F83D2087F83E303A6C42F0200203
:1018E0003A6487F83C3001201EE03B689C6925EA99
:1018F000040C1FFA8CFCBCFA8CFC4FEA5C1CE04523
:1019000011D1B6F1FF3FDAD1C5F30743012BECD17A
:101910003B685B6925EA030C1FFA8CFCBCFA8CFC63
:101920004FEA5C1CEBE70020BDE8F0812DE9F041B7
:1019300005460E46174698463DE01A6842F4007286
:101940001A602B686FF480625A6100232B63202297
:1019500085F83D2085F83E302A6C42F004022A6466
:1019600085F83C30012034E001F0E2F8A0EB0800FB
:10197000B84200D8FFB900232B63202285F83D2010
:1019800085F83E302A6C42F020022A6485F83C300B
:1019900001201EE02B689C6926EA0404A4B2003CE6
:1019A00018BF0124A4B12B685A6912F4806FC4D106
:1019B000B7F1FF3FD8D1C6F30743012BEAD12B681B
:1019C0005C6926EA0404A4B2003C18BF0124E9E7DC
:1019D0000020BDE8F08170B504460D461646236828
:1019E0005B6913F0800F1CD12046FFF739FFD0B997
:1019F000B5F1FF3FF3D001F09BF8801BA84201D85E
:101A0000002DECD100232363202284F83D2084F8AC
:101A10003E30226C42F02002226484F83C300120E7
:101A200000E0002070BD0120FCE700002DE9F0433C
:101A300085B004460D4691461F46DDF830800D9E68
:101A40000368196841F480711960009643460022CA
:101A50004FF00111FFF72CFF60B9236805F0FE0578
:101A60001D613346424626492046FFF75FFF68B1B5
:101A7000012008E023681B6813F4807F02D04FF434
:101A800000732364032005B0BDE8F08300230393B3
:101A900023685A6903929B690393039B324641462C
:101AA0002046FFF798FF30B9012F0FD123685FFA66
:101AB00089F61E61E7E7236C042B01D00120E2E7E1
:101AC0002268136843F400731360F7E723684FEA52
:101AD00019221A61324641462046FFF77CFF20B9A1
:101AE00023685FFA89F61E61CDE7236C042B01D0D1
:101AF0000120C8E72268136843F400731360F7E716
:101B00000200010070B504460D46164623685B6965
:101B100013F0040F1CD12046FFF7A2FED0B9B5F197
:101B2000FF3FF3D001F004F8801BA84201D8002D3C
:101B3000ECD100232363202284F83D2084F83E303A
:101B4000226C42F02002226484F83C30012000E044
:101B5000002070BD0120FCE7002800F0CC8070B5AB
:101B6000044690F83D30002B77D0242384F83D3094
:101B70002268136823F0010313602268136843F49A
:101B8000004313602268136823F40043136001F0DC
:101B9000F9FA62685A4B9A4264D85A4B98428CBF01
:101BA00000230123002B40F0A8805749A1FB0031FE
:101BB0008B0C25686A6822F03F0242EA91426A6013
:101BC00021680A6A22F03F0266684D4DAE424FD846
:101BD000013313430B622168CA6922F44F4222F099
:101BE000FF026668464B9E424CD8431E7600B3FB0C
:101BF000F6F3013340F6FC70034278D0C3F30B03D5
:101C00001343CB6121680B6823F0C003E269206AAB
:101C1000024313430B6021688B6823F4034323F0D2
:101C2000FF032269E068024313438B602168CB689D
:101C300023F0FF036269A06902431343CB6022686B
:101C4000136843F00103136000202064202384F80C
:101C50003D30206384F83E0070BD80F83C30FFF7D3
:101C600075FA82E7294B98428CBF0023012399E73C
:101C70004FF4967505FB03F3254DA5FB03539B0914
:101C80000133A6E7A368BBB9451E06EB460CB5FBBE
:101C9000FCF50135C5F30B05B5FA85F56D0945BBB6
:101CA000C3B9013806EB4603B0FBF3F30133C3F3CA
:101CB0000B0343F40043A3E7451E06EB860C0CEB35
:101CC0008C0CB5FBFCF50135C5F30B05B5FA85F5B4
:101CD0006D09E4E7013806EB860303EB8303B0FBF1
:101CE000F3F30133C3F30B0343F4404388E70423C6
:101CF00086E7012384E7012070470120ACE700BF9D
:101D0000A08601007F841E0083DE1B43FF083D0088
:101D1000D34D62102DE9F04383B004460F46904640
:101D200099460C9E00F004FF054694F83D00C0B2B1
:101D3000202803D0022003B0BDE8F08300951923CA
:101D400001224B492046FFF7B3FD002840F089806F
:101D500094F83C30012B00F08680012384F83C305D
:101D600023681A6812F0010F03D11A6842F00102C9
:101D70001A602268136823F400631360212384F837
:101D80003D30402384F83E30002323640A9B636285
:101D9000BDF82C306385638D2385364BE362019556
:101DA00000964B46424639462046FFF73FFE002844
:101DB0005BD1238D002B35D02A4631462046FFF7D4
:101DC0000AFE20BB626A236812781A61626A531C99
:101DD0006362218D013989B22185638D9BB2013BFC
:101DE0009BB263852368586910F0040FE1D0002985
:101DF000DFD052781A61636A01336362238D013B3D
:101E00002385638D9BB2013B9BB26385D1E7236C35
:101E1000042B01D001208EE72268136843F400737D
:101E20001360F7E72A4631462046FFF76BFE50B1B4
:101E3000236C042B01D001207DE72268136843F452
:101E400000731360F7E72268136843F400731360AC
:101E5000202384F83D30002384F83E3084F83C3061
:101E600069E7022067E7022065E7012063E700BF1A
:101E7000020010000000FFFF70477047704708B570
:101E800090F83D30DAB2438D9BB283B1416A03686A
:101E900009781961436A01334362438D9BB2013B68
:101EA0009BB24385438D9BB20BB9292A00D008BD54
:101EB0000268536823F4806353602123036328235B
:101EC00080F83D30FFF7DAFFF1E7704708B590F88A
:101ED0003D30DAB2438D9BB283B103681969436A1E
:101EE0001970436A01334362438D9BB2013B9BB23D
:101EF0004385438D9BB20BB92A2A00D008BD0268E6
:101F0000536823F48063536022230363282380F8FB
:101F10003D30FFF7DAFFF1E7704700B583B090F886
:101F20003D3003F02803282B0CD0002301930268D6
:101F30005169019192690192019A80F83C3003B095
:101F40005DF804FB0268536823F48063536011F06A
:101F5000040F0BD0002311F0800F09D182890021DA
:101F600080F83C101946FFF7D7FFE8E70123F2E7B6
:101F7000028BF4E77047000008B590F83D30DBB203
:101F8000C26A082A01D0202A01D1282B06D0212B91
:101F90001ED003686FF480625A6108BD1A4BC36299
:101FA0000268536823F4E063536003686FF480624F
:101FB0005A610268136823F480631360002303638B
:101FC000202280F83D2080F83E30FFF7D3FFE4E781
:101FD0000D4BC36221230363202380F83D3000238F
:101FE00080F83E300268536823F4E063536003686E
:101FF0006FF480625A610268136823F4806313608F
:10200000FFF73CFFC9E700BF0000FFFF704708B5BE
:10201000C26A90F83D30DBB2212B00D008BD438D61
:102020009BB263B1426A036812781A61436A013352
:102030004362438D9BB2013B9BB24385EEE7082A86
:1020400004D0202A02D012F5803F19D102685368CB
:1020500023F4E06353600268136843F40073136071
:1020600000230363202380F83D3090F83E30DBB23C
:10207000402B15D0002380F83E30FFF7FDFECDE762
:102080000268536823F4E063536011230363002361
:1020900080F83E30202380F83D30FFF7EDFEBDE7AD
:1020A000002380F83E30FFF7B1FFB7E708B590F89E
:1020B0003D30026D9AB9C36C012B08D0836CC3F319
:1020C000072302681361036D0133036508BD836C48
:1020D0000268DBB21361036D02330365F6E7DBB21E
:1020E000026D012A23D0026D022AEFD1222B26D0C5
:1020F000428D92B20AB1212B2AD0428D92B2002A8F
:10210000E4D1212BE2D10268536823F4E0635360E9
:102110000268136843F400731360002303632022F2
:1021200080F83D2080F83E30FFF770FFCEE7836CEB
:102130000268DBB21361036D01330365C6E7026811
:10214000136843F480731360036D01330365BDE7C7
:10215000426A036812781A61436A01334362438D0D
:102160009BB2013B9BB24385B0E710B590F83D3080
:10217000DBB290F83E20D2B2C46A018D09B9212B9E
:1021800004D0212B3BD0402A37D010BD082C04D0DE
:10219000202C02D014F5803F19D10268536823F433
:1021A000E06353600268136843F400731360002314
:1021B0000363202380F83D3090F83E30DBB2402BA3
:1021C00015D0002380F83E30FFF756FEDDE70268A9
:1021D000536823F4E063536011230363002380F802
:1021E0003E30202380F83D30FFF746FECDE7002348
:1021F00080F83E30FFF70AFFC7E7222BC5D1438D99
:102200009BB22BB90268536823F480635360BCE728
:1022100090F83E30DBB2402B0CD0426A0368127853
:102220001A61436A01334362438D9BB2013B9BB207
:102230004385AAE7FFF73AFFA7E7704708B5C26AE8
:10224000438D9BB2042B14D0438D9BB2032B22D021
:10225000438D9BB2022B39D003681A69436A1A7006
:10226000436A01334362438D9BB2013B9BB243857A
:1022700010E00268536823F48063536003681A69AE
:10228000436A1A70436A01334362438D9BB2013B38
:102290009BB2438508BD01684B6823F480634B60A3
:1022A000042A06D0022A04D00268136823F480634B
:1022B000136003681A69436A1A70436A0133436200
:1022C000438D9BB2013B9BB24385E3E7012A0BD0D0
:1022D000102A09D0042A38D0022A36D0026813689E
:1022E00043F40073136004E00268136823F480630E
:1022F000136003681A69436A1A70426A531C436286
:10230000438D9BB2013B9BB2438503681B695370AD
:10231000436A01334362438D9BB2013B9BB24385C9
:102320000268536823F440735360202380F83D30E3
:1023300090F83E30DBB2402B0DD0002380F83E30C9
:1023400012230363FFF799FDA4E70268136843F4BF
:1023500080631360CDE7002380F83E300363FFF70E
:102360006CFF97E7704790F83D30DBB2222B00D02E
:10237000704710B50446438D9BB2032B16D90368F2
:102380001A69436A1A70436A01334362438D9BB2F0
:10239000013B9BB24385438D9BB2032B00D010BD04
:1023A0000268536823F480635360F8E7C26A022A24
:1023B000F5D0012BF3D8FFF72FFA00282ED1226891
:1023C000136823F4806313602268536823F4E06386
:1023D000536023681A69636A1A70636A013363621F
:1023E000638D9BB2013B9BB26385202384F83D3013
:1023F00094F83E30DBB2402B08D0002384F83E3006
:10240000122323632046FFF738FDC8E7002384F832
:102410003E3023632046FFF710FFC0E72268536871
:1024200023F4E063536023681A69636A1A70636A6D
:1024300001336362638D9BB2013B9BB263852023B2
:1024400084F83D30002384F83E302046FFF78AFFB1
:10245000A5E7704700B583B000230193406A90F868
:102460003D20D2B2324B1B68DB083249A1FB03137B
:102470001B0A03EB8303C3EBC3030193019B43B12B
:10248000019B013B019303681B6813F4007FF5D1A6
:1024900003E0036C43F020030364436B0BB10021A2
:1024A0009962836B0BB10021996201680B6823F478
:1024B00080630B6000234385436B0BB1002159639C
:1024C000836B0BB10021596301680B6823F0010392
:1024D0000B6090F83D30DBB2602B0ED002F028028A
:1024E000282A14D0202380F83D30002380F83E3085
:1024F000FFF738FF03B05DF804FB202380F83D3080
:10250000002380F83E300364FFF7A3FFF2E7026880
:10251000136843F0010313600268136843F4806397
:10252000136000230363282380F83D30E0E700BFF9
:102530000800002089B5F81410B5044690F83D3025
:10254000DBB290F83E20D2B2102A35D0402A33D0E8
:1025500003F02802282A37D02268526812F4006F4C
:1025600007D1602B05D0202384F83D30002384F868
:102570003E300023236323685A6812F4006F47D06B
:102580005A6822F400625A60636B93F82120012A92
:1025900020D0444A5A63606B00F08CFF002849D079
:1025A0002268136823F001031360202384F83D3070
:1025B000606B436B98473DE0222BC9D121680A68C4
:1025C00022F400620A60C3E700232363282384F80F
:1025D0003D30D0E7A36B334A5A63A06B00F06AFF2B
:1025E00040B323685A6912F0400F05D01A69636A34
:1025F0001A70636A013363622268136823F001036F
:102600001360202384F83D30A06B436B984711E0A2
:1026100094F83D20D2B2602A1FD05A6912F0400FC0
:1026200005D01A69636A1A70636A013363622046CF
:10263000FFF798FE236C13F00F0F04D02268536845
:1026400023F4E063536094F83D30DBB2226C12F067
:10265000040F01D0282B18D010BD202284F83D2073
:10266000002222645A6912F0400F05D01A69636A89
:102670001A70636A013363622268136823F00103EE
:1026800013602046FFF7E5FED4E7074BE362002323
:102690002363202284F83D2084F83E302046FFF753
:1026A00069FCD9E7552400080000FFFF30B583B06E
:1026B000044690F83D50EDB20268536823F4E0639D
:1026C00053600023019303685A6901921A6842F02B
:1026D00001021A60019B0268136823F4806313608F
:1026E00003685A6812F4006F38D0222D21D02A2DA9
:1026F0001FD0426B1268526892B24285428D92B2EC
:102700001AB1026C42F0040202645A6822F40062B8
:102710005A60606B00F0BCFF01281FD0636B444A15
:102720005A63606B00F0C6FEC0B1606B436B9847A4
:1027300014E0A26B1268526892B26285628D92B206
:102740001AB1226C42F0040222645A6822F4006238
:102750005A60A06B00F09CFF012842D1638D9BB2B0
:1027600033B323685A6912F0040F0AD01A69636AF6
:102770001A70636A01336362638D9BB2013B9BB243
:10278000638523685A6912F0400F0AD01A69636A98
:102790001A70636A01336362638D9BB2013B9BB223
:1027A0006385638D9BB21BB1236C43F004032364E8
:1027B000236C13BB2A2D25D094F83D30DBB2282B97
:1027C00029D0236B222B01D0222D19D10023236382
:1027D000202284F83D2084F83E302046FFF775FB28
:1027E0000EE0A36B124A5A63A06B00F063FE002850
:1027F000B4D0A06B436B9847B0E72046FFF79CFE30
:1028000003B030BD00232363282384F83D302046E5
:10281000FFF75BFBD0E7074BE36200232363202233
:1028200084F83D2084F83E302046FFF7A3FBE7E71D
:10283000552400080000FFFFF8B5044602685568FB
:10284000C66A90F83E30DBB290F83D10C8B2102B4B
:1028500013D0402B11D0236C002B7AD05369002168
:1028600013F0020F78D015F4007F75D0236C03B1FC
:1028700091692046FFF751FBF8BDD2F818C05169A5
:1028800011F0010705D1B6F52A0FF5D0B6F12A4FA0
:10289000F2D017B115F4007F29D111F0080F02D042
:1028A00015F4007F2AD111F0020F02D015F4007F39
:1028B00028D11CF0040F31D0526812F4006FDBD124
:1028C00011F0800F05D015F4806F02D011F0040FC5
:1028D0001CD011F0040FCFD015F4007FCCD02128EC
:1028E00018D0402BC8D12046FFF7E0FBC4E72046B4
:1028F000FEF7CFFF2046FEF7FBFDBDE72046FEF7C3
:102900004BFEB9E72046FEF75CFEB5E72046FFF731
:102910002CFCB1E72046FFF77AFBADE7536813F4D0
:10292000006FA9D111F0400F05D015F4806F02D0CF
:1029300011F0040F09D011F0040F9DD015F4007FA1
:102940009AD02046FFF77AFC96E72046FFF70BFD6A
:1029500092E79169536983E713F0100F02D015F4E1
:10296000007F18D121281AD0292818D013F0400F41
:1029700005D015F4806F02D013F0040F28D013F0A7
:10298000040F3FF479AF15F4007F3FF475AF204694
:10299000FEF732FF70E72046FFF788FE6CE713F082
:1029A000800F05D015F4806F02D013F0040F0BD008
:1029B00013F0040F3FF460AF15F4007F3FF45CAFF9
:1029C0002046FEF709FF57E72046FFF758FA53E77E
:1029D0002046FFF77BFA4FE7F8B5044603685D69C8
:1029E0005F6890F83E20D2B215F4807F0CD017F4C7
:1029F000807F41D06FF48071596101680B6843F4A6
:102A000000430B60012600E0002615F4007F08D08B
:102A100017F4807F05D046F0020623686FF400713A
:102A2000596115F4806F19D017F4807F16D0638D2B
:102A300099B294F83D30DBB2206B202A1ED0236877
:102A40006FF48061596146F00406102A01D0402AD3
:102A500004D12268136843F40073136015F4006F07
:102A600008D017F4807F05D046F0080623686FF47D
:102A700000625A6186B9F8BD0026C6E70029DED19A
:102A8000212B05D0292B03D0282BD8D12128D6D112
:102A90002046FFF771FAE1E7236C1E4326642046C7
:102AA000FFF74AFDE7E7000010B504460E4B187823
:102AB0004FF47A73B3FBF0F30C4A1068B0FBF3F0F9
:102AC00000F042FE68B90F2C01D901200AE0002273
:102AD00021464FF0FF3000F0F1FD054B1C60002057
:102AE00000E0012010BD00BF000000200800002011
:102AF0000400002008B5074A136843F01003136070
:102B0000032000F0C9FD0020FFF7CEFFFEF7CEFC4A
:102B1000002008BD00200240034A1168034B1B78C7
:102B20000B441360704700BFB40100200000002078
:102B3000014B1868704700BFB401002038B5044647
:102B4000FFF7F6FF0546B4F1FF3F02D0044B1B78B8
:102B50001C44FFF7EDFF401BA042FAD338BD00BF75
:102B60000000002082B0084B1B68084AA2FB032328
:102B70005B0A00FB03F3019300BF019B5A1E019205
:102B8000002BF9D102B0704708000020D34D62102D
:102B9000002800F0F18170B582B00446036813F09C
:102BA000010F2CD0994B5B6803F00C03042B1DD054
:102BB000964B5B6803F00C03082B12D06368B3F5E7
:102BC000803F41D0002B55D103F1804303F50433FE
:102BD0001A6822F480321A601A6822F480221A607D
:102BE00037E08A4B5B6813F4803FE7D0874B1B6864
:102BF00013F4003F03D06368002B00F0BF8123680B
:102C000013F0020F75D0814B5B6813F00C0F5FD08F
:102C10007E4B5B6803F00C03082B54D02369002B18
:102C200000F08A807A4B01221A60FFF781FF054687
:102C3000764B1B6813F0020F75D1FFF779FF401B2D
:102C40000228F5D903209EE1704A136843F48033CB
:102C50001360636843B3FFF76BFF05466B4B1B685C
:102C600013F4003FCBD1FFF763FF401B6428F5D975
:102C7000032088E1B3F5A02F09D0644B1A6822F431
:102C800080321A601A6822F480221A60E1E703F1A8
:102C90008043A3F53C331A6842F480221A601A6814
:102CA00042F480321A60D4E7FFF742FF0546574BE3
:102CB0001B6813F4003FA2D0FFF73AFF401B6428C3
:102CC000F5D903205FE1514B5B6813F4803FA5D138
:102CD0004E4B1B6813F0020F03D02369012B40F009
:102CE0004F814A4A136823F0F803616943EAC1033C
:102CF0001360236813F0080F33D0A369002B5CD056
:102D0000434B0122C3F88024FFF712FF05463F4BD7
:102D10005B6A13F0020F21D1FFF70AFF401B022864
:102D2000F5D903202FE1394A136823F0F8036169CC
:102D300043EAC1031360DCE7354B00221A60FFF75A
:102D4000F7FE0546314B1B6813F0020FD1D0FFF799
:102D5000EFFE401B0228F5D9032014E10120FFF704
:102D600001FF236813F0040F00F09680274BDB6906
:102D700013F0805F34D1254BDA6942F08052DA617A
:102D8000DB6903F080530193019B0125214B1B68F4
:102D900013F4807F26D0E368012B3DD0002B53D164
:102DA00003F1804303F504331A6A22F001021A6228
:102DB0001A6A22F004021A6233E0154B0022C3F8AB
:102DC0008024FFF7B5FE0546104B5B6A13F0020F37
:102DD000C7D0FFF7ADFE401B0228F5D90320D2E093
:102DE0000025D3E70B4A136843F480731360FFF7A1
:102DF0009FFE0646074B1B6813F4807FCBD1FFF77D
:102E000097FE801B6428F5D90320BCE00010024027
:102E100000004242007000405F4A136A43F0010321
:102E20001362E36833B3FFF783FE06465A4B1B6A0F
:102E300013F0020F2FD1FFF77BFE801B41F2883386
:102E40009842F3D903209EE0052B09D0524B1A6A11
:102E500022F001021A621A6A22F004021A62E0E702
:102E60004D4B1A6A42F004021A621A6A42F00102D9
:102E70001A62D6E7FFF75CFE0646474B1B6A13F063
:102E8000020F08D0FFF754FE801B41F288339842AE
:102E9000F3D9032077E0E5B9E369002B72D03E4A0D
:102EA000526802F00C02082A56D0022B17D03B4B76
:102EB00000221A66FFF73CFE0446374B1B6813F0EE
:102EC000007F47D0FFF734FE001B0228F5D903200E
:102ED00059E0314AD36923F08053D361DCE72F4BAB
:102EE00000221A66FFF724FE05462B4B1B6813F0E1
:102EF000007F06D0FFF71CFE401B0228F5D90320F7
:102F000041E0236AB3F5803F1AD023494B6823F48C
:102F10007413226A606A024313434B601F4B012201
:102F20001A66FFF705FE04461B4B1B6813F0007F73
:102F30000ED1FFF7FDFD001B0228F5D9032022E08A
:102F4000154A536823F40033A1680B435360DCE750
:102F5000002018E0002016E0012B16D00E4B5B6815
:102F600003F48031226A914211D103F47013626A32
:102F700093420ED1002006E001207047012002E0BC
:102F8000012000E0002002B070BD0120FBE701201D
:102F9000F9E70120F7E700BF0010024000004242BD
:102FA00086B0164B0FCB0DF1180C0CE90F0040F258
:102FB0000123ADF80430124B5B6803F00C02082AC1
:102FC00002D0104806B07047C3F38342624412F83F
:102FD000100C13F4803F0CD0094B5B68C3F34043E3
:102FE000634413F8143C074A02FB00F0B0FBF3F013
:102FF000E8E7054B03FB00F0E4E700BF185E0008BC
:103000000010024000127A0000093D00002800F084
:10301000A08070B50D460446524B1B6803F00703B1
:103020008B420BD24F4A136823F007030B43136004
:10303000136803F007038B4240F08D80236813F080
:10304000020F17D013F0040F04D0474A536843F41B
:10305000E0635360236813F0080F04D0424A5368BA
:1030600043F460535360404A536823F0F003A1686F
:103070000B435360236813F0010F31D06368012BB9
:1030800020D0022B25D0384A126812F0020F64D0EB
:1030900035494A6822F0030213434B60FFF748FDAD
:1030A0000646314B5B6803F00C036268B3EB820F9A
:1030B00016D0FFF73DFD801B41F288339842F0D9CE
:1030C000032045E0284A126812F4003FE0D10120B5
:1030D0003EE0254A126812F0007FD9D1012037E086
:1030E000204B1B6803F00703AB420AD91D4A136843
:1030F00023F007032B431360136803F00703AB426D
:103100002DD1236813F0040F06D0174A536823F417
:10311000E063E1680B435360236813F0080F07D0A6
:10312000114A536823F46053216943EAC103536091
:10313000FFF736FF0C4B5B68C3F303130B4AD35CFA
:10314000D8400B4B18600B4B1868FFF7ADFC002004
:1031500070BD012070470120FAE70120F8E7012047
:10316000F6E700BF00200240001002402C5E00087D
:103170000800002004000020014B1868704700BFC1
:103180000800002008B5FFF7F7FF044B5B68C3F3A6
:103190000223034AD35CD84008BD00BF00100240A0
:1031A0003C5E000808B5FFF7E7FF044B5B68C3F31C
:1031B000C223034AD35CD84008BD00BF00100240C0
:1031C0003C5E000870B582B00024A446A6E0804DA5
:1031D000AA4210D007D97F4DAA420CD005F5803500
:1031E000AA4208D013E0A5F58015AA4203D005F540
:1031F0007025AA4207D18A68002A58D0012A51D0E6
:103200004361082403E0A5F58015AA42F3D0BEF17E
:10321000FF0F4ED80646BEF1FF0F4CD84FEA8C0286
:1032200033680F25954023EA050304FA02F213439D
:1032300033604B6813F0805F6ED0674B9A6942F041
:1032400001029A619B6903F001030193019B4FEA1C
:103250009C02951C614B53F825600CF003039D0004
:103260000F23AB4026EA03065D4B984229D003F5B5
:103270008063984200F08E8003F58063984200F0EE
:103280008B8003F58063984219D004231AE0CC6840
:10329000BDE7CC680434BAE7CC680834B7E7CC683B
:1032A0000C34B4E703610824B1E70024AFE7042439
:1032B000ADE7061DAFE7ACF108029200B0E70323CB
:1032C00000E00023AB4033430232444D45F8223046
:1032D0004B6813F4803F61D0424A136843EA0E03FF
:1032E00013604B6813F4003F5ED03E4A536843EAD4
:1032F0000E0353604B6813F4801F5BD0394A936808
:1033000043EA0E0393604B6813F4001F58D0354A0C
:10331000D36843EA0E03D3600CF1010C0A6832FA59
:103320000CF353D0012303FA0CF302EA030E33EA41
:103330000202F1D14A68122A3FF649AF122A3FF63B
:1033400066AF01A555F822F0F73100088F3200086A
:1033500099320008AB3200080F3200080F32000823
:103360000F3200080F3200080F3200080F32000839
:103370000F3200080F3200080F3200080F32000829
:103380000F3200080F3200080F3200089332000895
:103390009F320008012395E7022393E7114A13683F
:1033A00023EA0E0313609CE70E4A536823EA0E03D8
:1033B00053609FE70B4A936823EA0E039360A2E7EA
:1033C000084AD36823EA0E03D360A5E702B070BDB4
:1033D00000002210000031100010024000000140E7
:1033E00000080140000401408368194201D0012017
:1033F0007047002070470AB10161704709040161FC
:103400007047000060B310B402460168154B0B44CE
:103410001548A0FB03031B099B001364134BD363E4
:10342000022382F82130086820F47F5020F0300019
:10343000536894682343D46823431469234354692D
:10344000234394692343D469234303430B6000203F
:103450009063012382F8213082F8200010BC70476D
:1034600001207047F8FFFDBFCDCCCCCC000002405E
:1034700090F82130022B06D004238363002380F8C8
:103480002030012070470268136823F00E03136098
:103490000268136823F001031360036CC16B0122FF
:1034A00002FA03F34B6080F82120002380F82030DB
:1034B0001846704708B590F82130022B03D004233A
:1034C0008363012008BD0268136823F00E031360B4
:1034D0000268136823F0010313600368194A9342DA
:1034E00014D0143293421FD0143293421ED014329F
:1034F00093421ED0143293421ED01432934202D013
:103500004FF0807203E04FF4801200E001220E4B76
:103510005A60012380F82130002380F82030436B6B
:103520006BB198470020CDE71022F0E74FF480728E
:10353000EDE74FF48052EAE74FF48032E7E70020EE
:10354000C0E700BF080002400000024038B5C36B6E
:103550001A6804682568016C04238B40134235D037
:1035600015F0040F32D0236813F0200F03D1236825
:1035700023F0040323600368434A934214D01432B7
:10358000934218D01432934217D01432934217D07A
:103590001432934217D01432934202D04FF080621B
:1035A00003E04FF4800200E00422384B5A60C36A03
:1035B00003B1984738BD4022F7E74FF48062F4E743
:1035C0004FF48042F1E74FF48022EEE702238B4074
:1035D00013423CD015F0020F39D0236813F0200FAE
:1035E00006D1236823F00A032360012380F82130E9
:1035F0000368254A934214D0143293421CD01432EB
:1036000093421BD0143293421BD0143293421BD0EE
:103610001432934202D04FF0007203E04FF40012D4
:1036200000E00222194B5A60002380F82030836AA0
:10363000002BBFD09847BDE72022F3E74FF400727C
:10364000F0E74FF40052EDE74FF40032EAE70823C9
:1036500003FA01F11142ADD015F0080FAAD023688A
:1036600023F00E032360026CC16B012303FA02F204
:103670004A60836380F82130002380F82030036B98
:10368000002B97D0984795E70800024000000240C1
:1036900090F8210070470000074AD36823F4E063E4
:1036A0001B041B0C000200F4E060034343F0BF6303
:1036B00043F40033D360704700ED00E000B5194BD0
:1036C000DB68C3F30223C3F1070CBCF1040F28BF6E
:1036D0004FF0040C03F1040EBEF1060F18D9033BA2
:1036E0004FF0FF3E0EFA0CFC21EA0C0199400EFA55
:1036F00003F322EA0303194300280BDB0901C9B2D3
:1037000000F1604000F5614080F800135DF804FBB3
:103710000023E5E700F00F000901C9B2024B19547C
:10372000F4E700BF00ED00E014ED00E0002807DB47
:1037300000F01F02400901239340024A42F8203062
:10374000704700BF00E100E00138B0F1807F0BD28C
:103750004FF0E0235861054AF02182F82310002041
:10376000986107221A6170470120704700ED00E060
:1037700010B4036A046A24F001040462846924F02A
:10378000F00C4CEA021223F00A030B43826103623D
:1037900010BC704710B4046A24F0100404628469F9
:1037A000036A24F4704C4CEA023223F0A00343EA8B
:1037B00001138261036210BC7047836823F07003B9
:1037C0000B4343F0070383607047000090F83D30DF
:1037D000DBB2012B27D1022380F83D300268D36889
:1037E00043F00103D3600368114A934210D0B3F150
:1037F000804F0DD0A2F59432934209D002F5806239
:10380000934205D01A6842F001021A600020704706
:103810009A6802F00702062A07D01A6842F00102ED
:103820001A6000207047012070470020704700BFD9
:10383000002C0140704770477047704710B5044630
:1038400003681A6912F0020F11D0DA6812F0020F41
:103850000DD06FF002021A610123037703689B69A0
:1038600013F0030F70D0FFF7E6FF002323772368E0
:103870001A6912F0040F12D0DA6812F0040F0ED099
:103880006FF004021A610223237723689B6913F403
:10389000407F5FD02046FFF7CEFF002323772368C9
:1038A0001A6912F0080F12D0DA6812F0080F0ED061
:1038B0006FF008021A61042323772368DB6913F091
:1038C000030F4ED02046FFF7B6FF0023237723686F
:1038D0001A6912F0100F12D0DA6812F0100F0ED021
:1038E0006FF010021A61082323772368DB6913F451
:1038F000407F3DD02046FFF79EFF002323772368BB
:103900001A6912F0010F03D0DA6812F0010F36D1F4
:1039100023681A6912F0800F03D0DA6812F0800F62
:1039200034D123681A6912F0400F03D0DA6812F01C
:10393000400F32D123681A6912F0200F03D0DA68E1
:1039400012F0200F30D110BDFFF774FF2046FFF7B3
:1039500073FF8AE72046FFF76DFF2046FFF76CFFF5
:103960009BE72046FFF766FF2046FFF765FFACE7C1
:103970002046FFF75FFF2046FFF75EFFBDE76FF0D1
:1039800001021A61204600F079FFC1E76FF0800262
:103990001A61204600F027F9C3E76FF040021A6170
:1039A0002046FFF74AFFC5E76FF020021A61204664
:1039B00000F018F9C7E7000003681B4A90420AD0DC
:1039C000B0F1804F07D0A2F59432904203D002F5B7
:1039D0008062904203D123F070034A681343124A75
:1039E00090420AD0B0F1804F07D0A2F594329042B5
:1039F00003D002F58062904203D123F44073CA6879
:103A0000134323F080034A69134303608B68C36246
:103A10000B688362044B984202D0012343617047D4
:103A20000B690363F9E700BF002C014040B310B5F8
:103A3000044690F83D30F3B1022384F83D3021462E
:103A400051F8040BFFF7B8FF012384F8463084F8DF
:103A50003E3084F83F3084F8403084F8413084F8B8
:103A6000423084F8433084F8443084F8453084F898
:103A70003D30002010BD80F83C30FDF73DFCDBE719
:103A80000120704710B4846824F47F4C42EA03227A
:103A90000A4342EA0C02826010BC704790F83C3046
:103AA000012B66D010B50446012380F83C30022378
:103AB00080F83D300268936823F47F4323F0770356
:103AC00093600B68602B40D022D8402B47D00BD995
:103AD000502B0ED1CA6849680068FFF749FE502193
:103AE0002068FFF76AFE04E0202B0CD008D9302BA9
:103AF00009D0012384F83D30002084F83C0010BD3B
:103B00000BB1102BF5D119462068FFF756FEF0E7F0
:103B1000702B0ED0B3F5005FEBD1CB684A68896893
:103B20000068FFF7AFFF2268936843F48043936017
:103B3000DFE7CB684A6889680068FFF7A3FF22685F
:103B4000936843F077039360D3E7CA6849680068D5
:103B5000FFF720FE60212068FFF72FFEC9E7CA6843
:103B600049680068FFF704FE40212068FFF725FE42
:103B7000BFE702207047000090F83C30012B2CD0AA
:103B800010B4012380F83C30022380F83D300368F4
:103B90005A689C6822F0700C0A6842EA0C025A606B
:103BA00003680F4A93420AD0B3F1804F07D0A2F5C1
:103BB0009432934203D002F58062934204D124F000
:103BC00080044A6814439C60012380F83D30002340
:103BD00080F83C30184610BC70470220704700BF88
:103BE000002C0140704770470268D36823F490733B
:103BF000D3600268536923F001035361036B012B07
:103C000005D0202380F83E3000230363704702680C
:103C1000D36823F01003D360F3E790F83D30DBB2B4
:103C2000212B01D0022070478368B3F5805F17D045
:103C3000036A5A1C02621A7803685A60C38C9BB2EA
:103C4000013B9BB2C3844BB90268D36823F0800365
:103C5000D3600268D36843F04003D360002070470C
:103C60000369002BE4D1036A1B880268C3F30803CD
:103C70005360036A02330362E0E7000010B50446B4
:103C80000268136923F44053C1680B4313618368CE
:103C90000269134342691A430168CB6823F4B053A5
:103CA00023F00C031343CB600268536923F4407381
:103CB00081690B4353610268134B9A4220D0FFF78E
:103CC00061FA024602EB820202EB820263689B0009
:103CD000B2FBF3F20D48A0FB02314909642303FB58
:103CE00011231B013233A0FB03235B0903F0F00215
:103CF00002EB011203F00F03216813448B6010BD27
:103D0000FFF750FA0246DDE7003801401F85EB510E
:103D100058B310B5044690F83D300BB3242384F813
:103D20003D302268D36823F40053D3602046FFF768
:103D3000A5FF2268136923F4904313612268536935
:103D400023F02A0353612268D36843F40053D360FD
:103D500000202064202384F83D3084F83E3010BDDC
:103D600080F83C30FDF71AFBD8E701207047704718
:103D700008B50168CA6822F04002CA60202280F8B3
:103D80003D20FFF7F4FF002008BD7047704708B5DD
:103D9000406A0023C385C384FFF7F8FF08BD70475E
:103DA00090F83E30DBB2222B60D18368B3F5805FA0
:103DB00046D0826AB3F5805F04D0002B4DD10369F1
:103DC000002B4AD103685B681370836A01338362F6
:103DD000C38D9BB2013B9BB2C385002B48D100B57C
:103DE00083B00268D36823F02003D3600268D368ED
:103DF00023F48073D3600268536923F00103536195
:103E0000202380F83E30036B012B2CD10023036369
:103E10000268D36823F01003D36003681A6812F0B5
:103E2000100F06D0002201921A6801925B6801937C
:103E3000019B818DFFF7B3FF002003B05DF804FB09
:103E40000269002AB5D1826A03685B68C3F308037C
:103E50001380836A02338362BAE703685B6803F006
:103E60007F031370B1E7FFF790FFE5E7022070478B
:103E70000020704730B583B0044602681368D068EC
:103E8000516913F00F0505D113F0200F02D010F087
:103E9000200F19D12DB111F0010119D110F4907F2B
:103EA00016D1216B012975D013F0800F03D010F0CB
:103EB000800F40F0D78013F0400F03D010F0400F78
:103EC00040F0D48003B030BD2046FFF769FFF9E72A
:103ED00013F0010F06D010F4807F03D0226C42F063
:103EE0000102226413F0040F04D019B1226C42F0D5
:103EF0000202226413F0020F04D019B1226C42F0C6
:103F00000402226413F0080F07D010F0200F00D134
:103F100019B1226C42F008022264226C002AD1D02E
:103F200013F0200F02D010F0200F21D123685B691D
:103F300003F04003226C12F0080F00D123B3204697
:103F4000FFF752FE23685A6912F0400F18D05A69E1
:103F500022F040025A61A36B73B1464A5A63A06BC8
:103F6000FFF7A8FA0028ADD0A06B436B9847A9E7EC
:103F70002046FFF715FFD9E72046FFF707FFA1E727
:103F80002046FFF703FF9DE72046FFF7FFFE0023D3
:103F9000236497E713F0100F86D010F0100F83D032
:103FA000002301931368019353680193019B5369A4
:103FB00013F0400F32D0A16B0B685B689BB2002BF3
:103FC00080D0A08D98427FF67DAFE3858B69202B52
:103FD00008D1A18DE38D9BB2C91A89B22046FFF7A3
:103FE000DEFE6FE7D36823F48073D36022685369E1
:103FF00023F0010353612268536923F040035361A6
:10400000202384F83E30002323632268D36823F002
:104010001003D360A06BFFF72BFADAE7A18DE38DD5
:104020009BB2C91A89B2E38D9BB2002B3FF44AAF11
:1040300000293FF447AFD36823F49073D36022681C
:10404000536923F001035361202384F83E30002399
:1040500023632268D36823F01003D3602046FFF760
:104060009EFE2FE72046FFF7D8FD2BE72046FFF7FF
:104070007FFE27E78F3D00087047000008B500204D
:1040800000F0C6F80021022000F088F9134A01234D
:1040900006CA134800F06AF91A21022000F07EF9DE
:1040A000104A012306CA104800F060F92C210220B2
:1040B00000F074F90D4A012306CA0D4800F056F9C4
:1040C0003621022000F06AF90A4A012306CA0A488A
:1040D00000F04CF900F0ACF808BD00BF140000205F
:1040E000488C00080C000020548C0008240000209C
:1040F000608C00081C0000206C8C000810B582B099
:10410000012400943F237F222146204600F04CF9F1
:1041100000943F23224621467F2000F045F900F01D
:1041200087F802B010BD10B582B0002410E004EB97
:104130008402D2B2501CC0B2C2F13F03C2F17F026E
:1041400001210091DBB2D2B2014600F015FA013430
:10415000042CECD900F06CF802B010BD00B583B0AF
:10416000012301934FF48773009314231E221146F9
:10417000104600F061F900F05BF803B05DF804FB55
:1041800008B5FCF749F906A3D3E90023FCF79CF92D
:104190000022054BFCF7C2FAFCF758FC08BD00BF33
:1041A0001F85EB51B81E094000806640B0F5B47F12
:1041B00000D900B170474FF4B470FBE700B587B089
:1041C0008DF817004FF0FF330293012301930DF197
:1041D00017020092002278210248FDF79BFD07B0EC
:1041E0005DF804FB8C00002000B585B04FF0FF3374
:1041F000029389B201910090012340227821034863
:10420000FDF788FD05B05DF804FB00BF8C000020C1
:10421000002303E0FF21054AD1540133B3F5806F39
:1042200003D20028F6D10146F5E77047C00100200F
:1042300010B5002412E0A4F15000C0B2FFF7BEFF99
:104240000020FFF7BBFF1020FFF7B8FF80210548D3
:1042500000EBC410FFF7C8FF0134E4B2072CEAD921
:1042600010BD00BFC001002010F0800F15D13F2904
:1042700013D8104B1B7913B1B2FA82F25209012AFA
:104280000CD0CB0800EBC31001F0070101238B40D9
:10429000094A115C21EA030111547047CB0800EB75
:1042A000C31001F0070101238B40034A115C19433D
:1042B00011547047B8010020C00100202DE9F047DB
:1042C00082B0814602A800E906001F46A9F120033A
:1042D000DBB25E2B40D8244B1B889DF80060334432
:1042E000802B3DDC204B5B889DF801A05344402B84
:1042F00038DC00251FE01C4B1888598829442044CD
:10430000B7FA87F25209C9B2C0B2FFF7ADFF013464
:10431000A6420FD908FA04F313F4004FEBD0124B66
:1043200018885988294420443A46C9B2C0B2FFF7D8
:104330009BFFECE70135AA4508D9A9F1200303FB4F
:104340000A53019A32F813800024E1E7064B1A88D9
:1043500016441E80484600E0002002B0BDE8F08709
:104360000020FAE70020F8E7B801002030B583B05C
:10437000044602A800E906001D4600E0013420784A
:1043800048B12B4602AA12E90600FFF797FF024642
:1043900020788242F2D003B030BD0000014B18807B
:1043A00059807047B80100202DE9F04F83B00446D2
:1043B0000E4691469B469DF830A0A2EB0008B8F14E
:1043C000000FB8BFC8F100085F1A002FB8BF7F42C6
:1043D00082420DD901230093B3450DD901230193E6
:1043E000A8EB0705524659464846FFF73DFF1BE03C
:1043F0004FF0FF330093EFE74FF0FF330193EFE708
:10440000524631462046FFF72FFF6B007A42B2EB4F
:10441000450F03DAED1B009A1444E4B2984503DD1E
:104420004544019B1E44F6B24C45E9D15E45E7D1B7
:1044300003B0BDE8F08F00002DE9F04F8BB081464E
:104440008B4607921D469DF854300893BDF85000E6
:10445000FFF7ACFE04462846FFF7A8FE444B83FB5B
:10446000003AC017C0EBAA0A04EBC403C3F35C0311
:10447000404AA2FB03239D082046FCF7EDFB0446BF
:1044800009902846FCF7E8FB01462046FCF7F0FCC3
:104490000746A8462BE00998FFF772FEFBF7BCFF22
:1044A00002460B46CDE9042300F010FB02460B4602
:1044B000DDE90201FCF708F8FCF7A0FAC5B24D44AB
:1044C000EDB2DDE9040100F0AFFA02460B46DDE98A
:1044D0000201FBF7F9FFFCF791FAC3B25B44089ABB
:1044E0000092DBB22A4621463046FFF75DFFC24507
:1044F0003BD25046FCF7B0FB3946FCF705FCFFF712
:104500003FFEFBF789FF04460D4600F0DFFACDE9D8
:1045100004010798FBF76EFF02460B46CDE9022324
:10452000DDE90401FBF7D0FFFCF768FAC6B24E44A0
:10453000F6B22046294600F077FA02460B46DDE93E
:104540000201FBF7C1FFFCF759FAC4B25C44E4B2C4
:104550000AF1010AD0459ED05046FCF77DFB394652
:10456000FCF7D2FBFFF70CFE98E70BB0BDE8F08F2D
:1045700067666666176CC1162DE9F04182B0054684
:104580000E4617461C469DF82080CDF800800B464D
:10459000FFF70AFFCDF8008023463A4631463846F9
:1045A000FFF702FFCDF8008023462A462146384611
:1045B000FFF7FAFECDF8008033462A46214628460A
:1045C000FFF7F2FE02B0BDE8F08110B5044681208D
:1045D000FFF7F4FD2046FFF7F1FD10BD08B530B13F
:1045E000054B01229A71AF20FFF7E8FD08BD024B91
:1045F00000229A71AE20F7E7B801002008B56420C8
:10460000FEF79CFA0020FFF7E9FF2020FFF7D6FD18
:104610000020FFF7D3FDB020FFF7D0FDC820FFF743
:10462000CDFD0020FFF7CAFD1020FFF7C7FD402099
:10463000FFF7C4FDFF20FFF7C8FFA120FFF7BEFD75
:10464000A620FFF7BBFDA820FFF7B8FD3F20FFF72E
:10465000B5FDA420FFF7B2FDD320FFF7AFFD00208A
:10466000FFF7ACFDD520FFF7A9FDF020FFF7A6FD71
:10467000D920FFF7A3FD2220FFF7A0FDDA20FFF7E6
:104680009DFD1220FFF79AFDDB20FFF797FD20200C
:10469000FFF794FD8D20FFF791FD1420FFF78EFDAD
:1046A0000120FFF79BFF0020FFF7B2FDFFF7C0FDE1
:1046B000034B00221A805A8001225A7108BD00BFA4
:1046C000B801002008B5FFF799FFFFF717FD024872
:1046D000FFF77CF808BD00BF2801002038B5544C16
:1046E00001212046FEF780FE524D2870022120460F
:1046F000FEF77AFE504B187004212046FEF774FE38
:104700004E4B18702A784FF400514D48FEF773FE57
:104710004C4B1B78002B33D02A78002A30D14A4BDF
:1047200001221A70494B1B78002B33D0424A127871
:10473000002A2FD1464B01221A70464B1B78002BC2
:1047400032D03E4A1278002A2ED1434B01221A70F1
:10475000424B1B7813B1414B00221A70404B1B781F
:10476000002B30D0384B1B78002B27D1384B1B78CF
:10477000002B59D1384B1B7813B3FFF77FFC1FE098
:10478000002BCFD12B4B1B78002BCBD0294B0022F9
:104790001A70C7E7002BD0D1274B1B78002BCCD049
:1047A000254B00221A70C8E7002BD1D1234B1B7870
:1047B000002BCDD0214B00221A70C9E7FFF7B3FCC4
:1047C000274B00221A70274B1B7813B1254B002270
:1047D0001A70254B1B7813B1234B00221A70234B00
:1047E0001B7813B1214B00221A70214B1B7813B197
:1047F0001F4B00221A701F4B1B7813B11D4B002258
:104800001A701D4B1B7813B11B4B00221A70094BF9
:104810001A780C4B1A70084B1A780C4B1A70074B0D
:104820001A780C4B1A7038BDFFF798FCC8E700BF28
:1048300000080140D4050020D2050020C505002055
:1048400000100140D0050020D3050020CF05002036
:10485000D1050020CE050020C4050020CD05002094
:10486000C7050020CA050020CC050020C605002091
:10487000C9050020CB050020C8050020344B1A686C
:1048800003689A4200D07047324B1B68324AA2FB41
:10489000031222F0030101EB9202934202D12F4A4C
:1048A000012111702C4AA2FB0312D20802EB8202F2
:1048B000B3EB420F02D12A4A01211170264AA2FB12
:1048C0000312120902EB8202B3EB820F02D1254AD6
:1048D00001211170244AA2FB03121209322101FBAB
:1048E000123212B9214A012111701F4AA2FB031290
:1048F0005209642101FB123212B91D4A01211170C3
:10490000194AA2FB03129209C82101FB123212B903
:10491000184A01211170184AA2FB031252094FF4E0
:10492000FA7101FB123212B9144A01211170124AB4
:10493000A2FB031292094FF47A7101FB123212B9F1
:104940000F4A012111700133024A13609BE700BF37
:1049500028010020C0050020CDCCCCCCCD05002006
:10496000C7050020CA0500201F85EB51CC0500209B
:10497000C6050020C9050020D34D6210CB050020DC
:10498000C80500200C480D490D4A002302E0D45808
:10499000C4500433C4188C42F9D30A4A0A4C002389
:1049A00001E013600432A242FBD3FFF765FB00F085
:1049B0000FF8FCF72DFB7047000000202C000020B2
:1049C000588E00082C000020D8050020FEE70000CB
:1049D00070B500260C4D0D4C641BA410A64209D1E5
:1049E00001F00CFA00260A4D0A4C641BA410A642E2
:1049F00005D170BD55F8043B98470136EEE755F8F0
:104A0000043B98470136F2E7508E0008508E0008AC
:104A1000508E0008548E000803460244934200D191
:104A2000704703F8011BF9E710B5264C21F000434D
:104A3000A34286B021DD244A934209DD02460B469B
:104A4000FBF78AFB02460B461046194606B010BD1E
:104A500002AA00F095F800F00300012814D0022803
:104A600026D0E0B1DDE90423DDE902010124009450
:104A700001F002F802460B46E6E70022002306B0EA
:104A8000BDE8104000F0A8BADDE904230090DDE99C
:104A9000020100F0F1FF024601F10043D4E7DDE935
:104AA0000423DDE9020100F097FA02460B46CBE74A
:104AB000DDE90423DDE9020100F08EFA024601F18E
:104AC0000043C1E7FB21E93FFFFFEF7F10B5294C11
:104AD00021F00043A34286B020DD274A934209DD3E
:104AE00002460B46FBF738FB02460B4610461946BA
:104AF00006B010BD02AA00F043F800F00300012840
:104B000018D002282AD0F0B1DDE90423DDE9020142
:104B100000F062FA024601F10043E7E700240022B8
:104B20000023009400F0A8FF02460B4610461946E9
:104B300006B010BDDDE90423DDE9020100F04CFA06
:104B400002460B46D2E70124DDE90423DDE9020138
:104B5000009400F091FF02460B46C7E70124DDE90F
:104B60000423DDE90201009400F086FF024601F112
:104B70000043BBE7FB21E93FFFFFEF7F00000000A0
:104B80002DE9F04FDFF838C221F0004565450646B3
:104B900014468FB040F385808A4A0F46954226DC42
:104BA0007DA3D3E90023002940F3C081FBF7D4FAA9
:104BB000854B80469D42894600F08A8078A3D3E9E0
:104BC0000023FBF7C9FA02460B464046C4E900231E
:104BD0004946FBF7C1FA72A3D3E90023FBF7BCFAFD
:104BE0000126C4E9020130460FB0BDE8F08F774AD4
:104BF000954240F38D80764A95425FDC4FEA255816
:104C0000A8F21648A5EB08518B46FBF7F7FEFBF719
:104C1000F1FB02460B4630465946CDE90823FBF727
:104C20009BFA00226B4BFBF74FFC8B468246FBF74F
:104C3000E5FE0546FBF7DEFB02460B4650465946AD
:104C4000CDE90A23FBF788FA0022624BFBF73CFC14
:104C500002460B46CDE90C2300220023FBF79CFE05
:104C6000002800F06181002D0CBF012302230225E2
:104C700059494246019108A82146009500F0D4FA0E
:104C8000002F0646AFDAD4E9000505F10041C4E97A
:104C90000001E168A26801F10043C4E90223764201
:104CA000A1E700264FF000084FF00009C2E900011B
:104CB0003046C2E902890FB0BDE8F08F02460B46CC
:104CC000FBF74AFA0026C4E90201C4E900018AE7B9
:104CD00035A3D3E90023FBF73FFA35A3D3E900233B
:104CE00080468946FBF738FA02460B464046C4E93F
:104CF00000234946FBF730FA2DA3D3E90023FBF745
:104D00002BFA0126C4E9020130460FB0BDE8F08F4E
:104D100000F074FF28A3D3E9002380468946FBF7FF
:104D2000D3FB00222D4BFBF719FAFBF767FE064673
:104D3000FBF760FB18A3D3E9002382468B46CDE93D
:104D400004ABFBF7C1FB02460B4640464946FBF766
:104D500003FA13A3D3E90023CDE9020150465946D3
:104D6000FBF7B2FB1F2E804689463BDC1C4B721EB4
:104D700053F82230AB4235D002460B46DDE9020142
:104D8000FBF7EAF902460B4682468B46C4E900234C
:104D9000AEE000BFAFF3008000004054FB21F93FBC
:104DA0003163621A61B4D03D0000601A61B4D03D35
:104DB0007370032E8A19A33B83C8C96D305FE43F2B
:104DC000FB21E93F7BD90240FB21F93FFB2139411F
:104DD000FFFFEF7F00007041F88C00080000E03F0B
:104DE000788C00082B1507934246DDE902014B46FB
:104DF000FBF7B2F9C1F30A53C3EB1555102D8B46DF
:104E0000824671DD68A3D3E90023DDE90401FBF7E5
:104E10005BFBDDE902AB8046894642464B46504685
:104E20005946FBF799F902460B46504659469246B9
:104E30009B46FBF791F942464B46FBF78DF95CA385
:104E4000D3E9002380468946DDE90401FBF73CFBFA
:104E500042464B46FBF780F9804689465046594604
:104E600042464B46CDE902ABFBF776F9079AC1F310
:104E70000A53D31A312B8B46824635DD4EA3D3E934
:104E80000023DDE90401FBF71FFBDDE902AB8046EF
:104E9000894642464B4650465946FBF75DF9024665
:104EA0000B465046594692469B46CDE902ABFBF76E
:104EB00053F942464B46FBF74FF941A3D3E9002390
:104EC00080468946DDE90401FBF7FEFA42464B467F
:104ED000FBF742F9804689465046594642464B46C2
:104EE000FBF73AF98B46824652465B46C4E90023FB
:104EF000DDE9020152465B46FBF72EF942464B467E
:104F0000FBF72AF902460B46002FC4E90223BFF63D
:104F10006AAE0BF1004301F10041A0606360E16003
:104F20007642C4F800A05EE60323A0E6FBF716F97C
:104F3000274B80469D42894616D023A3D3E9002300
:104F4000FBF70CF902460B464046C4E900234946EC
:104F5000FBF702F91CA3D3E90023FBF7FFF84FF09E
:104F6000FF36C4E902013EE60FA3D3E90023FBF7B5
:104F7000F5F80FA3D3E9002380468946FBF7EEF846
:104F800002460B464046C4E900234946FBF7E4F8D5
:104F900007A3D3E90023FBF7E1F84FF0FF36C4E99C
:104FA000020120E6AFF300800000601A61B4D03D3A
:104FB0007370032E8A19A33B0000002E8A19A33BAD
:104FC000C14920259A837B393163621A61B4D03D8F
:104FD000FB21F93F000000002DE9F04F21F00046D1
:104FE000B6F1795F92469B460C46054685B06DDA70
:104FF000FBF704FD002800F0EB802A4623462846F4
:105000002146FBF761FA76A3D3E90023804689465F
:10501000FBF75AFA74A3D3E90023FBF79FF8424643
:105020004B46FBF751FA72A3D3E90023FBF794F840
:1050300042464B46FBF748FA6FA3D3E90023FBF740
:105040008DF842464B46FBF73FFA6DA3D3E90023A8
:10505000FBF782F842464B46FBF736FA6AA3D3E9E0
:105060000023FBF77BF842464B46FBF72DFACDE9D0
:105070000001002240464946654BFBF725FADDE971
:10508000002306460F4640464946FBF71DFAA84650
:10509000A14652465B4604460D4640464946FBF74C
:1050A00013FA02460B4620462946FBF755F80246FE
:1050B0000B4630463946FBF74FF802460B460020B8
:1050C0005449FBF749F805B0BDE8F08F02460B469E
:1050D000FBF7FAF942A3D3E9002380468946FBF7A0
:1050E000F3F941A3D3E90023FBF738F842464B46D6
:1050F000FBF7EAF93EA3D3E90023FBF72DF842467C
:105100004B46FBF7E1F93CA3D3E90023FBF726F874
:1051100042464B46FBF7D8F939A3D3E90023FBF706
:105120001BF842464B46FBF7CFF937A3D3E90023E0
:10513000FBF714F84B464246FBF7C6F9364BCDE970
:1051400000019E4295DD354B00229E423ADCA6F5D9
:10515000001300202F4916461F46FAF7FDFFCDE940
:105160000201002240464946294BFBF7ADF9324681
:105170003B46FAF7F1FFDDE9002306460F464046BD
:105180004946FBF7A1F9A846A14652465B460446AC
:105190000D4640464946FBF797F902460B46204626
:1051A0002946FAF7D9FF02460B4630463946FAF748
:1051B000D3FF02460B46DDE90201FAF7CDFF05B049
:1051C000BDE8F08F164B0026CDE90223154FC8E746
:1051D0000020104905B0BDE8F08F00BFAFF300809C
:1051E000D43888BEE9FAA8BDC4B1B4BD9EEE213E54
:1051F000AD529C804F7E923E9015CB19A001FA3E95
:105200007751C1166CC1563F4C5555555555A53F64
:105210000000E03F0000F03F3233D33F0000E93FA1
:105220000000E73F0000D23F2DE9F04FADF5197DBA
:10523000B84CA29D089354F82540013B12F1140F7D
:10524000074605940B910393C0F24283B249D31EE3
:1052500081FB0301DB17C3EBA10307930133A3EB2E
:105260008303DB00D3180693079A039BD61A059A8B
:1052700012EB03091BD409F1010900240025DDF814
:105280008CA2B1440DF1800808E05AF82600FBF723
:10529000B1F801364E45E8E8020108D0002EF4DAF4
:1052A0002046294601364E45E8E80201F6D1059B25
:1052B000002BC0F2BC83089B20AA02EBC30ADA00D1
:1052C0000292059AA7F108011A44DDF80C900491A6
:1052D0000DF5E07B019201EBC308039B002BC0F2AC
:1052E000AE81574600240025049E77E90223F6E9A3
:1052F0000201FBF7E9F802460B4620462946FAF779
:105300002DFF464504460D46EFD1019B09F10109E9
:105310009945EBE802450AF1080ADED1049BDDF865
:1053200008B00BAA9B44059B02EB83020A920CAACD
:10533000019302EB8303083B0993019A98AB03EBBB
:10534000C203002A53E9284529DD0DF5E07A0DF165
:1053500030090AEBC2080022704B20462946FBF7B1
:10536000B3F8FBF74BFBFBF745F800226C4B064606
:105370000F46FBF7A9F802460B4620462946FAF7E6
:10538000EBFEFBF73BFB78E9022349F8040B3946B7
:105390003046FAF7E3FED04504460D46DBD1DDF892
:1053A0001890204629464A4600F0AAFC00224FF0F9
:1053B0007F5304460D46FBF787F800F025FC0022DA
:1053C000584BFBF781F802460B4620462946FAF770
:1053D000C3FE0D460446FBF711FB8046FBF70AF8B7
:1053E0000B46024629462046FAF7B6FE4B46002BEE
:1053F00006460F4640F39880019A0CA9013A51F8ED
:105400002250C9F1180345FA03F101FA03F3ED1A2A
:105410000CAB43F82250C9F117031D41002D8844FD
:1054200000F38C800022002330463946FBF7B4FAA3
:10543000002800F05482019B059A03F1FF3A52457F
:1054400010DC002203F18043013B0CA90A9801EB18
:10545000830353F80419834242EA0102F9D1002A76
:1054600040F0F080059B0CAA013B52F82330002B42
:1054700040F0E0800123099A52F804190133002911
:10548000FAD0019AD3180293531C9946DDF8048090
:10549000089A9044079A02EB030A0AF1804AA39AF9
:1054A0000AF1FF3A02EB8A0A20AA02EBC80870AAA6
:1054B00002EBC30301935AF8040FFAF79BFF039B17
:1054C0004746002B08F1080848E902011FDB0024C9
:1054D0000025049E083F01E077E80201F6E9022377
:1054E000FAF7F2FF02460B4620462946FAF736FE47
:1054F0005E4504460D46EFD1019B09F10109E3E841
:1055000002450193029B9945D5DD019315E70024DF
:105510000025F1E7408E0008ABAAAA2A0000703EE1
:1055200000007041000020406BD1019B0CAA013BA0
:1055300052F82350ED15002D7FF774AF019B08F151
:105540000108002B40F3C9810C9C002C51D1019B18
:10555000012B20D001220CAB53F8044F002C4BD070
:10556000531C0CA9C4F1807441F82240019999425E
:1055700010DD0CAC0CAA52F823206FF07F4004EB36
:10558000830304EB810100E01A68821A43F8042BBC
:105590008B42F9D10124069B002B0EDD012B00F07C
:1055A0008C81022B09D1019B0CA95A1E0CAB53F81C
:1055B0002230C3F3150341F82230022D7FF432AFBD
:1055C00032463B4600207A49FAF7C6FD06460F46AA
:1055D000002C3FF427AF069A0020754900F090FB9D
:1055E00002460B4630463946FAF7B6FD06460F46E8
:1055F00018E701230022B4E7019901328A42ABD1B6
:10560000C9E700226B4BFBF7E5F9054600283FF49C
:1056100009AF019B08F10108002BC8BF022593DCEC
:1056200032463B4600206249FAF796FD02250646BF
:105630000F46F7E6019B01339946029326E70024C3
:10564000002562E6069B0395A3F118020CAB53F804
:105650002A30CDF81C80069273B9019B0CA903F186
:105660008043023B01EB830353F804190AF1FF3A2C
:10567000183A0029F8D006920020069A4C4900F00A
:105680003FFBBAF1000F04460D46C0F2D7814FF040
:10569000000870AB03EBCA0B0CAA0AF101030693D6
:1056A00002EB8306DFF810914FEACA0304930BF173
:1056B000080756F8040DFAF79DFE22462B46FAF726
:1056C00003FF4B4667E90201424620462946FAF7A6
:1056D000FBFE0CAB9E4204460D46EAD148ABCDE939
:1056E000013ADDF814A04FF00009BAF1000F2CDBED
:1056F0002DA3D3E900235F46002600240025DFF810
:10570000BC8003E0B14510DBF8E80223F7E80201B2
:10571000FAF7DAFE02460B4620462946FAF71EFD46
:105720000136B24504460D46ECDA019B029A03EBC2
:10573000C9039145C3E90045ABF1080B09F1010329
:1057400006D0BAF1000F9946D2DA00240025ECE722
:10575000A29BDDF808A0022B32DC002B00F3F280C4
:1057600018D1A29B049D1C46019E0835354418465D
:1057700075E902232146FAF7F1FCAE4203460C46D6
:10578000F5D1039A0AB104F10044184621460B9B57
:10579000C3E90001079B03F007000DF5197DBDE883
:1057A000F08F00BFAFF3008000000040FB21F93F05
:1057B0000000F03F0000E03F0000703E088E00084F
:1057C000A29B032BE6D1BAF1000F00F04D81019BA3
:1057D000049A13449B46D3E900455BE902672046DF
:1057E000294632463B46FAF7B9FCA046A94604468C
:1057F0000D4622462B4630463946FAF7ADFC4B465D
:105800004246FAF7ABFCCBE900016BE90245019B8C
:105810005B45E2D1BAF1010F40F32681049B019A66
:105820000DF5947B13449A46D3E9004502935AE957
:1058300002672046294632463B46FAF78FFCA046CF
:10584000A94604460D4622462B4630463946FAF70D
:1058500083FC42464B46FAF781FCCAE900016AE93B
:105860000245D345E3D100231E46029C019A083429
:1058700002F11005184674E902233146FAF76EFC6E
:10588000A54203460E46F5D1039A002A40F0A480B3
:10589000184631460B9C019BC4E90401D3E902235D
:1058A000C4E90223DDE94823C4E90023079B03F090
:1058B00007000DF5197DBDE8F08F019B0CA95A1E5C
:1058C0000CAB53F82230C3F3160341F8223074E6D0
:1058D00000216FF017030791C4E400245BE6069CE7
:1058E0003046394662420395CDF81C8000F008FA34
:1058F00000225F4B06460F46FBF76CF8002861D08C
:1059000000225C4B1834304639460694FAF7DCFD29
:10591000FBF774F80446FAF76DFD0022544BFAF7D2
:10592000D3FD0B46024639463046FAF715FCFBF725
:1059300065F8019D0CAB05F1010A43F8250043F819
:105940002A4099E600263446019F069B07EBC305D3
:10595000304675E902232146FAF700FCAF420646BD
:105960000C46F5D1039B002B50D1304621462346EF
:105970000B9C3246C4E90001DDE94801FAF7ECFB73
:10598000BAF1000F03460E4610DD012448AD18465B
:10599000F5E902233146FAF7E1FB0134A24503465B
:1059A0000E46F4DA039A0AB106F10046184631466B
:1059B0000B9BC3E90201079B03F007000DF5197D5E
:1059C000BDE8F08F30463946FBF718F8019B0CAA6A
:1059D0009A4642F823004FE60B9D019C06F10046D3
:1059E0006E6126462068A26864682B6104F100415C
:1059F000F468C5E9000104F10043C5E90223079BEF
:105A000003F007000DF5197DBDE8F08F0B9804F148
:105A100000410660324623464160DDE94801FAF75D
:105A20009BFBBAF1000F03460E46AEDCBCE7A7F1C4
:105A300008030493089BDB0002936FE4A29B022BF4
:105A400006DC002B0DDC7FF4A5AEA29B1C4698E67D
:105A5000A29B032B7FF49EAE002348AA1E46019210
:105A600012E7002634467DE700231E460CE700BF00
:105A7000000070410000703E2DE9F04F85B0CDE987
:105A8000022321F00043B3F1795F8246019104DAE9
:105A9000FAF7B4FF002800F08E80019B52461946A9
:105AA0005046FAF711FD04460D46019B2246194661
:105AB00050462B46FAF708FD43A3D3E900230646D8
:105AC0000F4620462946FAF7FFFC41A3D3E90023FD
:105AD000FAF742FB22462B46FAF7F6FC3EA3D3E93F
