:020000040800F2
:100000000050002025450008D9030008DB03000844
:10001000DD030008DF030008E10300080000000022
:10002000000000000000000000000000E3030008E2
:10003000E503000800000000E7030008E9030008EA
:100040006D4500086D4500086D4500086D450008C8
:100050006D4500086D4500086D4500086D450008B8
:100060006D4500086D4500086D4500086D450008A8
:100070006D4500086D4500086D4500086D45000898
:100080006D4500086D4500086D4500086D45000888
:10009000F10300086D4500086D4500086D45000836
:1000A0006D4500086D4500086D4500086D45000868
:1000B0006D450008010400086D4500086D45000805
:1000C0006D4500086D4500086D4500086D45000848
:1000D0006D450008110400086D4500086D450008D5
:1000E0006D4500086D4500086D45000800000000E2
:1000F0000000000000000000000000000000000000
:0C01000000000000000000005FF808F1A3
:10010C0010B5054C237833B9044B13B10448AFF345
:10011C0000800123237010BDE001002000000000CE
:10012C00B055000808B5034B1BB103490348AFF3A6
:10013C00008008BD00000000E4010020B05500085C
:10014C0072B6FEE700B595B0282200210DEB020037
:10015C0004F02CFA00230593069307930893099354
:10016C00019302930393049301220A924FF4803378
:10017C000B930E920222119212934FF4801313934D
:10018C000AA802F033FAD0B90F2305930223069381
:10019C00002307934FF4806208920993012105A86C
:1001AC0002F062FC68B9102301934FF480030493AE
:1001BC0001A802F035FD30B915B05DF804FBFFF76E
:1001CC00BFFFFFF7BDFFFFF7BBFF08B502F0D4F987
:1001DC00FFF7B8FF00F008F800F042F800F098F8CC
:1001EC0000F03AF9FEE7000030B589B00024049421
:1001FC00059406940794184B9A6942F010029A6180
:10020C009A6902F010020192019A9A6942F0200256
:10021C009A619A6902F020020292029A9A6942F05B
:10022C0004029A619B6903F004030393039B0B4D37
:10023C0022464FF40051284602F090FE4FF4005332
:10024C0004930123059306940223079304A92846DB
:10025C0002F072FD09B030BD0010024000100140E8
:10026C0000B587B000230293039304930593009386
:10027C0001931548154A026047224260836042F29E
:10028C000F72C26003618023836103F04FF890B951
:10029C004FF48053029302A90B4803F07FF868B91E
:1002AC000023009301936946074803F0E5F840B931
:1002BC0007B05DF804FBFFF743FFE9E7FFF740FFEA
:1002CC00EEE7FFF73DFFF3E7FC01002000040040E0
:1002DC0002680E4B9A4200D0704700B583B003F50C
:1002EC000333DA6942F00202DA61DB6903F00203DC
:1002FC000193019B002211461D2002F093FE1D204C
:10030C0002F0C8FE03B05DF804FB00BF000400401F
:10031C0008B50A480A4B03604FF4E13343600023ED
:10032C008360C36003610C2242618361C36103F08B
:10033C0063F900B908BDFFF703FFFBE74402002097
:10034C000038014030B587B0002302930393049327
:10035C00059302681B4B9A4201D007B030BD03F5E0
:10036C0058439A6942F480429A619A6902F4804235
:10037C000092009A9A6942F004029A619B6903F018
:10038C0004030193019B4FF4007302930223039324
:10039C00032305930C4D02A9284602F0CDFC4FF423
:1003AC008063029300240394049402A9284602F06B
:1003BC00C3FC22462146252002F034FE252002F003
:1003CC0069FECAE70038014000080140FEE7FEE77D
:1003DC00FEE7FEE7FEE770477047704708B502F08E
:1003EC00DDF808BD08B5024800F007FF08BD00BFE6
:1003FC00180F002008B5024802F0A0FE08BD00BF8F
:10040C00FC01002008B5024803F080F908BD00BFCC
:10041C004402002082B00E4B9A6942F001029A61AC
:10042C009A6902F001020092009ADA6942F0805255
:10043C00DA61DB6903F080530193019B054A536831
:10044C0023F0E06343F00073536002B0704700BFC9
:10045C00001002400000014008B500220F4910486E
:10046C0003F0F2F970B90F490D4803F011FA60B9B5
:10047C000D490B4804F023F850B9094803F01EFA53
:10048C0048B908BDFFF75CFEEDE7FFF759FEEFE753
:10049C00FFF756FEF1E7FFF753FEF2E700000020EE
:1004AC00840200206C0000205000002012230B80DE
:1004BC00004870471C00002004230B800048704744
:1004CC0030000020002393421ED200B510E00CF146
:1004DC00370C01F813C000014FEA430C0CF1010C6E
:1004EC004FF0000E01F80CE00133DBB2934209D25D
:1004FC004FEA107CB0F1204FE9D20CF1300C01F82E
:10050C0013C0E8E75DF804FB7047000038B50B4BEF
:10051C00D3F8E807D3F8EC47D3F8F037C01800D17C
:10052C0038BD074D0822A91CFFF7CCFF042205F1AA
:10053C0012012046FFF7C6FFF2E700BF00F0FF1FD5
:10054C003400002008B51A230B80FFF7DFFF0148A9
:10055C0008BD00BF3400002008B50A4628B905497B
:10056C00054803F002FE034808BD0249024803F0A7
:10057C00FCFDF8E748050020C855000810B50A46F0
:10058C00034C2146034803F0F0FD204610BD00BF8C
:10059C0048050020E055000808B50A4628B9054969
:1005AC00054803F0E2FD034808BD0249024803F088
:1005BC00DCFDF8E748050020F455000808B50A46AC
:1005CC0028B90549054803F0D0FD034808BD024988
:1005DC00024803F0CAFDF8E7480500200056000861
:1005EC00002070470020704710B50146044C20468F
:1005FC0003F074FF204603F077FF002010BD00BF0E
:10060C008402002010B5064C00220649204603F057
:10061C005DFF0549204603F061FF002010BD00BFBF
:10062C0084020020300B002048070020022805D847
:10063C00DFE800F00504020001207047022070473B
:10064C0002680E4B9A4200D0704700B583B003F598
:10065C00DA33DA6942F40002DA61DB6903F400038D
:10066C000193019B00221146142002F0DBFC1420A4
:10067C0002F010FD03B05DF804FB00BF005C00400D
:10068C0008B500F52C71D0F8E80203F02FF908BD7D
:10069C0008B501EB810300EBC303D3F87C21D0F840
:1006AC00E80203F050F908BD08B501EB810300EB3B
:1006BC00C303DA6BD0F8E80203F08BF908BD08B578
:1006CC00D0F8E80203F02CFA08BD10B50446836894
:1006DC00022B09D10121D4F8E80203F00AFAD4F86C
:1006EC00E80203F0DEF910BDFFF72AFDF2E7000087
:1006FC0010B50446D0F8E80203F0FEF9A36923B163
:10070C00024A136943F00603136110BD00ED00E0CB
:10071C0008B5D0F8E80203F0F8F908BD10B50446A6
:10072C001D48C0F8E842C4F8C0021C4B0360082303
:10073C0043600223836000238361C361036200F082
:10074C0023F930BB182300221146D4F8C00200F064
:10075C007CFF582300228021D4F8C00200F075FFE2
:10076C00C02300228121D4F8C00200F06EFF4FF4A8
:10077C00887300220121D4F8C00200F066FF4FF408
:10078C00807300228221D4F8C00200F05EFF0020AA
:10079C0010BDFFF7D5FCD5E7180F0020005C00401A
:1007AC0008B5D0F8C00200F07BF9FFF73FFF08BD99
:1007BC0008B594461A466346D0F8C00200F007FE0E
:1007CC00FFF734FF08BD08B5D0F8C00200F041FEB9
:1007DC00FFF72CFF08BD08B5D0F8C00200F0BEFE34
:1007EC00FFF724FF08BD08B5D0F8C00200F0F2FEF8
:1007FC00FFF71CFF08BDD0F8C03211F0800F08D1F4
:10080C0001F07F0101EB810103EBC10191F86A0159
:10081C00704701F07F01013101EB810103EBC10154
:10082C008878704708B5D0F8C00200F0D2FCFFF70A
:10083C00FDFE08BD08B5D0F8C00200F067FEFFF75A
:10084C00F5FE08BD08B5D0F8C00200F034FEFFF785
:10085C00EDFE08BD08B5D0F8C00200F04EFE08BD94
:10086C0000487047041200207047704738B512F4E6
:10087C00804F44D00468B4F850309BB291F800C05B
:10088C0003EBCC03023304EB4303B3F80044C4F38F
:10089C0009048B69A34228D31B1B8B618B697BB921
:1008AC00056835F82C309BB223F4804323F0700399
:1008BC0083F4005343F4004343F0800325F82C30B9
:1008CC0012F0400F0ED002680D7832F825309BB232
:1008DC0023F4E04323F0700343F4004343F0C003DC
:1008EC0022F8253024B9204638BD00238B61D5E78A
:1008FC0023460A894969006801F000FEF3E70468A1
:10090C00B4F850309BB291F800C003EBCC03063323
:10091C0004EB4303B3F80044C4F309048B69A3420A
:10092C002FD31B1B8B618B697BB9056835F82C3079
:10093C009BB223F4804323F0700383F4005343F4FD
:10094C00004343F0800325F82C3012F0400F0FD1F8
:10095C00026891F800C032F82C309BB223F4E043CB
:10096C0023F0700343F4004343F0C00322F82C300F
:10097C00002CB8D023464A894969006801F0BEFDB5
:10098C00B1E700238B61CEE770B586B0002800F08C
:10099C008580044690F8A932EBB1032384F8A93280
:1009AC00206800F07EFE254655F8106BEC460FCD06
:1009BC00ACE80F002B68CCF80030231D0ECB304672
:1009CC0000F05FFE054658B1022384F8A9320125D8
:1009DC00284606B070BD80F8A832FFF731FEDCE780
:1009EC000021206800F067FE2B461AE05A1C02EB2F
:1009FC00820104EBC1010120487002EB820104F872
:100A0C00313003EB830104EBC101CB8602EB820C8A
:100A1C0004EBCC0C00208CF803008863C8630864DA
:100A2C00D3B261688B42E1D316E005EB850304EB8E
:100A3C00C303002283F8692183F8685183F86B2182
:100A4C00C3F87821C3F87C2105EB850304EBC303C1
:100A5C00C3F880210135EDB2A942E6D8254655F8F8
:100A6C00106BEC460FCDACE80F002B68CCF80030C7
:100A7C00231D0ECB304600F020FE054620B102238C
:100A8C0084F8A9320125A3E7002384F8243001233C
:100A9C0084F8A932206801F046F999E7012597E717
:100AAC0038B590F8A832012B11D00446012580F8F6
:100ABC00A852006800F0ECFD29462046FFF7D5FE51
:100ACC00206801F02EF9002084F8A80238BD02201D
:100ADC00FCE770B505460C46164612F0400F00F0C8
:100AEC00BA800268B2F850309BB2097803EBC103AC
:100AFC00023302EB4303B3F80024C2F30902A369E7
:100B0C0093422BD99B1AA361A36953B316F4804F5C
:100B1C000DD0286830F821309BB223F4E04323F049
:100B2C00700343F4404343F0800320F8213094F8E1
:100B3C002430012B2BD02A68217832F821309BB23B
:100B4C0023F4E04323F0400383F0300343F40043E9
:100B5C0043F0800322F82130002070BD0023A361F4
:100B6C00D2E72846FFF7A0FD16F4804FE3D02A68A1
:100B7C00217832F821309BB223F4E04323F0700348
:100B8C0043F4404343F0800322F82130D3E76369F8
:100B9C0013446361E3691344E361216A2369994255
:100BAC001FD3C91A21626278002A3FD12A68B2F891
:100BBC00501089B20A44217802EB0112EBB9B2F859
:100BCC00041489B221F4F84189B2A2F80414B2F8E1
:100BDC0004146FEA41416FEA514189B2A2F804143E
:100BEC0026E021B9002384F824301346DBE70023E8
:100BFC0084F8243023620B46D5E73E2B09D85908DC
:100C0C0013F0010F00D00131890289B2A2F804144B
:100C1C000EE0590913F01F0F00D101396FEAC161C1
:100C2C006FEA514189B2A2F8041401E0012A06D0FE
:100C3C009BB222896169286801F07DF87BE72A68FC
:100C4C00B2F8501089B20A44217802EB011299B221
:100C5C00A2F80414ECE70268B2F850309BB20978A1
:100C6C0003EBC103063302EB4303B3F80024C2F3D6
:100C7C000902A369934244D39B1AA361A369002B75
:100C8C0042D016F4804F0DD1286830F821309BB239
:100C9C0023F4E04323F0700343F4404343F0800318
:100CAC0020F8213094F82430012B7FF444AF636991
:100CBC0013446361E3691344E361216A2369994234
:100CCC0039D3C91A21622A686178002958D1B2F83F
:100CDC00501089B20A44217802EB0112BBBBB2F866
:100CEC000C1489B221F4F84189B2A2F80C14B2F8B0
:100CFC000C146FEA41416FEA514189B2A2F80C140D
:100D0C0040E00023A361B9E72846FFF7CDFC16F4B9
:100D1C00804F7FF410AF2A68217832F821309BB2D3
:100D2C0023F4E04323F0700343F4404343F0800387
:100D3C0022F82130FFE621B9002384F82430134631
:100D4C00C1E70023236284F824300B46BBE73E2B1B
:100D5C0009D8590813F0010F00D00131890289B26A
:100D6C00A2F80C140EE0590913F01F0F00D1013931
:100D7C006FEAC1616FEA514189B2A2F80C1401E02B
:100D8C00012906D09BB262896169286800F0D3FF03
:100D9C00D1E6B2F8501089B20A44217802EB011264
:100DAC0099B2A2F80C14EDE72DE9F041054628683C
:100DBC00B0F8443013F4004F00F00882B0F844400F
:100DCC00A3B214F00F0440F0D48013F0100F5DD0D8
:100DDC0003889AB213F4006F40F08F8012F4004F26
:100DEC00E5D0038823F070031B051B0D43F0800333
:100DFC0003802868B0F850309BB295F8682103EB5B
:100E0C00C203063300EB4303B3F80034C3F3090306
:100E1C00C5F884318BB1D5F87C1171B1B5F86E2160
:100E2C0001F06CFBD5F88421D5F87C311344C5F85E
:100E3C007C3100212846FFF72BFC2A68B2F8503091
:100E4C009BB21344D5F87821002A79D1B3F80C243D
:100E5C0092B222F4F84292B2A3F80C24B3F80C2408
:100E6C006FEA42426FEA524292B2A3F80C242A680B
:100E7C0013889BB223F4804323F0700383F4405314
:100E8C0043F4004343F08003138090E703889BB244
:100E9C0023F4E14323F070036FEA43436FEA5343B7
:100EAC009BB203802A68B2F850309BB295F8281098
:100EBC0003EBC103023302EB4303B3F80034C3F377
:100ECC0009036B64EA6B1344EB6300212846FFF7BC
:100EDC00EBFB95F82430002B3FF469AF2B6C002B07
:100EEC007FF465AF95F824302A6843F08003A2F8AC
:100EFC004C30002385F8243059E7B0F850309BB2C1
:100F0C0095F8682103EBC203063300EB4303B3F8F7
:100F1C000034C3F30903C5F88431B5F86E2105F527
:100F2C002C7101F0EBFA2A68138823F070031B056F
:100F3C001B0D43F0800313802846FFF7A1FB36E717
:100F4C003E2A09D8510812F0010F00D00131890254
:100F5C0089B2A3F80C148AE7510912F01F0F00D1C3
:100F6C0001396FEAC1626FEA524292B2A3F80C24C3
:100F7C007DE730F824309EB213F4004F48D116F0C0
:100F8C00800F3FF414AF621C02EB820105EBC10130
:100F9C00286830F824309BB223F4E14323F070032B
:100FAC006FEA43436FEA53439BB220F82430CB786B
:100FBC00022B00F0EE802868B0F850309BB2621C17
:100FCC0002EB820215F8326003EBC603023300EB2E
:100FDC004303B3F80034C3F3090304EB840205EBB9
:100FEC00C202126C9A4240F2DD8004EB840705EBDE
:100FFC00C707D21A3A6404EB840205EBC202126CE6
:10100C00002A40F0D68031462846FFF74DFBCEE64D
:10101C0030F8243023F070031B051B0D43F08003C4
:10102C0020F8243004EB8401C90001F5B47105EB00
:10103C00010804EB840305EBC30393F87431002B14
:10104C0042D12868B0F850309BB204EB840205EB17
:10105C00C20292F8682103EBC203063300EB430390
:10106C00B3F80074C7F3090717BB04EB840305EB53
:10107C00C303D3F884213A44C3F88421D3F87C21E8
:10108C003A44C3F87C21D3F880313BB104EB8403A0
:10109C0005EBC303D3F878319F4275D204EB84037C
:1010AC0005EBC30393F868112846FFF7F1FA66E7DE
:1010BC0004EB840105EBC1013B46B1F86E21D1F87C
:1010CC007C1101F01BFAD0E704EB840305EBC3039E
:1010DC0093F86B31022B35D0296804EB840205EBB5
:1010EC00C20292F8680131F820309BB223F4E0433D
:1010FC0023F0700343F4004343F0C00321F8203085
:10110C00286892F8682130F8223013F4804F20D0F0
:10111C00B0F850309BB203EBC203023300EB430335
:10112C00B3F80074C7F30907002F9ED004EB8401B9
:10113C0005EBC1013B46B1F87021D1F87C1101F0EF
:10114C00DDF992E7324641462846FFF78FFB07460A
:10115C008BE7B0F850309BB203EBC203063300EBC5
:10116C004303B3F80074C7F30907002F3FF47DAFB6
:10117C0004EB840105EBC1013B46B1F87221D1F8B7
:10118C007C1101F0BBF970E74146286800F0E7FDDF
:10119C00F5E616F4807F3FF40EAF32462846FFF793
:1011AC0098FC04E604EB840205EBC20200271764EA
:1011BC0021E704EB840205EBC202D66B1E44D66316
:1011CC00546C2344536400F0CAFDF0E50020BDE8E4
:1011DC00F08190F8A832012B0DD010B504460123F4
:1011EC0080F8A83280F82410006800F094FD0020EC
:1011FC0084F8A80210BD0220704710B584B00446D4
:10120C00006800F092FD10F4004F47D1206800F008
:10121C008CFD10F4806F45D1206800F086FD10F431
:10122C00804F08D02268B2F844309BB223F480433C
:10123C009BB2A2F84430206800F077FD10F4005FF8
:10124C0008D02268B2F844309BB223F400539BB20E
:10125C00A2F84430206800F068FD10F4805F32D1B1
:10126C00206800F062FD10F4006F78D1206800F067
:10127C005CFD10F4007F40F09D80206800F055FD6F
:10128C0010F4807F08D02268B2F844309BB223F46B
:10129C0080739BB2A2F8443004B010BD2046FFF717
:1012AC0083FDB3E72268B2F844309BB223F4806329
:1012BC009BB2A2F844302046FFF707FA00212046E3
:1012CC00FFF787FFA8E72268B2F840309BB223F003
:1012DC0004039BB2A2F840302268B2F840309BB2B3
:1012EC0023F008039BB2A2F840302046FFF710FA17
:1012FC002268B2F844309BB223F480539BB2A2F81C
:10130C004430ADE7226832F8231004AA02EB430202
:10131C0022F8101C0133DBB2072BF3D92268B2F888
:10132C0040309BB243F00103A2F840302268B2F87F
:10133C0040309BB223F001039BB2A2F840302368EB
:10134C00B3F8442012F4806FF9D0B3F8442092B271
:10135C0022F4806292B2A3F8442000230BE0002315
:10136C00DAE7226804A901EB430131F8101C22F8DA
:10137C0023100133DBB2072BF3D92268B2F84030CB
:10138C009BB243F00803A2F840302268B2F8443014
:10139C009BB223F400639BB2A2F844302268B2F8EB
:1013AC0040309BB243F00403A2F840302046FFF7D4
:1013BC009FF95BE72268B2F844309BB223F40073C8
:1013CC009BB2A2F844302046FFF779F955E710B5E7
:1013DC0004468C4611F0800F2AD101F0070000EB77
:1013EC008001C90001F5B47E04EB0E0100EB800016
:1013FC0004EBC0004FF0000E80F869E10CF0070C14
:10140C0081F800C00A61CB704A780AB1A1F80EC00D
:10141C00022B19D094F8A832012B18D0012384F890
:10142C00A832206800F05AF9002084F8A80210BDF8
:10143C0001F00700013000EB800104EBC1014FF01B
:10144C00010E81F801E0D9E700230B71E2E70220DD
:10145C00EDE710B504460B4611F0800F1FD101F0DB
:10146C00070202EB8201C90001F5B471014402EBE1
:10147C00820200EBC202002082F8690103F007032C
:10148C000B7094F8A832012B13D0012384F8A832E6
:10149C00206800F0DFFA002084F8A80210BD01F0EB
:1014AC000702013202EB820100EBC10101204870FE
:1014BC00E4E70220F2E710B501F0070404EB840125
:1014CC00C90001F5B471014404EB840C00EBCC0CA5
:1014DC00CCF87C21CCF880310023CCF884318CF80A
:1014EC0069318CF8684124B9006800F038FC0020A0
:1014FC0010BD006800F033FCF9E701F0070101EBC7
:10150C00810100EBC101D1F88401704710B501F0E5
:10151C00070404F1010C0CEB8C0100EBC10104EB92
:10152C00840E00EBCE0ECEF83C20CEF840300122DB
:10153C008EF84C20CEF848300023CEF844304A7058
:10154C000CEB8C0C00F83C4024B9006800F007FC54
:10155C00002010BD006800F002FCF9E738B501F07E
:10156C0007054268954231D804460B4611F0800FAE
:10157C001ED101EB8101C90001F5B471014403EBEB
:10158C00830300EBC303002283F8692101238B70D2
:10159C000D7094F8A832012B1AD0012384F8A832CC
:1015AC00206800F042FB5DB1002084F8A80238BD31
:1015BC006B1C03EB830100EBC10101224A70E5E7D0
:1015CC0004F52C71206800F0B4FBEDE70120EEE788
:1015DC000220ECE70B4601F00F014268914230D833
:1015EC0010B5044613F0800F21D103F0070202EB73
:1015FC008201C90001F5B471014402EB820200EBD7
:10160C00C202002082F8690100228A7003F00703ED
:10161C000B7094F8A832012B15D0012384F8A83252
:10162C00206800F027FB002084F8A80210BD03F00E
:10163C000702013202EB820100EBC101012048706C
:10164C00E2E7012070470220F0E711F0800F0BD089
:10165C0001F00701013101EB810100EBC10152B92D
:10166C000A73CB800020704701EB8101C90001F5A2
:10167C00B4710144F3E701220A730B811B0C4B81FB
:10168C00F0E784B001A880E80E00002004B0704799
:10169C0003460020A3F844004FF43F42A3F8402037
:1016AC007047B0F8403023F47C535B045B0CA0F81B
:1016BC004030002070470020704784B0844601A859
:1016CC0080E80E000123ACF840300020ACF840005C
:1016DC00ACF84400ACF8500004B0704710B50346A9
:1016EC0091F800C030F82C2092B222F4EC4222F097
:1016FC00700292B2C878032861D8DFE800F0555C1C
:10170C000258002048F2800E42EA0E0223F82C20E8
:10171C0091F800C033F82C2092B222F4E04222F06F
:10172C0070024CEA020242EA0E0223F82C200A7BD9
:10173C00002A40F0C4804A78002A51D0B3F85020D7
:10174C0092B21A440C7802EB0412B1F806C04FEABC
:10175C005C0C4FEA4C0CA2F800C40C7833F8242033
:10176C0012F0400F0CD033F8242092B222F4E04255
:10177C0022F0700242F4004242F0C00223F824200E
:10178C00CA78012A1DD0097833F8212092B222F4AC
:10179C00E04222F0400282F0200242F4004242F089
:1017AC00800223F821206AE042F40072AAE742F496
:1017BC00C0620020A6E742F480620020A2E701206C
:1017CC00A0E7097833F8212092B222F4E04222F00B
:1017DC00400242F4004242F0800223F821204EE005
:1017EC00B3F8502092B21A440C7802EB0412B1F800
:1017FC0006C04FEA5C0C4FEA4C0CA2F808C4B3F8D4
:10180C00502092B21A440C7802EB04120C69BCBB47
:10181C00B2F80CC41FFA8CFC2CF4F84C1FFA8CFC9C
:10182C00A2F80CC4B2F80CC46FEA4C4C6FEA5C4CD6
:10183C001FFA8CFCA2F80CC40C7833F8242012F498
:10184C00804F0CD033F8242092B222F4E04222F0E4
:10185C00700242F4404242F0800223F824200978BE
:10186C0033F8212092B222F4804222F0700282F4EA
:10187C00405242F4004242F0800223F8212010BD75
:10188C003E2C0DD84FEA540C14F0010F01D00CF182
:10189C00010C4FEA8C2C1FFA8CFCA2F80CC4CBE781
:1018AC004FEA541C14F01F0F01D10CF1FF3C6FEAEE
:1018BC00CC646FEA5444A4B2A2F80C44BCE791F88F
:1018CC0000C033F82C2092B222F4E04222F07002D5
:1018DC0042F4014242F0800223F82C20B3F850204D
:1018EC0092B21A4491F800C002EB0C12B1F808C085
:1018FC004FEA5C0C4FEA4C0CA2F800C4B3F8502031
:10190C0092B21A4491F800C002EB0C12B1F80AC062
:10191C004FEA5C0C4FEA4C0CA2F808C44A78002A37
:10192C0041D10C7833F8242012F4804F0CD033F8CA
:10193C00242092B222F4E04222F0700242F440429F
:10194C0042F0800223F824200C7833F8242012F083
:10195C00400F0CD033F8242092B222F4E04222F053
:10196C00700242F4004242F0C00223F8242091F8A5
:10197C0000C033F82C2092B222F4804222F0700284
:10198C0082F4405248F28004224323F82C20097838
:10199C0033F8212092B222F4E04222F0400222439A
:1019AC0023F821206BE70C7833F8242012F4804FB5
:1019BC000CD033F8242092B222F4E04222F07002D0
:1019CC0042F4404242F0800223F824200C7833F891
:1019DC00242012F0400F0CD033F8242092B222F4C1
:1019EC00E04222F0700242F4004242F0C00223F8BE
:1019FC002420CA78012A1ED00C7833F8242092B205
:101A0C0022F4E04222F0400282F0200242F4004232
:101A1C0042F0800223F82420097833F8212092B276
:101A2C0022F4804222F0700242F4004242F0800222
:101A3C0023F8212023E70C7833F8242092B222F4E7
:101A4C00E04222F0400242F4004242F0800223F8CD
:101A5C002420E1E70B7B002B46D14B7813B30A789B
:101A6C0030F8223013F0400F0CD030F822309BB2FB
:101A7C0023F4E04323F0700343F4004343F0C0032A
:101A8C0020F822300A7830F822309BB223F4E0435D
:101A9C0023F0400343F4004343F0800320F822304A
:101AAC00002070470A7830F8223013F4804F0CD0A5
:101ABC0030F822309BB223F4E04323F0700343F45C
:101ACC00404343F0800320F822300A7830F822306B
:101ADC009BB223F4804323F0700343F4004343F0A0
:101AEC00800320F82230DBE74B78002B4ED10A78AC
:101AFC0030F8223013F4804F0CD030F822309BB2E7
:101B0C0023F4E04323F0700343F4404343F0800399
:101B1C0020F822300A7830F8223013F0400F0CD025
:101B2C0030F822309BB223F4E04323F0700343F4EB
:101B3C00004343F0C00320F822300A7830F82230FA
:101B4C009BB223F4E04323F0700343F4004343F0CF
:101B5C00C00320F822300B7830F8232092B222F404
:101B6C00804222F0700248F2800C42EA0C0220F80B
:101B7C0023200A7830F822309BB223F4E04323F080
:101B8C00400343EA0C0320F8223089E70A7830F846
:101B9C00223013F4804F0CD030F822309BB223F457
:101BAC00E04323F0700343F4404343F0800320F8F8
:101BBC0022300A7830F8223013F0400F0CD030F875
:101BCC0022309BB223F4E04323F0700343F4004330
:101BDC0043F0C00320F822300A7830F822309BB250
:101BEC0023F4E04323F0700343F4404343F08003B9
:101BFC0020F822300B7830F8232092B222F4E04205
:101C0C0022F0400248F2800C42EA0C0220F8232019
:101C1C000A7830F822309BB223F4804323F070030F
:101C2C0043EA0C0320F822303AE74B788BB10A7860
:101C3C0030F822309BB223F4E04323F0400383F0CE
:101C4C00100343F4004343F0800320F822300020BB
:101C5C0070470A7830F822309BB223F4804323F08B
:101C6C00700383F4805343F4004343F0800320F863
:101C7C002230ECE70B7B002B4BD14B7833B30A783B
:101C8C0030F8223013F0400F0CD030F822309BB2D9
:101C9C0023F4E04323F0700343F4004343F0C00308
:101CAC0020F82230CB78012B33D00A7830F8223050
:101CBC009BB223F4E04323F0400383F0200343F46E
:101CCC00004343F0800320F8223022E00A7830F8F9
:101CDC00223013F4804F0CD030F822309BB223F416
:101CEC00E04323F0700343F4404343F0800320F8B7
:101CFC0022300A7830F822309BB223F4804323F050
:101D0C00700383F4405343F4004343F0800320F802
:101D1C0022300020704711B98023A0F84C300020ED
:101D2C0070470020704700207047B0F8440080B224
:101D3C0070470020704710B45C1C640800EB420232
:101D4C0002F5806207E00B78487843EA002322F81A
:101D5C00043B0231013C002CF5D110BC704770B52E
:101D6C0005460C464A78012A37D00B7B002B40F0F5
:101D7C00A0828B690A69934240F27E829B1A8B6126
:101D8C00B5F850309BB22B44217803EB0113002A99
:101D9C0040F07682B3F80C2492B222F4F84292B25C
:101DAC00A3F80C24B3F80C246FEA42426FEA5242B7
:101DBC0092B2A3F80C24227835F822309BB223F48B
:101DCC00804323F0700383F4405343F4004343F007
:101DDC00800325F82230002070BD8E6909698E427F
:101DEC0000D90E46237B3BB3E378022B46D02178F7
:101DFC0035F8213013F0400F00F0EE81002A40F04E
:101E0C00CA81B5F850309BB22B4403EB0113002E62
:101E1C0040F0A881B3F80C2492B222F4F84292B2AA
:101E2C00A3F80C24B3F80C246FEA42426FEA524236
:101E3C0092B2A3F80C24B7E1B6B23346E2886169DA
:101E4C002846FFF778FFB5F850309BB22B44227828
:101E5C0003EB0213A3F80464227835F822309BB20A
:101E6C0023F4E04323F0400383F0300343F40043B6
:101E7C0043F0800325F822300020ADE7236A994215
:101E8C0080F05281227835F822309BB223F4E04363
:101E9C0023F0700343F4014343F0800325F8223010
:101EAC00236A9B1B2362237835F8232012F0400F02
:101EBC0000F09D8062788ABBB5F8502092B22A441B
:101ECC0002EB03138EB9B3F80C2492B222F4F8424D
:101EDC0092B2A3F80C24B3F80C246FEA42426FEAD6
:101EEC00524292B2A3F80C241AE03E2E09D8720882
:101EFC0016F0010F00D00132920292B2A3F80C241A
:101F0C000EE0720916F01F0F00D1013A6FEAC2629F
:101F1C006FEA524292B2A3F80C2401E0012A2BD0B2
:101F2C00B3B2628961692846FFF705FF63693344E0
:101F3C006361236A2269934228D99B1B23626378CD
:101F4C00002B40D1B5F850309BB22B44227803EBD8
:101F5C000213FEB9B3F8042492B222F4F84292B2FE
:101F6C00A3F80424B3F804246FEA42426FEA524205
:101F7C0092B2A3F8042428E0B5F8502092B22A4477
:101F8C0002EB0313B2B2A3F80C24C9E700222262BD
:101F9C001E46D4E73E2E09D8720816F0010F00D069
:101FAC000132920292B2A3F804240EE0720916F0E8
:101FBC001F0F00D1013A6FEAC2626FEA524292B22D
:101FCC00A3F8042401E0012B06D0B3B22289616985
:101FDC002846FFF7B0FE3FE7B5F850309BB22B44D4
:101FEC00227803EB0213B2B2A3F80424EDE7627873
:101FFC008ABBB5F8502092B22A4402EB03138EB977
:10200C00B3F8042492B222F4F84292B2A3F8042456
:10201C00B3F804246FEA42426FEA524292B2A3F838
:10202C0004241AE03E2E09D8720816F0010F00D0D5
:10203C000132920292B2A3F804240EE0720916F057
:10204C001F0F00D1013A6FEAC2626FEA524292B29C
:10205C00A3F8042401E0012A2BD0B3B222896169D0
:10206C002846FFF768FE636933446361236A22697B
:10207C00934228D99B1B23626378002B40D1B5F87F
:10208C0050309BB22B44227803EB0213FEB9B3F809
:10209C000C2492B222F4F84292B2A3F80C24B3F8B6
:1020AC000C246FEA42426FEA524292B2A3F80C241B
:1020BC0028E0B5F8502092B22A4402EB0313B2B2D6
:1020CC00A3F80424C9E7002222621E46D4E73E2E60
:1020DC0009D8720816F0010F00D00132920292B2A8
:1020EC00A3F80C240EE0720916F01F0F00D1013A70
:1020FC006FEAC2626FEA524292B2A3F80C2401E07A
:10210C00012B06D0B3B2628961692846FFF713FE32
:10211C00A2E6B5F850309BB22B44227803EB0213A5
:10212C00B2B2A3F80C24EDE7217835F8212092B255
:10213C0022F4E24222F0700242F4004242F08002A9
:10214C0025F82120B5F8502092B22A44217802EBD0
:10215C0001129BB2A2F80434228961692846FFF768
:10216C00EAFD79E63E2E09D8720816F0010F00D070
:10217C000132920292B2A3F80C2415E0720916F007
:10218C001F0F00D1013A6FEAC2626FEA524292B25B
:10219C00A3F80C2408E0B5F850309BB22B4403EBA9
:1021AC000113B2B2A3F80C246289B3B26169284658
:1021BC00FFF7C1FD6378002B4CD1227835F8223023
:1021CC009BB223F4E04323F0700343F4004343F049
:1021DC00C00325F822303FE68ABBB5F850309BB2DD
:1021EC002B4403EB01138EB9B3F8042492B222F4FE
:1021FC00F84292B2A3F80424B3F804246FEA4242E2
:10220C006FEA524292B2A3F8042421E03E2E09D880
:10221C00720816F0010F00D00132920292B2A3F8AC
:10222C00042415E0720916F01F0F00D1013A6FEA71
:10223C00C2626FEA524292B2A3F8042408E0B5F8E5
:10224C0050309BB22B4403EB0113B2B2A3F804241D
:10225C002289AAE7012B7FF4FFAD227835F82230D2
:10226C009BB223F4E04323F0700343F4404343F068
:10227C00800325F82230EFE500228A611A467FE5BB
:10228C003E2A09D8510812F0010F00D00131890201
:10229C0089B2A3F80C148EE5510912F01F0F00D16E
:1022AC0001396FEAC1616FEA514189B2A3F80C148C
:1022BC0081E5CB78022B45D0012B40F01D8189693B
:1022CC002369994240F2D480C91AA161D2B9B5F8F8
:1022DC00502092B22A44217802EB0112002B40F0DC
:1022EC00CB80B2F8041489B221F4F84189B2A2F877
:1022FC000414B2F804146FEA41416FEA514189B2F7
:10230C00A2F804146278002A40F0E880B5F8502056
:10231C0092B22A44217802EB0112002B40F0C580C6
:10232C00B2F80C349BB223F4F8439BB2A2F80C34F1
:10233C00B2F80C346FEA43436FEA53439BB2A2F8F2
:10234C000C3438E5CAB9B0F850309BB203440A7863
:10235C0003EB02130A6972BBB3F8042492B222F4A1
:10236C00F84292B2A3F80424B3F804246FEA424270
:10237C006FEA524292B2A3F804246378002B4CD13A
:10238C00B5F850309BB22B44227803EB0213226930
:10239C0052BBB3F80C2492B222F4F84292B2A3F8D6
:1023AC000C24B3F80C246FEA42426FEA524292B208
:1023BC00A3F80C2433E03E2A09D8510812F0010F7F
:1023CC0000D001318A0292B2A3F80424D5E7510956
:1023DC0012F01F0F00D101396FEAC1626FEA52424D
:1023EC0092B2A3F80424C8E73E2A09D8510812F087
:1023FC00010F00D001318A0292B2A3F80C240EE036
:10240C00510912F01F0F00D101396FEAC1626FEA56
:10241C00524292B2A3F80C2401E0012B1DD0E369C7
:10242C00002B3FF4C8AC227835F8221044F240035C
:10243C0003EA01008B4302D000287FF4BCAC35F8D2
:10244C0022309BB223F4E04323F0700343F40043A7
:10245C0043F0C00325F82230ADE4B5F850309BB200
:10246C002B44227803EB0213228AA3F80C24D6E720
:10247C000023A3610B4629E73E2B09D8590813F01A
:10248C00010F00D00131890289B2A2F8041439E796
:10249C00590913F01F0F00D101396FEAC1616FEABE
:1024AC00514189B2A2F804142CE73E2B09D85908E3
:1024BC0013F0010F00D001318B029BB2A2F80C3447
:1024CC0079E4590913F01F0F00D101396FEAC16388
:1024DC006FEA53439BB2A2F80C346CE4012A7FF4EC
:1024EC006AACB5F8502092B22A44217802EB011262
:1024FC009BB2A2F80C345EE401206DE410B45C08CD
:10250C0000EB420000F5806007E030F8042B0A7005
:10251C00C2F307224A700231013C002CF5D113F0B2
:10252C00010F01D003880B7010BC704710B5044626
:10253C000E4B18784FF47A73B3FBF0F30C4A106817
:10254C00B0FBF3F000F0B4FD68B90F2C01D90120F9
:10255C000AE0002221464FF0FF3000F063FD054BEE
:10256C001C60002000E0012010BD00BF60000020B6
:10257C00680000206400002008B5074A136843F087
:10258C0010031360032000F03BFD0020FFF7CEFF8B
:10259C00FDF740FF002008BD00200240034A1168EF
:1025AC00034B1B780B441360704700BF24140020AE
:1025BC0060000020014B1868704700BF24140020F5
:1025CC0082B0084B1B68084AA2FB03235B0A00FB82
:1025DC0003F3019300BF019B5A1E0192002BF9D10A
:1025EC0002B0704768000020D34D6210002800F044
:1025FC00F18170B582B00446036813F0010F2CD042
:10260C00994B5B6803F00C03042B1DD0964B5B6855
:10261C0003F00C03082B12D06368B3F5803F41D054
:10262C00002B55D103F1804303F504331A6822F4CF
:10263C0080321A601A6822F480221A6037E08A4BC2
:10264C005B6813F4803FE7D0874B1B6813F4003FA3
:10265C0003D06368002B00F0BF81236813F0020FD6
:10266C0075D0814B5B6813F00C0F5FD07E4B5B68B1
:10267C0003F00C03082B54D02369002B00F08A8044
:10268C007A4B01221A60FFF795FF0546764B1B68C3
:10269C0013F0020F75D1FFF78DFF401B0228F5D9FF
:1026AC0003209EE1704A136843F48033136063681F
:1026BC0043B3FFF77FFF05466B4B1B6813F4003FDA
:1026CC00CBD1FFF777FF401B6428F5D9032088E1B5
:1026DC00B3F5A02F09D0644B1A6822F480321A602B
:1026EC001A6822F480221A60E1E703F18043A3F513
:1026FC003C331A6842F480221A601A6842F4803221
:10270C001A60D4E7FFF756FF0546574B1B6813F4C6
:10271C00003FA2D0FFF74EFF401B6428F5D90320E1
:10272C005FE1514B5B6813F4803FA5D14E4B1B68A6
:10273C0013F0020F03D02369012B40F04F814A4A5A
:10274C00136823F0F803616943EAC103136023683B
:10275C0013F0080F33D0A369002B5CD0434B01223C
:10276C00C3F88024FFF726FF05463F4B5B6A13F046
:10277C00020F21D1FFF71EFF401B0228F5D90320C1
:10278C002FE1394A136823F0F803616943EAC10366
:10279C001360DCE7354B00221A60FFF70BFF054690
:1027AC00314B1B6813F0020FD1D0FFF703FF401B16
:1027BC000228F5D9032014E10120FFF701FF23685B
:1027CC0013F0040F00F09680274BDB6913F0805F49
:1027DC0034D1254BDA6942F08052DA61DB6903F0BF
:1027EC0080530193019B0125214B1B6813F4807FBF
:1027FC0026D0E368012B3DD0002B53D103F180434D
:10280C0003F504331A6A22F001021A621A6A22F0E2
:10281C0004021A6233E0154B0022C3F88024FFF740
:10282C00C9FE0546104B5B6A13F0020FC7D0FFF7C9
:10283C00C1FE401B0228F5D90320D2E00025D3E7C6
:10284C000B4A136843F480731360FFF7B3FE06461C
:10285C00074B1B6813F4807FCBD1FFF7ABFE801BBB
:10286C006428F5D90320BCE000100240000042426D
:10287C00007000405F4A136A43F001031362E3687F
:10288C0033B3FFF797FE06465A4B1B6A13F0020F41
:10289C002FD1FFF78FFE801B41F288339842F3D97A
:1028AC0003209EE0052B09D0524B1A6A22F001023C
:1028BC001A621A6A22F004021A62E0E74D4B1A6A95
:1028CC0042F004021A621A6A42F001021A62D6E756
:1028DC00FFF770FE0646474B1B6A13F0020F08D039
:1028EC00FFF768FE801B41F288339842F3D903202E
:1028FC0077E0E5B9E369002B72D03E4A526802F0EA
:10290C000C02082A56D0022B17D03B4B00221A6619
:10291C00FFF750FE0446374B1B6813F0007F47D07F
:10292C00FFF748FE001B0228F5D9032059E0314A75
:10293C00D36923F08053D361DCE72F4B00221A6656
:10294C00FFF738FE05462B4B1B6813F0007F06D0B3
:10295C00FFF730FE401B0228F5D9032041E0236A23
:10296C00B3F5803F1AD023494B6823F47413226AC1
:10297C00606A024313434B601F4B01221A66FFF738
:10298C0019FE04461B4B1B6813F0007F0ED1FFF79A
:10299C0011FE001B0228F5D9032022E0154A5368CA
:1029AC0023F40033A1680B435360DCE7002018E0EC
:1029BC00002016E0012B16D00E4B5B6803F480311F
:1029CC00226A914211D103F47013626A93420ED1C0
:1029DC00002006E001207047012002E0012000E009
:1029EC00002002B070BD0120FBE70120F9E70120B7
:1029FC00F7E700BF001002400000424286B0164BC1
:102A0C000FCB0DF1180C0CE90F0040F20123ADF8BF
:102A1C000430124B5B6803F00C02082A02D01048F9
:102A2C0006B07047C3F38342624412F8100C13F4DF
:102A3C00803F0CD0094B5B68C3F34043634413F8ED
:102A4C00143C074A02FB00F0B0FBF3F0E8E7054B3F
:102A5C0003FB00F0E4E700BF105600080010024032
:102A6C0000127A0000093D00002800F0A08070B52B
:102A7C000D460446524B1B6803F007038B420BD2E6
:102A8C004F4A136823F007030B431360136803F0DA
:102A9C0007038B4240F08D80236813F0020F17D090
:102AAC0013F0040F04D0474A536843F4E0635360B7
:102ABC00236813F0080F04D0424A536843F4605360
:102ACC005360404A536823F0F003A1680B435360F2
:102ADC00236813F0010F31D06368012B20D0022B37
:102AEC0025D0384A126812F0020F64D035494A6872
:102AFC0022F0030213434B60FFF75CFD0646314B9B
:102B0C005B6803F00C036268B3EB820F16D0FFF71F
:102B1C0051FD801B41F288339842F0D9032045E0E7
:102B2C00284A126812F4003FE0D101203EE0254A09
:102B3C00126812F0007FD9D1012037E0204B1B68BE
:102B4C0003F00703AB420AD91D4A136823F00703AD
:102B5C002B431360136803F00703AB422DD123689A
:102B6C0013F0040F06D0174A536823F4E063E168AE
:102B7C000B435360236813F0080F07D0114A5368B6
:102B8C0023F46053216943EAC1035360FFF736FF16
:102B9C000C4B5B68C3F303130B4AD35CD8400B4B51
:102BAC0018600B4B1868FFF7C1FC002070BD0120AA
:102BBC0070470120FAE70120F8E70120F6E700BF93
:102BCC00002002400010024024560008680000203B
:102BDC0064000020014B1868704700BF680000209B
:102BEC0008B5FFF7F7FF044B5B68C3F30223034AF6
:102BFC00D35CD84008BD00BF00100240345600081A
:102C0C0008B5FFF7E7FF044B5B68C3F3C223034A25
:102C1C00D35CD84008BD00BF0010024034560008F9
:102C2C0070B582B00446036813F0010F36D03F4BE9
:102C3C00DB6913F0805F49D13C4BDA6942F080527A
:102C4C00DA61DB6903F080530193019B0125384B5A
:102C5C001B6813F4807F3BD0344B1B6A13F4407316
:102C6C0013D0626802F440729A420ED02F4A136A53
:102C7C0023F440702F490126C1F840640026C1F8A6
:102C8C004064106213F0010F36D1284A136A23F402
:102C9C00407361680B431362002D3ED1236813F01F
:102CAC00020F06D0214A536823F44043A1680B431A
:102CBC005360236813F0100F34D01C4A536823F46C
:102CCC008003E1680B43536000202CE00025BEE735
:102CDC00174A136843F480731360FFF76BFC0646C6
:102CEC00134B1B6813F4807FB6D1FFF763FC801B7A
:102CFC006428F5D9032016E0FFF75CFC06460B4B65
:102D0C001B6A13F0020FC0D1FFF754FC801B41F279
:102D1C0088339842F3D9032005E0D36923F080531C
:102D2C00D361BBE7002002B070BD00BF00100240B1
:102D3C00007000400000424270B582B00024A446EE
:102D4C00A6E0804DAA4210D007D97F4DAA420CD0E4
:102D5C0005F58035AA4208D013E0A5F58015AA42E6
:102D6C0003D005F57025AA4207D18A68002A58D0ED
:102D7C00012A51D04361082403E0A5F58015AA422D
:102D8C00F3D0BEF1FF0F4ED80646BEF1FF0F4CD864
:102D9C004FEA8C0233680F25954023EA050304FAA9
:102DAC0002F2134333604B6813F0805F6ED0674BB5
:102DBC009A6942F001029A619B6903F00103019345
:102DCC00019B4FEA9C02951C614B53F825600CF05B
:102DDC0003039D000F23AB4026EA03065D4B98428C
:102DEC0029D003F58063984200F08E8003F5806350
:102DFC00984200F08B8003F58063984219D004232D
:102E0C001AE0CC68BDE7CC680434BAE7CC68083467
:102E1C00B7E7CC680C34B4E703610824B1E70024AD
:102E2C00AFE70424ADE7061DAFE7ACF10802920052
:102E3C00B0E7032300E00023AB4033430232444DA0
:102E4C0045F822304B6813F4803F61D0424A136836
:102E5C0043EA0E0313604B6813F4003F5ED03E4A06
:102E6C00536843EA0E0353604B6813F4801F5BD026
:102E7C00394A936843EA0E0393604B6813F4001FBE
:102E8C0058D0354AD36843EA0E03D3600CF1010CD9
:102E9C000A6832FA0CF353D0012303FA0CF302EA5A
:102EAC00030E33EA0202F1D14A68122A3FF649AF07
:102EBC00122A3FF666AF01A555F822F0772D0008CF
:102ECC000F2E0008192E00082B2E00088F2D00083D
:102EDC008F2D00088F2D00088F2D00088F2D0008D6
:102EEC008F2D00088F2D00088F2D00088F2D0008C6
:102EFC008F2D00088F2D00088F2D00088F2D0008B6
:102F0C00132E00081F2E0008012395E7022393E7D8
:102F1C00114A136823EA0E0313609CE70E4A5368A8
:102F2C0023EA0E0353609FE70B4A936823EA0E03D0
:102F3C009360A2E7084AD36823EA0E03D360A5E79F
:102F4C0002B070BD000022100000311000100240D1
:102F5C000000014000080140000401400AB1016179
:102F6C00704709040161704708B590F82130022BB5
:102F7C0003D004238363012008BD0268136823F087
:102F8C000E0313600268136823F0010313600368D7
:102F9C00194A934214D0143293421FD014329342E4
:102FAC001ED0143293421ED0143293421ED01432CF
:102FBC00934202D04FF0807203E04FF4801200E095
:102FCC0001220E4B5A60012380F82130002380F837
:102FDC002030436B6BB198470020CDE71022F0E70F
:102FEC004FF48072EDE74FF48052EAE74FF48032F1
:102FFC00E7E70020C0E700BF0800024000000240E5
:10300C00074AD36823F4E0631B041B0C000200F492
:10301C00E060034343F0BF6343F40033D360704775
:10302C0000ED00E000B5194BDB68C3F30223C3F1DC
:10303C00070CBCF1040F28BF4FF0040C03F1040E75
:10304C00BEF1060F18D9033B4FF0FF3E0EFA0CFCF5
:10305C0021EA0C0199400EFA03F322EA0303194307
:10306C0000280BDB0901C9B200F1604000F561409A
:10307C0080F800135DF804FB0023E5E700F00F0077
:10308C000901C9B2024B1954F4E700BF00ED00E08E
:10309C0014ED00E0002807DB00F01F0240090123BB
:1030AC009340024A42F82030704700BF00E100E034
:1030BC000138B0F1807F0BD24FF0E0235861054A04
:1030CC00F02182F823100020986107221A617047C2
:1030DC000120704700ED00E010B4036A046A24F08C
:1030EC0001040462846924F0F00C4CEA021223F00F
:1030FC000A030B438261036210BC704710B4046A6C
:10310C0024F0100404628469036A24F4704C4CEAC1
:10311C00023223F0A00343EA01138261036210BC64
:10312C007047836823F070030B4343F007038360FD
:10313C0070477047704770477047704710B504462A
:10314C0003681A6912F0020F11D0DA6812F0020F3C
:10315C000DD06FF002021A610123037703689B699B
:10316C0013F0030F70D0FFF7E6FF002323772368DB
:10317C001A6912F0040F12D0DA6812F0040F0ED094
:10318C006FF004021A610223237723689B6913F4FE
:10319C00407F5FD02046FFF7CEFF002323772368C4
:1031AC001A6912F0080F12D0DA6812F0080F0ED05C
:1031BC006FF008021A61042323772368DB6913F08C
:1031CC00030F4ED02046FFF7B6FF0023237723686A
:1031DC001A6912F0100F12D0DA6812F0100F0ED01C
:1031EC006FF010021A61082323772368DB6913F44C
:1031FC00407F3DD02046FFF79EFF002323772368B6
:10320C001A6912F0010F03D0DA6812F0010F36D1EF
:10321C0023681A6912F0800F03D0DA6812F0800F5D
:10322C0034D123681A6912F0400F03D0DA6812F017
:10323C00400F32D123681A6912F0200F03D0DA68DC
:10324C0012F0200F30D110BDFFF774FF2046FFF7AE
:10325C0073FF8AE72046FFF76DFF2046FFF76CFFF0
:10326C009BE72046FFF766FF2046FFF765FFACE7BC
:10327C002046FFF75FFF2046FFF75EFFBDE76FF0CC
:10328C0001021A612046FFF754FFC1E76FF080027C
:10329C001A61204600F027F9C3E76FF040021A616B
:1032AC002046FFF74AFFC5E76FF020021A6120465F
:1032BC0000F018F9C7E7000003681B4A90420AD0D7
:1032CC00B0F1804F07D0A2F59432904203D002F5B2
:1032DC008062904203D123F070034A681343124A70
:1032EC0090420AD0B0F1804F07D0A2F594329042B0
:1032FC0003D002F58062904203D123F44073CA6874
:10330C00134323F080034A69134303608B68C36241
:10331C000B688362044B984202D0012343617047CF
:10332C000B690363F9E700BF002C014040B310B5F3
:10333C00044690F83D30F3B1022384F83D30214629
:10334C0051F8040BFFF7B8FF012384F8463084F8DA
:10335C003E3084F83F3084F8403084F8413084F8B3
:10336C00423084F8433084F8443084F8453084F893
:10337C003D30002010BD80F83C30FCF7A9FFDBE7A6
:10338C000120704710B4846824F47F4C42EA032275
:10339C000A4342EA0C02826010BC704790F83C3041
:1033AC00012B66D010B50446012380F83C30022373
:1033BC0080F83D300268936823F47F4323F0770351
:1033CC0093600B68602B40D022D8402B47D00BD990
:1033DC00502B0ED1CA6849680068FFF77DFE50215A
:1033EC002068FFF79EFE04E0202B0CD008D9302B70
:1033FC0009D0012384F83D30002084F83C0010BD36
:10340C000BB1102BF5D119462068FFF78AFEF0E7B7
:10341C00702B0ED0B3F5005FEBD1CB684A6889688E
:10342C000068FFF7AFFF2268936843F48043936012
:10343C00DFE7CB684A6889680068FFF7A3FF22685A
:10344C00936843F077039360D3E7CA6849680068D0
:10345C00FFF754FE60212068FFF763FEC9E7CA68D6
:10346C0049680068FFF738FE40212068FFF759FED5
:10347C00BFE702207047000090F83C30012B2CD0A5
:10348C0010B4012380F83C30022380F83D300368EF
:10349C005A689C6822F0700C0A6842EA0C025A6066
:1034AC0003680F4A93420AD0B3F1804F07D0A2F5BC
:1034BC009432934203D002F58062934204D124F0FB
:1034CC0080044A6814439C60012380F83D3000233B
:1034DC0080F83C30184610BC70470220704700BF83
:1034EC00002C0140704770470268D36823F4907336
:1034FC00D3600268536923F001035361202380F8E1
:10350C003A30704790F83930DBB2212B01D00220D1
:10351C0070478368B3F5805F17D0036A5A1C026248
:10352C001A7803685A60C38C9BB2013B9BB2C3846C
:10353C004BB90268D36823F08003D3600268D36868
:10354C0043F04003D360002070470369002BE4D1A3
:10355C00036A1B880268C3F308035360036A0233CF
:10356C000362E0E710B504460268136923F4405384
:10357C00C1680B43136183680269134342691A43A0
:10358C000168CB6823F4B05323F00C031343CB60D6
:10359C000268536923F4407381690B4353610268D9
:1035AC00134B9A4220D0FFF71BFB024602EB820220
:1035BC0002EB820263689B00B2FBF3F20D48A0FBA6
:1035CC0002314909642303FB11231B013233A0FB95
:1035DC0003235B0903F0F00202EB011203F00F036B
:1035EC00216813448B6010BDFFF70AFB0246DDE730
:1035FC00003801401F85EB5158B310B5044690F8C4
:10360C0039300BB3242384F839302268D36823F47F
:10361C000053D3602046FFF7A5FF2268136923F4FB
:10362C00904313612268536923F02A035361226883
:10363C00D36843F40053D3600020E063202384F864
:10364C00393084F83A3010BD80F83830FCF77AFE07
:10365C00D8E701207047704708B50168CA6822F0A6
:10366C004002CA60202280F83920FFF7F4FF0020C6
:10367C0008BD704708B590F83A30DBB2222B41D127
:10368C008368B3F5805F14D0826AB3F5805F02D093
:10369C00E3B90369D3B903685B681370836A0133B8
:1036AC008362C38D9BB2013B9BB2C385A3B1002047
:1036BC0008BD0269002AE7D1826A03685B68C3F31C
:1036CC0008031380836A02338362EAE703685B684A
:1036DC0003F07F031370E1E70268D36823F0200343
:1036EC00D3600268D36823F48073D3600268536993
:1036FC0023F001035361202380F83A30FFF7B9FF20
:10370C000020D5E70220D3E77047000010B504462F
:10371C0002681368D168526913F00F0005D113F0D9
:10372C00200F02D011F0200F13D128B112F001029A
:10373C0013D111F4907F10D113F0800F02D011F03F
:10374C00800F6CD113F0400F02D011F0400F6AD1F2
:10375C0010BD2046FFF78EFFFAE713F0010F06D0DD
:10376C0011F4807F03D0E06B40F00100E06313F0B4
:10377C00040F04D01AB1E06B40F00200E06313F0C8
:10378C00020F04D01AB1E06B40F00400E06313F0B8
:10379C00080F07D011F0200F00D11AB1E26B42F0E4
:1037AC000802E263E26B002AD2D013F0200F02D0A1
:1037BC0011F0200F21D123685B6903F04003E26B09
:1037CC0012F0080F00D123B32046FFF78DFE2368BB
:1037DC005A6912F0400F18D05A6922F040025A610F
:1037EC00636B73B1124A5A63606BFFF7BDFB002821
:1037FC00AED0606B436B9847AAE72046FFF73AFFC1
:10380C00D9E72046FFF780FFA2E72046FFF77CFFB1
:10381C009EE72046FFF778FF0023E36398E72046F6
:10382C00FFF770FE94E72046FFF716FF90E700BF06
:10383C004138000808B5406A0023C385C384FFF7EC
:10384C0063FF08BD7047000008B590B10346D0F87F
:10385C00B40210B10020C3F8B40209B1C3F8B0121D
:10386C00012183F89C121A701846FCF757FF0020B0
:10387C0008BD054800F0A2FE044800F09FFE0A2097
:10388C0000F0B4FE0220F3E73C5600084456000852
:10389C0008B519B1C0F8B412002008BD054800F0F5
:1038AC008DFE054800F08AFE0A2000F09FFE0220E3
:1038BC00F3E700BF3C5600085C56000808B5FCF75F
:1038CC006FFF002008BD08B5D0F8B4322BB11B68CF
:1038DC00984700B908BD0220FCE70220FAE708B5BA
:1038EC00D0F8B4325B689847002008BD38B5044660
:1038FC0000F52A75284600F035F90123C4F89432F6
:10390C00B4F8AE32C4F8983294F8A81201F01F0340
:10391C00012B0ED0022B11D02BB101F080012046CF
:10392C00FCF759FF03E02946204600F0C9FA0020B5
:10393C0038BD2946204600F0F7FAF8E7294620461C
:10394C0000F022FBF3E738B504460D4691BB134655
:10395C00D0F89422032A03D0052A24D0084633E059
:10396C00D0F86011D0F8642191420DD9891AC0F8B1
:10397C0060118A4206D98AB21946204600F036FCFC
:10398C00284621E092B2F7E7D0F8B4321B691BB19C
:10399C0090F89C22032A04D0204600F02FFC2846E5
:1039AC0012E09847F8E70021C0F89412FCF713FFD7
:1039BC00284609E0D0F8B4329B6933B190F89C22C8
:1039CC00032A04D19847002038BD0220FCE70220CE
:1039DC00FAE738B504460D46002953D11346D0F802
:1039EC009422022A0CD0042A00D01AB98021204635
:1039FC00FCF7F1FE94F8A032012B3ED0284638BDDE
:103A0C00016A426A91421BD8C169B1FBF2F302FB15
:103A1C0013132BB98A4203D8D0F8983299421CD38D
:103A2C00D4F8B432DB681BB194F89C22032A21D061
:103A3C0080212046FCF7CFFE204600F0EAFBD9E7B8
:103A4C008A1A026292B2194600F0B9FB00231A4698
:103A5C0019462046FCF7F6FECCE70022114600F092
:103A6C00AEFB0021C4F898120B460A462046FCF720
:103A7C00E9FEBFE720469847DAE7002384F8A03236
:103A8C002846BCE7D0F8B4325B6933B190F89C227D
:103A9C00032A04D198470020B1E70220AFE70220A7
:103AAC00ADE770B50446402300221146FCF780FEBA
:103ABC000125C4F858514026C4F8646133460022ED
:103ACC0080212046FCF774FEA561666284F89C5246
:103ADC000023C4F894326360C4F8A432D4F8B8322A
:103AEC002BB1D4F8B4325B680021204698470020F3
:103AFC0070BD01740020704790F89C3280F89D32A4
:103B0C00042380F89C320020704790F89C32042BE0
:103B1C0001D00020704790F89D3280F89C32F8E775
:103B2C0008B590F89C32032B01D0002008BDD0F8CA
:103B3C00B432DB69002BF8D09847F6E70346002037
:103B4C0002E00130C0B201331A78002AF9D1704773
:103B5C0008B54B88012B00D008BDC0F8A43200F08A
:103B6C004DFBF9E70B7803704B7843708B78CA7870
:103B7C0003EB022343800B794A7903EB0223838006
:103B8C008B79CA7903EB0223C380704710B50446C6
:103B9C008021FCF720FE00212046FCF71CFE10BD06
:103BAC0030B583B005460C460023ADF806304A8884
:103BBC00130A013B062B00F2A480DFE803F0041883
:103BCC002CA2A2869300D0F8B0321B680DF106012E
:103BDC00007C9847BDF806201AB1E388002B40F012
:103BEC009480E388002B00F09A8003B030BD037CF6
:103BFC0043B9D0F8B4329B6A0DF106009847022302
:103C0C004370E7E7D0F8B432DB6A0DF10600984751
:103C1C0002234370DEE7D2B2052A52D8DFE802F065
:103C2C0003101D2A3744D0F8B0325B6823B10DF174
:103C3C000601007C9847CDE72146FFF7A7FFD4E7A4
:103C4C00D0F8B0329B6823B10DF10601007C984787
:103C5C00C0E72146FFF79AFFC7E7D0F8B032DB6820
:103C6C0023B10DF10601007C9847B3E72146FFF71D
:103C7C008DFFBAE7D0F8B0321B6923B10DF1060104
:103C8C00007C9847A6E72146FFF780FFADE7D0F808
:103C9C00B0325B6923B10DF10601007C984799E7BE
:103CAC002146FFF773FFA0E7D0F8B0329B6923B130
:103CBC000DF10601007C98478CE72146FFF766FF63
:103CCC0093E72146FFF762FF8FE7037C33B9D0F807
:103CDC00B4325B6B0DF1060098477BE72146FFF78A
:103CEC0055FF82E7037C43B9D0F8B4321B6B0DF15E
:103CFC0006009847072343706CE72146FFF746FF01
:103D0C0073E72146FFF742FF6FE79A4228BF1A4636
:103D1C00ADF806200146284600F044FA61E7284633
:103D2C0000F06CFA61E738B504468B88F3B9CB88A0
:103D3C00E3B94B887F2B19D803F07F0590F89C32A0
:103D4C00032B0CD080F89E522946FCF76BFD2046C5
:103D5C0000F054FA35B1022384F89C3209E0FFF7E5
:103D6C0015FF06E0012384F89C3202E02046FFF7A1
:103D7C000DFF38BD38B504460D468978284B1970AF
:103D8C0001290ED890F89C32022B0ED0032B21D097
:103D9C002946FFF7FBFE224B19782046FFF79FFDC3
:103DAC0002E02946FFF7F2FE38BD81B141600323E2
:103DBC0080F89C32FFF787FD022803D0204600F0E4
:103DCC001DFAF1E729462046FFF7E0FEECE700F08C
:103DDC0015FAE9E789B1436899421DD0D9B2FFF7CA
:103DEC007EFD0F4B197861602046FFF76CFD0228B1
:103DFC000DD0204600F002FAD6E7022380F89C3260
:103E0C004160FFF76CFD204600F0F8F9CCE729463D
:103E1C002046FFF7BBFEC7E700F0F0F9C4E700BF90
:103E2C002814002008B5CB88012B0AD190F89C32BD
:103E3C00022B09D9032B09D10122011D00F0B2F983
:103E4C0001E0FFF7A3FE08BD5BB213B9FFF79EFEBE
:103E5C00F9E70146002341F8083F012200F0A2F9DE
:103E6C00F1E708B590F89C32013B022B12D8CB88B5
:103E7C00022B0CD10123C360D0F8A4320BB1032365
:103E8C00C360022200F10C0100F08CF908BDFFF7B1
:103E9C007DFEFBE7FFF77AFEF8E708B590F89C3259
:103EAC00013B022B09D84B88012B00D008BD002305
:103EBC00C0F8A43200F0A2F9F8E7FFF767FEF5E7C7
:103ECC0008B50B7803F06003202B05D0402B03D0F2
:103EDC0043B1FFF75BFE03E0D0F8B4329B68984720
:103EEC00002008BD4B78092B1BD8DFE803F0111715
:103EFC001A141A08051A0E0BFFF752FEF0E7FFF71B
:103F0C0012FFEDE7FFF736FFEAE7FFF78BFFE7E776
:103F1C00FFF7A7FFE4E7FFF71BFEE1E7FFF7BDFFA5
:103F2C00DEE7FFF733FEDBE738B505460C460B78CA
:103F3C0003F06003202B06D0402B04D01BB1FFF7FD
:103F4C0025FE002038BD95F89C32013B022B16D87B
:103F5C002379012B0ED8D5F8B4329B68214628461C
:103F6C009847E388002BECD10028EAD1284600F0D2
:103F7C0045F9E6E721462846FFF708FEE1E721462A
:103F8C002846FFF703FEDCE770B505468B880C78F6
:103F9C0004F06004202C07D0DAB2402C04D05CB1C1
:103FAC00FFF7F4FD002405E0D5F8B4329B682846F1
:103FBC0098470024204670BD202C09D04E78012E45
:103FCC0033D0032E0AD0002E55D0FFF7DFFDF1E7DA
:103FDC00D0F8B4329B6898470446EBE790F89C32D3
:103FEC00022B04D0032B11D0FFF7D0FDE2E70AB16E
:103FFC00802A03D12846FFF7C9FDDBE71146FCF701
:10400C00EAFB80212846FCF7E6FBD3E74B8823B973
:10401C001AB1802A01D0CB881BB1284600F0EEF8EB
:10402C00C8E71146FCF7D7FBF7E790F89C32022B58
:10403C0004D0032B11D0FFF7A9FDBBE70AB1802AEE
:10404C0003D12846FFF7A2FDB4E71146FCF7C3FBEA
:10405C0080212846FCF7BFFBACE74B88002BA9D18D
:10406C0012F07F0F03D1284600F0C8F8A2E71146E2
:10407C00FCF7B9FBF7E790F89C02022806D003285E
:10408C0029D02846FFF782FD344693E70AB1802AEF
:10409C0013D113F0800F15D102F07F0202EB8202D4
:1040AC00910001F5A8712944043100230B60022210
:1040BC00284600F077F834467CE72846FFF766FD83
:1040CC00344677E702F07F0202EB82029100103156
:1040DC0029440431E9E75BB2002B1FDB02F00F002F
:1040EC0000EB800005EB8000D0F8580120B3002BCA
:1040FC0027DB02F07F0303EB83039C0004F5A87419
:10410C002C4404340AB1802A24D1002323600222D7
:10411C002146284600F046F834464BE702F00F00E3
:10412C0000EB800005EB800080690028DFD1284679
:10413C00FFF72CFD34463DE72846FFF727FD3446B4
:10414C0038E702F07F0303EB83039C0010342C440C
:10415C000434D7E711462846FCF74DFB10B1012378
:10416C002360D4E700232360D1E7D0B170B50D46AE
:10417C0016460446FFF7E2FC431C5B009BB23380FF
:10418C002B7003236B70022307E001345A1CD2B24C
:10419C00E8540233DBB20021A95420780028F4D172
:1041AC0070BD704708B513460222C0F89422C36153
:1041BC0003620A460021FCF73DFB002008BD08B550
:1041CC0013460A460021FCF735FB002008BD08B554
:1041DC0013460322C0F89422C0F85C31C0F8603159
:1041EC000A460021FCF72EFB002008BD08B513463B
:1041FC000A460021FCF726FB002008BD08B5042365
:10420C00C0F8943200231A461946FCF713FB002021
:10421C0008BD08B50523C0F8943200231A46194688
:10422C00FCF710FB002008BD10B5D0F8B842D0F850
:10423C00BC325BB194F80002FF2807D09B6894F85D
:10424C00012221469847FF2384F80032002010BD3C
:10425C004323038000487047A400002043230380BD
:10426C0000487047E8000020432303800048704753
:10427C00380100200A230380004870472C010020DD
:10428C0038B50446D0F8B852FCF7E4FAC5F80C027D
:10429C00D4F8B8324BB1D4F8BC32DB6805F50371F5
:1042AC00D5F804029847002038BD0220FCE710B571
:1042BC00D0F8B822D0F8C042F2B101EB810300EB88
:1042CC008303DB694BB101EB810C04EBCC04A46BD5
:1042DC00B3FBF4FC04FB1C3323B10023C2F81432EF
:1042EC00002010BD01EB810300EB83030022DA6197
:1042FC001346FCF79FFAF3E70220F2E7F0B583B020
:10430C0006460C46D0F8B87200238DF80730ADF88D
:10431C0004300B7813F0600527D0202D53D1CA88B8
:10432C00DAB113F0800F0CD0D0F8BC329B68394650
:10433C0060789847E28839463046FFF733FF00250E
:10434C0044E04B7887F800328B7987F80132CA88C1
:10435C003946FFF73CFF002538E0D0F8BC329B68AB
:10436C00002248789847002530E04F780A2F14D067
:10437C000B2F20D01FB1FFF709FC022526E090F887
:10438C009C32032B03D0FFF701FC02251EE0022216
:10439C0001A9FFF707FF3D4618E090F89C32032B6C
:1043AC0003D0FFF7F3FB022510E001220DF107010A
:1043BC00FFF7F8FE0AE090F89C32032B06D0FFF7CB
:1043CC00E5FB022502E0FFF7E1FB0225284603B0DE
:1043DC00F0BD38B504468121FCF7F5F90025E562FE
:1043EC0001212046FCF7EFF9C4F86C5182212046DC
:1043FC00FCF7E9F92564D4F8B8324BB1D4F8BC32E7
:10440C005B689847D4F8B802FCF72EFAC4F8B85297
:10441C00002038BD70B50446037CABBB4FF4007371
:10442C0002228121FCF7C4F90125E5624FF40073E7
:10443C00022229462046FCF7BBF9C4F86C5108232C
:10444C00032282212046FCF7B3F9012323644FF4A5
:10445C000770FCF705FA0546C4F8B80268B3D4F83F
:10446C00BC321B6898470023C5F81432C5F81832C3
:10447C00267CCEB94FF40073D5F8042201212046D6
:10448C00FCF7E0F9304670BD402302228121FCF795
:10449C008FF90125E5624023022229462046FCF7CC
:1044AC0087F9C4F86C51CAE74023D5F804220121DE
:1044BC002046FCF7C7F90026E4E70126E2E719B12C
:1044CC00C0F8BC120020704702207047D0F8B832F8
:1044DC00C3F80812C3F8102200207047D0F8B83285
:1044EC00C3F8041200207047D0F8B82292B108B576
:1044FC00037C43B94FF40073D2F804220121FCF77A
:10450C00A1F9002008BD4023D2F804220121FCF7B8
:10451C0099F9F6E702207047002103E00B4B5B583A
:10452C00435004310A480B4B42189A42F6D30A4ABC
:10453C0002E0002342F8043B084B9A42F9D3FFF700
:10454C0081F900F00FF8FBF740FE70471457000894
:10455C0000000020E0010020E00100203C140020BD
:10456C00FEE7000070B500260C4D0D4C641BA4102A
:10457C00A64209D101F016F800260A4D0A4C641B1C
:10458C00A410A64205D170BD55F8043B98470136DE
:10459C00EEE755F8043B98470136F2E70C57000854
:1045AC000C5700080C57000810570008034602442B
:1045BC00934200D1704703F8011BF9E70FB40A4B83
:1045CC0013B51C6824B1A36913B9204600F07AF81E
:1045DC0005AB2046049AA168019300F095F902B04E
:1045EC00BDE8104004B070477C01002038B5084B82
:1045FC0005461C6824B1A36913B9204600F062F883
:10460C0029462046A268BDE8384000F043BC00BFF4
:10461C007C010020002310B50446C0E90033C0E93A
:10462C000433836081814366C28183611946082209
:10463C005C30FFF7BBFF054B24626362044BA36243
:10464C00044BE362044B236310BD00BF514F0008C1
:10465C00734F0008AB4F0008CF4F0008014900F022
:10466C00AFB800BFA1520008682270B54D1E55436B
:10467C000E4605F1740100F0C5F8044640B1002166
:10468C00C0E900160C30A06005F16802FFF78EFF40
:10469C00204670BD014800F0B3B800BF2A140020BA
:1046AC00014800F0AEB800BF2A140020014800F009
:1046BC00A7B800BF2B140020014800F0A2B800BF1F
:1046CC002B14002010B50446FFF7F0FFA3691BB1B3
:1046DC00BDE81040FFF7F0BFC4E912332365134B5C
:1046EC00134A1B68A262A34208BF0123204608BFDD
:1046FC00A36100F01FF86060204600F01BF8A0607A
:10470C00204600F017F800220421E0606068FFF7F3
:10471C0081FF01220921A068FFF77CFF02221221F0
:10472C00E068FFF777FF0123A361D1E77456000817
:10473C0069460008F8B50746FFF7ACFF1E4B1E682C
:10474C00B36913B93046FFF7BDFF4836D6E90134DB
:10475C00013B03D533680BB33668F7E7B4F90C505B
:10476C00D5B9164B04F15800E360656600F047F8C4
:10477C00FFF796FF08222946C4E90155C4E9045500
:10478C002560A56104F15C00FFF710FFC4E90D552D
:10479C00C4E912552046F8BD6834D9E704213846DF
:1047AC00FFF762FF044630600028D5D1FFF778FF91
:1047BC000C233B60EEE700BF745600080100FFFFBE
:1047CC002DE9F84306468846002700F14804D4E951
:1047DC000195B9F1010905D52468002CF7D13846AB
:1047EC00BDE8F883AB89012B07D9B5F90E3001333D
:1047FC0003D029463046C04707436835E9E7704780
:10480C0070477047F8B5CD1C25F0030508350C2D05
:10481C0038BF0C25002D064601DBA94203D90C2319
:10482C0033600020F8BD00F0F7FD21490A681446FA
:10483C009CB9204F3B6823B92146304600F072FBEF
:10484C0038602946304600F06DFB431C23D10C2305
:10485C003046336000F0E6FDE3E723685B1B17D4BA
:10486C000B2B03D923601C44256004E06368A2422F
:10487C000CBF0B605360304600F0D4FD04F10B000C
:10488C00231D20F00700C21ACCD01B1AA350C9E775
:10489C0022466468CCE7C41C24F00304A042E3D095
:1048AC00211A304600F03EFB0130DDD1CFE700BFCE
:1048BC002C14002030140020936810B4013B002B02
:1048CC00936007DA9469A34201DB0A2902D110BC78
:1048DC0000F07CBB1368581C10601970084610BCA3
:1048EC007047F8B506460F461446D518AC4201D1B0
:1048FC00002007E03A46304614F8011BFFF7DCFFB6
:10490C00431CF3D1F8BD00002DE9F04F0D461446C1
:10491C00984606469DB018B183690BB9FFF7D2FED5
:10492C00894B9D421BD175686B6ED90705D4AB8939
:10493C009A0502D4A86DFFF763FFAB891B0701D55D
:10494C002B69EBB92946304600F0A4FBC0B16B6E65
:10495C00DC070ED54FF0FF301DB0BDE8F08F7B4B60
:10496C009D4201D1B568DFE7794B9D4208BFF568E0
:10497C00DAE7AB899805EDD4A86DFFF742FFE9E7BC
:10498C000023099320238DF8293030234FF001099F
:10499C00CDF80C80DFF8BC818DF82A3023469A467E
:1049AC0013F8012B0AB1252AF9D1BAEB040B0BD061
:1049BC005B46224629463046FFF793FF013000F054
:1049CC00AA80099A5A4409929AF80030002B00F0F8
:1049DC00A28000234FF0FF32CDE905230AF1010A32
:1049EC00049307938DF853301A935446052214F808
:1049FC00011B584800F002FD049AD8B9D10644BFF7
:104A0C0020238DF85330130744BF2B238DF85330DC
:104A1C009AF800302A2B15D0544600204FF00A0C7F
:104A2C00079A214611F8013B303B092B4ED9B0B106
:104A3C00079214E0A0EB080309FA03F31343A24610
:104A4C000493D2E7039B191D1B680391002BBBBF7A
:104A5C005B4242F0020207930793B8BF049223789B
:104A6C002E2B0CD163782A2B35D1039B02341A1DC3
:104A7C001B680392002BB8BF4FF0FF330593DFF890
:104A8C00D8A003225046217800F0B8FC40B1402356
:104A9C00A0EB0A0003FA00F0049B013403430493D7
:104AAC0014F8011B06222D488DF8281000F0A6FCE6
:104ABC0000283FD02A4B1BBB039B073323F0070373
:104ACC0008330393099B3B44099367E70C46012089
:104ADC000CFB0232A5E700234FF00A0C19460134F7
:104AEC000593204610F8012B303A092A03D9002BE4
:104AFC00C5D00591C3E7044601230CFB0121F0E767
:104B0C0003AB00932A463046164B04A9AFF3008042
:104B1C000746781CD6D16B6ED90705D4AB899A059C
:104B2C0002D4A86DFFF76DFEAB895B063FF512AFA3
:104B3C00099811E703AB00932A463046094B04A9A8
:104B4C0000F082F8E4E700BF98560008B856000859
:104B5C0078560008D8560008DE560008E2560008C1
:104B6C0000000000EF4800082DE9F0471646994672
:104B7C008A680B6907469342B8BF1346336091F8B5
:104B8C0043200C46DDF820800AB1013333602368E2
:104B9C00990642BF336802333360256815F0060569
:104BAC0006D104F1190AE36832689B1AAB4228DC7F
:104BBC0094F84320131E226818BF012392062DD4AB
:104BCC004946384604F14302C047013020D02368DF
:104BDC00E56803F00603042B18BF002532684FF07C
:104BEC000006A36808BFAD1A226908BF25EAE5755F
:104BFC009342C4BF9B1AED181A34B5421AD1002047
:104C0C0008E00123524649463846C047013003D1DB
:104C1C004FF0FF30BDE8F0870135C4E73020E118D4
:104C2C0081F843005A1C94F845102244023382F850
:104C3C004310C5E70123224649463846C047013098
:104C4C00E6D00136D9E700002DE9FF470F7E9146EB
:104C5C00782F80460C469A460C9D01F1430207D8EA
:104C6C00622F0AD8002F00F0D980582F00F0A480B2
:104C7C0004F1420584F842703AE0A7F16303152B66
:104C8C00F6D801A151F823F0ED4C0008014D0008B5
:104C9C007D4C00087D4C00087D4C00087D4C0008C4
:104CAC00014D00087D4C00087D4C00087D4C00082F
:104CBC007D4C00080F4E0008314D0008F14D0008E6
:104CCC007D4C00087D4C0008314E00087D4C0008DE
:104CDC00314D00087D4C00087D4C0008F94D000852
:104CEC002B681A1D1B682A6004F1420584F84230B7
:104CFC000123A4E020682968060601F104030AD503
:104D0C000E682B60002E03DA2D23764284F8433094
:104D1C000A235E4819E00E6810F0400F2B6018BF94
:104D2C0036B2EFE72B682068191D2960010601D502
:104D3C001E6802E04606FBD51E886F2F0CBF0823A9
:104D4C000A235248002184F843106568002DA8BF3F
:104D5C002168A560A4BF21F0040121600EB9002DCB
:104D6C004DD01546B6FBF3F103FB1167C75D05F893
:104D7C00017D3746BB420E46F4D9082B0BD1236874
:104D8C00DE0708D5236961689942DEBF302305F838
:104D9C00013C05F1FF35521B22614B462146404632
:104DAC00CDF800A003AAFFF7DFFE01304CD14FF085
:104DBC00FF3004B0BDE8F087344881F845702968AD
:104DCC00236851F8046B29601D0614D5DF0744BF16
:104DDC0043F0200323601EB9236823F020032360D3
:104DEC001023AFE7236843F020032360782328487F
:104DFC0084F84530E3E7590648BFB6B2E6E71546F6
:104E0C00BBE72B682668181D6169286035061B688E
:104E1C0001D5196002E07006FBD5198000231546F8
:104E2C002361BAE72B6800211A1D2A601D6862688D
:104E3C00284600F0E3FA08B1401B60606368236108
:104E4C00002384F84330A8E72A46494640462369A4
:104E5C00D0470130ABD023689B0713D4E068039B89
:104E6C009842B8BF1846A4E701233246494640464B
:104E7C00D04701309BD00135E36803995B1AAB42F4
:104E8C00F2DCEBE7002504F11906F5E7E95600081A
:104E9C00FA56000870B50D461446064618B18369DB
:104EAC000BB9FFF70FFC1C4B9C4224D17468636E4A
:104EBC00D80705D4A389990502D4A06DFFF7A0FCEF
:104ECC00A368013B002BA36005DAA26993421CDBAB
:104EDC00EBB20A2B19D023685A1C22601D70EDB25C
:104EEC00636EDA0705D4A3899B0502D4A06DFFF786
:104EFC0088FC284670BD094B9C4201D1B468D6E7AA
:104F0C00074B9C4208BFF468D1E72946224630463D
:104F1C0000F05CF80546E3E798560008B856000820
:104F2C007856000838B50023054D044608462B601A
:104F3C0000F022FB431C02D12B6803B1236038BD67
:104F4C003414002010B50C46B1F90E1000F0B8FA6C
:104F5C000028ABBF636DA3891B1823F48053ACBF2F
:104F6C006365A38110BD2DE9F0411F468B89054671
:104F7C00DB050C46164605D502230022B1F90E10AE
:104F8C0000F0C4F9A389324623F48053A381284648
:104F9C003B46B4F90E10BDE8F04100F069B810B50D
:104FAC000C46B1F90E1000F0B1F9431CA38915BFE2
:104FBC00606523F4805343F48053A38118BFA3810D
:104FCC0010BDB1F90E1000F0D3B80000F8B50E46C4
:104FDC001446054618B183690BB9FFF773FB214BD7
:104FEC009C422BD16C68A369A360A3891A072FD5A7
:104FFC0023696BB323692068F6B2C01A636937461C
:10500C00834204DC2146284600F044F930BBA368F7
:10501C000130013BA36023685A1C22601E70636937
:10502C00834204D0A389DB0706D50A2E04D121467E
:10503C00284600F02FF988B93846F8BD0A4B9C4237
:10504C0001D1AC68CFE7094B9C4208BFEC68CAE7BA
:10505C002146284600F01EF80028CBD04FF0FF3731
:10506C00EAE700BF98560008B856000878560008C2
:10507C0038B50446084611460022054D2A601A46EA
:10508C0000F088FA431C02D12B6803B1236038BDB1
:10509C0034140020324B70B51D6806460C4625B101
:1050AC00AB6913B92846FFF70DFB2E4B9C420FD171
:1050BC006C68A389B4F90C2019072CD4DD0611D423
:1050CC000923336042F040034FF0FF30A3813EE0F0
:1050DC00254B9C4201D1AC68EBE7244B9C4208BFAA
:1050EC00EC68E6E7580712D5616B41B104F1440353
:1050FC00994202D0304600F09BF900236363A389E8
:10510C0023F02403A3810023636023692360A38914
:10511C0043F00803A38123694BB9A38903F42073DB
:10512C00B3F5007F03D02146304600F027F9A08963
:10513C00B4F90C2010F001030AD00023A3606369BA
:10514C005B42A361236943B910F08000BAD170BDF2
:10515C00810758BF6369A360F4E70020F7E700BF3D
:10516C007C01002098560008B856000878560008B4
:10517C0038B50023054D044608462B6000F0D4F9E1
:10518C00431C02D12B6803B1236038BD34140020BA
:10519C008A89F8B5054610070C4657D44B68002B86
:1051AC0004DC0B6C002B01DC0020F8BDE66A002E41
:1051BC00FAD0002312F480522F682B6032D0606D2D
:1051CC00A3895A0705D56368C01A636B0BB1236CAE
:1051DC00C01A00230246E66A2846216AB047431CDF
:1051EC00A38906D129681D292CD8294ACA40D6077B
:1051FC0028D5002262602269D904226004D5421CA1
:10520C0001D12B6803B96065616B2F600029CBD08D
:10521C0004F14403994202D0284600F009F9002019
:10522C006063C2E7216A01232846B047411CC7D1FD
:10523C002B68002BC4D01D2B01D0162B01D12F6055
:10524C00B2E7A38943F04003A381AEE70F69002FB7
:10525C00AAD0930718BF00230E6808BF4B69F61B32
:10526C000F608B60002E9FDD33463A462846216A3C
:10527C00D4F828C0E047002806DCA3894FF0FF30A3
:10528C0043F04003A38190E70744361AEAE700BFD6
:10529C000100402038B50B6905460C4613B90025B2
:1052AC00284638BD18B183690BB9FFF70BFA144BBC
:1052BC009C421BD16C68B4F90C30002BEFD0626EA1
:1052CC00D00704D4990502D4A06DFFF799FA2846AB
:1052DC002146FFF75DFF636E0546DA07E0D4A3892C
:1052EC009B05DDD4A06DFFF78CFAD9E7054B9C42EA
:1052FC0001D1AC68DFE7044B9C4208BFEC68DAE7ED
:10530C0098560008B85600087856000838B5044678
:10531C00084611460022054D2A601A4600F01CF979
:10532C00431C02D12B6803B1236038BD3414002018
:10533C0070B50E46B1F90E10144600291D4696B0F4
:10534C0008DA0022B6F90C302A601A0610D44FF491
:10535C0080630EE06A4600F0C5F80028F1DB019A84
:10536C0002F47042A2F500535A425A412A60EEE709
:10537C0040230020236016B070BD00008B8973B5EC
:10538C009D0706460C4607D504F1470323602361AD
:10539C000123636102B070BD6A4601ABFFF7C8FF21
:1053AC00009905463046FFF72DFA48B9B4F90C3090
:1053BC009A05EFD423F0030343F00203A381E3E740
:1053CC000D4BB362A389206043F08003A381009B43
:1053DC0020616361019B5BB13046B4F90E1000F0A3
:1053EC0093F828B1A38923F0030343F00103A381AD
:1053FC00A0890543A581CDE769460008034610B591
:10540C00C9B202449342184601D1002003E004784B
:10541C0001338C42F6D110BD0148FFF7F1B900BF42
:10542C00291400200148FFF7ECB900BF2914002013
:10543C0038B50546002940D051F8043C0C1F002B10
:10544C00B8BFE418FFF7E8FF1C4A136833B9636070
:10545C0014602846BDE83840FFF7E4BFA34208D9E2
:10546C00206821188B4201BF19685B6809182160FC
:10547C00EDE71A465B680BB1A342FAD911685018D4
:10548C00A0420BD120680144501883421160E0D136
:10549C0018685B68014411605360DAE702D90C2389
:1054AC002B60D6E7206821188B4201BF19685B6816
:1054BC000918216063605460CBE738BD2C140020C0
:1054CC0038B50446084611460022054D2A601A4696
:1054DC0000F04AF8431C02D12B6803B1236038BD9D
:1054EC003414002038B50023064D044608461146F6
:1054FC002B6000F021F8431C02D12B6803B1236010
:10550C0038BD00BF3414002038B50023054D0446C7
:10551C0008462B6000F018F8431C02D12B6803B12D
:10552C00236038BD341400205822024B4FF0FF305A
:10553C001A607047341400205822024B4FF0FF3091
:10554C001A607047341400205822024B00201A6055
:10555C00704700BF341400205822024B4FF0FF302C
:10556C001A607047341400205822024B4FF0FF3061
:10557C001A60704734140020044A05491368002B44
:10558C0008BF0B46184410601846704738140020AA
:10559C00401400205822024B4FF0FF301A60704725
:1055AC0034140020F8B500BFF8BC08BC9E46704708
:0C55BC00F8B500BFF8BC08BC9E46704764
:1055C80053544D3332205669727475616C20436FA1
:1055D8006D506F727400000053544D6963726F65AB
:1055E8006C656374726F6E69637300004344432093
:1055F800436F6E666967000043444320496E7465D3
:105608007266616365000000020304050607080965
:105618000A0B0C0D0E0F1010000000000000000017
:10562800000000000102030406070809000000004A
:10563800010203044552524F523A2000496E7661E6
:105648006C6964204465766963652068616E646C82
:1056580065000000496E76616C696420436C617373
:10566800732068616E646C65000000008001002092
:105678000000000000000000000000000000000022
:105688000000000000000000000000000000000012
:105698000000000000000000000000000000000002
:1056A80000000000000000000000000000000000F2
:1056B80000000000000000000000000000000000E2
:1056C80000000000000000000000000000000000D2
:1056D800232D302B2000686C4C00656667454647D3
:1056E8000030313233343536373839414243444556
:1056F80046003031323334353637383961626364C5
:0457080065660000D2
:04570C00310100085F
:045710000D0100087F
:10571400B9040008C50400088905000865050008E7
:1057240051050008A5050008C9050008120100027A
:1057340002020040830440570002010203010000FA
:10574400040309041A030000000000000000000024
:105754000000000000000000000000000000000045
:1057640011060008ED050008F1050008F50500081C
:1057740001000000100000000024F400214400088F
:10578400DF43000809430008000000003542000818
:10579400BB4200088D420008000000000000000029
:1057A40000000000694200085D42000875420008DC
:1057B4008142000809024300020100C032090400CA
:1057C400000102020100052400100105240100016A
:1057D40004240202052406000107058203080010C0
:1057E40009040100020A000000070501024000004C
:1057F400070581024000000009024300020100C0C5
:105804003209040000010202010005240010010510
:105814002401000104240202052406000107058274
:105824000308001009040100020A00000007050132
:105834000200020007058102000200000A060002BD
:10584400000000400100000009074300020104C0F9
:1058540032090400000102020100052400100105C0
:105864002401000104240202052406000107058224
:105874000308001009040100020A000000070501E2
:105884000240000007058102400000008001002062
:105894000000000098560008B85600087856000822
:1058A40000000000000000000000000000000000F4
:1058B40000000000000000000000000000000000E4
:1058C40000000000000000000000000000000000D4
:1058D40000000000000000000000000000000000C4
:1058E40000000000000000000000000000000000B4
:040000050800452585
:00000001FF
