:020000040800F2
:10000000005000209D1C0008690400086B040008D3
:100010006D0400086F04000871040008000000006F
:100020000000000000000000000000007304000851
:100030007504000800000000770400087904000837
:10004000E51C0008E51C0008E51C0008E51C00088C
:10005000E51C0008E51C0008E51C0008E51C00087C
:10006000E51C0008E51C0008E51C0008E51C00086C
:10007000E51C0008E51C0008810400089104000844
:10008000E51C0008E51C0008E51C0008E51C00084C
:10009000E51C0008E51C0008E51C0008E51C00083C
:1000A000E51C0008E51C0008A1040008B1040008D4
:1000B000E51C0008C1040008E51C0008E51C000858
:1000C000E51C0008E51C0008E51C0008E51C00080C
:1000D000E51C0008D1040008E51C0008E51C000828
:1000E000E51C0008E51C0008E51C000800000000F5
:1000F0000000000000000000000000000000000000
:0C01000000000000000000005FF808F1A3
:10010C0010B5054C237833B9044B13B10448AFF345
:10011C0000800123237010BD70000020000000003F
:10012C00C825000808B5034B1BB103490348AFF3BE
:10013C00008008BD0000000074000020C8250008E5
:10014C0008B5034800F016FA024800F013FA08BD8F
:10015C0094000020DC000020084B1B7803B970478A
:10016C0010B5074C23685A6A0649074801F07AFD16
:10017C00226800235362014A137010BD90000020C6
:10018C0094000020E0250008EC2500080268164BBE
:10019C009A4200D07047154A136801331360144A11
:1001AC00A2FB031222F0030101EB9202934202D153
:1001BC00104A012111700E4AA2FB0312D20802EB65
:1001CC008202B3EB420F02D10B4A012111700B4A90
:1001DC00A2FB03125209642101FB1232002AD9D16D
:1001EC00074B01221A70D5E7000400408C00002058
:1001FC00CDCCCCCC92000020910000201F85EB517F
:10020C009000002072B6FEE700B591B028220021C4
:10021C0006A801F087FD0023019302930393049336
:10022C000593012206924FF4803307930A9202221F
:10023C000D920E934FF4E0130F9306A800F008FCF8
:10024C0080B90F23019302210291002303934FF4F1
:10025C0080620492059301A800F038FE20B911B019
:10026C005DF804FBFFF7CEFFFFF7CCFF08B500F0FD
:10027C00B5FBFFF7C9FF00F00DF801F0D1FC01F060
:10028C00F5F900F05BF800F01DF8FFF759FFFFF7E8
:10029C0063FFFCE782B00A4B9A6942F020029A6134
:1002AC009A6902F020020092009A9A6942F00402C4
:1002BC009A619B6903F004030193019B02B07047A0
:1002CC000010024000B587B00023029303930493FF
:1002DC000593009301931748174A026043608360AB
:1002EC004FF6FF72C26003614361836100F072FAE2
:1002FC00B0B94FF400530293002303930493059376
:10030C0002A90C4800F09EFA68B9002300930193EF
:10031C006946084800F004FB40B907B05DF804FBDF
:10032C00FFF770FFE5E7FFF76DFFEEE7FFF76AFFFA
:10033C00F3E700BF94000020002C014000B587B00B
:10034C0000230293039304930593009301931548A0
:10035C00154A02604722426083604FF47A72C26091
:10036C0003618023836100F035FA90B94FF4805318
:10037C00029302A90B4800F065FA68B900230093B8
:10038C0001936946074800F0CBFA40B907B05DF815
:10039C0004FBFFF737FFE9E7FFF734FFEEE7FFF762
:1003AC0031FFF3E7DC0000200004004000B589B009
:1003BC00002304930593069307930368234A9342FF
:1003CC0005D0234A93422DD009B05DF804FB214B94
:1003DC009A6942F400629A619A6902F4006201928D
:1003EC00019A9A6942F004029A619B6903F0040332
:1003FC000293029B4FF48053049304A9164800F017
:10040C0041FE002211461A2001F0D4F81A2001F006
:10041C0009F9002211461B2001F0CCF81B2001F039
:10042C0001F9D1E70B4BDA6942F00202DA61DB69C0
:10043C0003F002030393039B002211461D2001F0DD
:10044C00B9F81D2001F0EEF8BEE700BF002C01400A
:10045C00000400400010024000080140FEE7FEE7E7
:10046C00FEE7FEE7FEE770477047704708B500F0FF
:10047C00C7FA08BD08B5024800F0E8FF08BD00BF88
:10048C006C01002008B5024800F0E0FF08BD00BF79
:10049C002801002008B5024800F0A4F808BD00BFF0
:1004AC009400002008B5024800F09CF808BD00BF7D
:1004BC009400002008B5024800F094F808BD00BF75
:1004CC00DC00002008B5024801F00EFB08BD00BF9F
:1004DC00B001002082B00E4B9A6942F001029A6181
:1004EC009A6902F001020092009ADA6942F0805295
:1004FC00DA61DB6903F080530193019B054A536871
:10050C0023F0E06343F00073536002B0704700BF08
:10051C00001002400000014010B4036A046A24F089
:10052C0001040462846924F0F00C4CEA021223F0FA
:10053C000A030B438261036210BC704710B4046A57
:10054C0024F0100404628469036A24F4704C4CEAAD
:10055C00023223F0A00343EA01138261036210BC50
:10056C007047836823F070030B4343F007038360E9
:10057C007047000090F83D30DBB2012B27D10223ED
:10058C0080F83D300268D36843F00103D360036800
:10059C00114A934210D0B3F1804F0DD0A2F5943292
:1005AC00934209D002F58062934205D01A6842F05A
:1005BC0001021A60002070479A6802F00702062AAE
:1005CC0007D01A6842F001021A600020704701201F
:1005DC0070470020704700BF002C014070477047E7
:1005EC007047704710B5044603681A6912F0020F81
:1005FC0011D0DA6812F0020F0DD06FF002021A61FE
:10060C000123037703689B6913F0030F70D0FFF786
:10061C00E6FF0023237723681A6912F0040F12D027
:10062C00DA6812F0040F0ED06FF004021A61022384
:10063C00237723689B6913F4407F5FD02046FFF734
:10064C00CEFF0023237723681A6912F0080F12D00B
:10065C00DA6812F0080F0ED06FF008021A6104234A
:10066C0023772368DB6913F0030F4ED02046FFF786
:10067C00B6FF0023237723681A6912F0100F12D0EB
:10068C00DA6812F0100F0ED06FF010021A61082306
:10069C0023772368DB6913F4407F3DD02046FFF7B6
:1006AC009EFF0023237723681A6912F0010F03D0F1
:1006BC00DA6812F0010F36D123681A6912F0800F34
:1006CC0003D0DA6812F0800F34D123681A6912F063
:1006DC00400F03D0DA6812F0400F32D123681A6948
:1006EC0012F0200F03D0DA6812F0200F30D110BDB9
:1006FC00FFF774FF2046FFF773FF8AE72046FFF7EA
:10070C006DFF2046FFF76CFF9BE72046FFF766FF67
:10071C002046FFF765FFACE72046FFF75FFF20465A
:10072C00FFF75EFFBDE76FF001021A612046FFF78D
:10073C002DFDC1E76FF080021A61204600F027F909
:10074C00C3E76FF040021A612046FFF74AFFC5E786
:10075C006FF020021A61204600F018F9C7E700007C
:10076C0003681B4A90420AD0B0F1804F07D0A2F523
:10077C009432904203D002F58062904203D123F070
:10078C0070034A681343124A90420AD0B0F1804F6A
:10079C0007D0A2F59432904203D002F580629042C9
:1007AC0003D123F44073CA68134323F080034A69CE
:1007BC00134303608B68C3620B688362044B9842DB
:1007CC0002D00123436170470B690363F9E700BF53
:1007DC00002C014040B310B5044690F83D30F3B105
:1007EC00022384F83D30214651F8040BFFF7B8FF83
:1007FC00012384F8463084F83E3084F83F3084F886
:10080C00403084F8413084F8423084F8433084F826
:10081C00443084F8453084F83D30002010BD80F819
:10082C003C30FFF7C3FDDBE70120704710B4846850
:10083C0024F47F4C42EA03220A4342EA0C0282600F
:10084C0010BC704790F83C30012B66D010B50446B4
:10085C00012380F83C30022380F83D300268936815
:10086C0023F47F4323F0770393600B68602B40D015
:10087C0022D8402B47D00BD9502B0ED1CA684968CF
:10088C000068FFF749FE50212068FFF76AFE04E07C
:10089C00202B0CD008D9302B09D0012384F83D3003
:1008AC00002084F83C0010BD0BB1102BF5D119467B
:1008BC002068FFF756FEF0E7702B0ED0B3F5005F03
:1008CC00EBD1CB684A6889680068FFF7AFFF2268F4
:1008DC00936843F480439360DFE7CB684A68896888
:1008EC000068FFF7A3FF2268936843F077039360D7
:1008FC00D3E7CA6849680068FFF720FE60212068CA
:10090C00FFF72FFEC9E7CA6849680068FFF704FEC5
:10091C0040212068FFF725FEBFE70220704700004A
:10092C0090F83C30012B2CD010B4012380F83C30D3
:10093C00022380F83D3003685A689C6822F0700CE2
:10094C000A6842EA0C025A6003680F4A93420AD0C2
:10095C00B3F1804F07D0A2F59432934203D002F545
:10096C008062934204D124F080044A6814439C6052
:10097C00012380F83D30002380F83C30184610BC31
:10098C0070470220704700BF002C01407047704731
:10099C0010B504460E4B18784FF47A73B3FBF0F392
:1009AC000C4A1068B0FBF3F000F04AFE68B90F2C4B
:1009BC0001D901200AE0002221464FF0FF3000F05F
:1009CC00F9FD054B1C60002000E0012010BD00BFAC
:1009DC0000000020080000200400002008B5074A91
:1009EC00136843F010031360032000F0D1FD0020C6
:1009FC00FFF7CEFFFFF76EFD002008BD0020024080
:100A0C00034A1168034B1B780B441360704700BFFB
:100A1C002401002000000020014B1868704700BF23
:100A2C002401002082B0084B1B68084AA2FB032358
:100A3C005B0A00FB03F3019300BF019B5A1E01925A
:100A4C00002BF9D102B0704708000020D34D621082
:100A5C00002800F0F18170B582B00446036813F0F1
:100A6C00010F2CD0994B5B6803F00C03042B1DD0A9
:100A7C00964B5B6803F00C03082B12D06368B3F53C
:100A8C00803F41D0002B55D103F1804303F5043353
:100A9C001A6822F480321A601A6822F480221A60D2
:100AAC0037E08A4B5B6813F4803FE7D0874B1B68B9
:100ABC0013F4003F03D06368002B00F0BF81236860
:100ACC0013F0020F75D0814B5B6813F00C0F5FD0E5
:100ADC007E4B5B6803F00C03082B54D02369002B6E
:100AEC0000F08A807A4B01221A60FFF795FF0546C9
:100AFC00764B1B6813F0020F75D1FFF78DFF401B6F
:100B0C000228F5D903209EE1704A136843F4803320
:100B1C001360636843B3FFF77FFF05466B4B1B689D
:100B2C0013F4003FCBD1FFF777FF401B6428F5D9B6
:100B3C00032088E1B3F5A02F09D0644B1A6822F486
:100B4C0080321A601A6822F480221A60E1E703F1FD
:100B5C008043A3F53C331A6842F480221A601A6869
:100B6C0042F480321A60D4E7FFF756FF0546574B24
:100B7C001B6813F4003FA2D0FFF74EFF401B642804
:100B8C00F5D903205FE1514B5B6813F4803FA5D18D
:100B9C004E4B1B6813F0020F03D02369012B40F05E
:100BAC004F814A4A136823F0F803616943EAC10391
:100BBC001360236813F0080F33D0A369002B5CD0AB
:100BCC00434B0122C3F88024FFF726FF05463F4B19
:100BDC005B6A13F0020F21D1FFF71EFF401B0228A6
:100BEC00F5D903202FE1394A136823F0F803616922
:100BFC0043EAC1031360DCE7354B00221A60FFF7B0
:100C0C000BFF0546314B1B6813F0020FD1D0FFF7D9
:100C1C0003FF401B0228F5D9032014E10120FFF744
:100C2C0001FF236813F0040F00F09680274BDB695B
:100C3C0013F0805F34D1254BDA6942F08052DA61CF
:100C4C00DB6903F080530193019B0125214B1B6849
:100C5C0013F4807F26D0E368012B3DD0002B53D1B9
:100C6C0003F1804303F504331A6A22F001021A627D
:100C7C001A6A22F004021A6233E0154B0022C3F800
:100C8C008024FFF7C9FE0546104B5B6A13F0020F78
:100C9C00C7D0FFF7C1FE401B0228F5D90320D2E0D4
:100CAC000025D3E70B4A136843F480731360FFF7F6
:100CBC00B3FE0646074B1B6813F4807FCBD1FFF7BE
:100CCC00ABFE801B6428F5D90320BCE00010024069
:100CDC0000004242007000405F4A136A43F0010377
:100CEC001362E36833B3FFF797FE06465A4B1B6A51
:100CFC0013F0020F2FD1FFF78FFE801B41F28833C8
:100D0C009842F3D903209EE0052B09D0524B1A6A66
:100D1C0022F001021A621A6A22F004021A62E0E757
:100D2C004D4B1A6A42F004021A621A6A42F001022E
:100D3C001A62D6E7FFF770FE0646474B1B6A13F0A4
:100D4C00020F08D0FFF768FE801B41F288339842EF
:100D5C00F3D9032077E0E5B9E369002B72D03E4A62
:100D6C00526802F00C02082A56D0022B17D03B4BCB
:100D7C0000221A66FFF750FE0446374B1B6813F02F
:100D8C00007F47D0FFF748FE001B0228F5D903204F
:100D9C0059E0314AD36923F08053D361DCE72F4B00
:100DAC0000221A66FFF738FE05462B4B1B6813F022
:100DBC00007F06D0FFF730FE401B0228F5D9032038
:100DCC0041E0236AB3F5803F1AD023494B6823F4E2
:100DDC007413226A606A024313434B601F4B012257
:100DEC001A66FFF719FE04461B4B1B6813F0007FB5
:100DFC000ED1FFF711FE001B0228F5D9032022E0CB
:100E0C00154A536823F40033A1680B435360DCE7A5
:100E1C00002018E0002016E0012B16D00E4B5B686A
:100E2C0003F48031226A914211D103F47013626A87
:100E3C0093420ED1002006E001207047012002E011
:100E4C00012000E0002002B070BD0120FBE7012072
:100E5C00F9E70120F7E700BF001002400000424212
:100E6C0086B0164B0FCB0DF1180C0CE90F0040F2AD
:100E7C000123ADF80430124B5B6803F00C02082A16
:100E8C0002D0104806B07047C3F38342624412F894
:100E9C00100C13F4803F0CD0094B5B68C3F3404338
:100EAC00634413F8143C074A02FB00F0B0FBF3F068
:100EBC00E8E7054B03FB00F0E4E700BFFC25000866
:100ECC000010024000127A0000093D00002800F0DA
:100EDC00A08070B50D460446524B1B6803F0070307
:100EEC008B420BD24F4A136823F007030B4313605A
:100EFC00136803F007038B4240F08D80236813F0D6
:100F0C00020F17D013F0040F04D0474A536843F470
:100F1C00E0635360236813F0080F04D0424A53680F
:100F2C0043F460535360404A536823F0F003A168C4
:100F3C000B435360236813F0010F31D06368012B0E
:100F4C0020D0022B25D0384A126812F0020F64D040
:100F5C0035494A6822F0030213434B60FFF75CFDEE
:100F6C000646314B5B6803F00C036268B3EB820FEF
:100F7C0016D0FFF751FD801B41F288339842F0D90F
:100F8C00032045E0284A126812F4003FE0D101200A
:100F9C003EE0254A126812F0007FD9D1012037E0DB
:100FAC00204B1B6803F00703AB420AD91D4A136898
:100FBC0023F007032B431360136803F00703AB42C2
:100FCC002DD1236813F0040F06D0174A536823F46D
:100FDC00E063E1680B435360236813F0080F07D0FC
:100FEC00114A536823F46053216943EAC1035360E7
:100FFC00FFF736FF0C4B5B68C3F303130B4AD35C50
:10100C00D8400B4B18600B4B1868FFF7C1FC002045
:10101C0070BD012070470120FAE70120F8E701209C
:10102C00F6E700BF00200240001002401026000826
:10103C000800002004000020014B1868704700BF16
:10104C000800002008B5FFF7F7FF044B5B68C3F3FB
:10105C000223034AD35CD84008BD00BF00100240F5
:10106C002026000808B5FFF7E7FF044B5B68C3F3C5
:10107C00C223034AD35CD84008BD00BF0010024015
:10108C002026000870B582B00024A446A6E0804D4E
:10109C00AA4210D007D97F4DAA420CD005F5803555
:1010AC00AA4208D013E0A5F58015AA4203D005F595
:1010BC007025AA4207D18A68002A58D0012A51D03B
:1010CC004361082403E0A5F58015AA42F3D0BEF1D4
:1010DC00FF0F4ED80646BEF1FF0F4CD84FEA8C02DC
:1010EC0033680F25954023EA050304FA02F21343F3
:1010FC0033604B6813F0805F6ED0674B9A6942F097
:10110C0001029A619B6903F001030193019B4FEA71
:10111C009C02951C614B53F825600CF003039D0059
:10112C000F23AB4026EA03065D4B984229D003F50A
:10113C008063984200F08E8003F58063984200F043
:10114C008B8003F58063984219D004231AE0CC6895
:10115C00BDE7CC680434BAE7CC680834B7E7CC6890
:10116C000C34B4E703610824B1E70024AFE704248E
:10117C00ADE7061DAFE7ACF108029200B0E7032320
:10118C0000E00023AB4033430232444D45F822309B
:10119C004B6813F4803F61D0424A136843EA0E0354
:1011AC0013604B6813F4003F5ED03E4A536843EA29
:1011BC000E0353604B6813F4801F5BD0394A93685D
:1011CC0043EA0E0393604B6813F4001F58D0354A62
:1011DC00D36843EA0E03D3600CF1010C0A6832FAAF
:1011EC000CF353D0012303FA0CF302EA030E33EA97
:1011FC000202F1D14A68122A3FF649AF122A3FF691
:10120C0066AF01A555F822F0C31000085B11000869
:10121C006511000877110008DB100008DB100008CE
:10122C00DB100008DB100008DB100008DB100008E6
:10123C00DB100008DB100008DB100008DB100008D6
:10124C00DB100008DB100008DB1000085F11000841
:10125C006B110008012395E7022393E7114A1368E9
:10126C0023EA0E0313609CE70E4A536823EA0E032D
:10127C0053609FE70B4A936823EA0E039360A2E73F
:10128C00084AD36823EA0E03D360A5E702B070BD09
:10129C00000022100000311000100240000001403C
:1012AC00000801400004014030B40124056CAC403E
:1012BC00C56B6C60046863604368102B05D00368D1
:1012CC0099600368DA6030BC704703689A60036801
:1012DC00D960F8E760B310B402460168154B0B44B3
:1012EC001548A0FB03031B099B001364134BD3632A
:1012FC00022382F82130086820F47F5020F030005F
:10130C00536894682343D468234314692343546972
:10131C00234394692343D469234303430B60002084
:10132C009063012382F8213082F8200010BC7047B2
:10133C0001207047F8FFFDBFCDCCCCCC00000240A3
:10134C0038B5044690F82000012831D0012084F8EB
:10135C00200094F82100012804D0002384F82030C8
:10136C00022038BD022084F821000020A0632568EB
:10137C00286820F0010028602046FFF795FFE36AFB
:10138C005BB12268136843F00E0313602268136884
:10139C0043F0010313600020E3E72268136823F095
:1013AC00040313602268136843F00A031360EDE72B
:1013BC000220D6E708B590F82130022B03D0042385
:1013CC008363012008BD0268136823F00E031360C9
:1013DC000268136823F0010313600368194A9342EF
:1013EC0014D0143293421FD0143293421ED01432B4
:1013FC0093421ED0143293421ED01432934202D028
:10140C004FF0807203E04FF4801200E001220E4B8B
:10141C005A60012380F82130002380F82030436B80
:10142C006BB198470020CDE71022F0E74FF48072A3
:10143C00EDE74FF48052EAE74FF48032E7E7002003
:10144C00C0E700BF080002400000024038B5C36B83
:10145C001A6804682568016C04238B40134235D04C
:10146C0015F0040F32D0236813F0200F03D123683A
:10147C0023F0040323600368434A934214D01432CC
:10148C00934218D01432934217D01432934217D08F
:10149C001432934217D01432934202D04FF0806230
:1014AC0003E04FF4800200E00422384B5A60C36A18
:1014BC0003B1984738BD4022F7E74FF48062F4E758
:1014CC004FF48042F1E74FF48022EEE702238B4089
:1014DC0013423CD015F0020F39D0236813F0200FC3
:1014EC0006D1236823F00A032360012380F82130FE
:1014FC000368254A934214D0143293421CD0143200
:10150C0093421BD0143293421BD0143293421BD003
:10151C001432934202D04FF0007203E04FF40012E9
:10152C0000E00222194B5A60002380F82030836AB5
:10153C00002BBFD09847BDE72022F3E74FF4007291
:10154C00F0E74FF40052EDE74FF40032EAE70823DE
:10155C0003FA01F11142ADD015F0080FAAD023689F
:10156C0023F00E032360026CC16B012303FA02F219
:10157C004A60836380F82130002380F82030036BAD
:10158C00002B97D0984795E70800024000000240D6
:10159C00074AD36823F4E0631B041B0C000200F41D
:1015AC00E060034343F0BF6343F40033D360704700
:1015BC0000ED00E000B5194BDB68C3F30223C3F167
:1015CC00070CBCF1040F28BF4FF0040C03F1040E00
:1015DC00BEF1060F18D9033B4FF0FF3E0EFA0CFC80
:1015EC0021EA0C0199400EFA03F322EA0303194392
:1015FC0000280BDB0901C9B200F1604000F5614025
:10160C0080F800135DF804FB0023E5E700F00F0001
:10161C000901C9B2024B1954F4E700BF00ED00E018
:10162C0014ED00E0002807DB00F01F024009012345
:10163C009340024A42F82030704700BF00E100E0BE
:10164C000138B0F1807F0BD24FF0E0235861054A8E
:10165C00F02182F823100020986107221A6170474C
:10166C000120704700ED00E07047000008B50A4803
:10167C000A4B03604FF4E133436000238360C36083
:10168C0003610C2242618361C36100F013F900B95C
:10169C0008BDFEF7B7FDFBE7B001002000380140A4
:1016AC0070B586B0002302930393049305930268EC
:1016BC00314B9A4201D006B070BD044603F5584335
:1016CC009A6942F480429A619A6902F480420092CB
:1016DC00009A9A6942F004029A619B6903F0040330
:1016EC000193019B4FF40073029302230393032392
:1016FC000593224E02A93046FFF7C4FC4FF48063D9
:10170C00029300250395049502A93046FFF7BAFC15
:10171C001B481C4B0360456085608023C3600561DA
:10172C0045618561C561FFF7D5FDF0B9144B636365
:10173C005C621548154B03601023436000238360E3
:10174C008022C260036143618361C361FFF7C2FD04
:10175C0070B90D4B23635C62002211462520FFF704
:10176C0029FF2520FFF75EFFA5E7FEF74BFDDDE720
:10177C00FEF748FDEDE700BF0038014000080140CE
:10178C0028010020580002406C0100204400024057
:10179C000268D36823F0C003D360202380F839306B
:1017AC0070470268D36823F49073D360026853695E
:1017BC0023F001035361202380F83A30704790F8EE
:1017CC003930DBB2212B01D0022070478368B3F58E
:1017DC00805F17D0036A5A1C02621A7803685A6039
:1017EC00C38C9BB2013B9BB2C3844BB90268D368D8
:1017FC0023F08003D3600268D36843F04003D360C6
:10180C00002070470369002BE4D1036A1B8802682F
:10181C00C3F308035360036A02330362E0E700007A
:10182C0010B504460268136923F44053C1680B4396
:10183C00136183680269134342691A430168CB68D8
:10184C0023F4B05323F00C031343CB6002685369A9
:10185C0023F4407381690B4353610268134B9A4222
:10186C0020D0FFF7EFFB024602EB820202EB820272
:10187C0063689B00B2FBF3F20D48A0FB02314909EF
:10188C00642303FB11231B013233A0FB03235B09ED
:10189C0003F0F00202EB011203F00F032168134472
:1018AC008B6010BDFFF7DEFB0246DDE70038014020
:1018BC001F85EB5158B310B5044690F839300BB373
:1018CC00242384F839302268D36823F40053D3607E
:1018DC002046FFF7A5FF2268136923F49043136198
:1018EC002268536923F02A0353612268D36843F4B6
:1018FC000053D3600020E063202384F8393084F84F
:10190C003A3010BD80F83830FFF7CAFED8E7012016
:10191C007047000038B590F83930DBB2202B31D14C
:10192C000446002930D0002A30D090F83830012BF2
:10193C002ED0012380F8383001628284C2840025C5
:10194C00C563212380F83930036B12489862236BEE
:10195C001148D862236B11481863236B5D632068B0
:10196C001346021D206BFFF7EBFC23686FF040025F
:10197C001A6084F838502268536943F0800353612D
:10198C00284600E0022038BD0120FCE70120FAE7E0
:10199C000220F8E7AF190008FB1900089D1A00088F
:1019AC00704708B50346406A1B681B6813F0200F8C
:1019BC000CD10023C3840268536923F08003536164
:1019CC000268D36843F04003D36008BDFFF7E8FF1B
:1019DC00FBE708B50168CA6822F04002CA60202201
:1019EC0080F83920FFF7DCFF002008BD704708B5F0
:1019FC00406AFFF7FBFF08BD704708B590F83A3016
:101A0C00DBB2222B41D18368B3F5805F14D0826A9C
:101A1C00B3F5805F02D0E3B90369D3B903685B689F
:101A2C001370836A01338362C38D9BB2013B9BB2FB
:101A3C00C385A3B1002008BD0269002AE7D1826AE0
:101A4C0003685B68C3F308031380836A0233836201
:101A5C00EAE703685B6803F07F031370E1E7026851
:101A6C00D36823F02003D3600268D36823F4807317
:101A7C00D3600268536923F001035361202380F87B
:101A8C003A30FFF7B9FF0020D5E70220D3E77047C3
:101A9C0010B5446A23685A6994F83930DBB2212BAB
:101AAC0010D023685A6902F0400294F83A30DBB245
:101ABC00222B11D0E36B43F01003E3632046FFF7B6
:101ACC00E6FF10BD02F08002002AEAD00023E38476
:101ADC002046FFF75DFEE4E7002AEBD00023E38508
:101AEC002046FFF75EFEE5E710B504460268136872
:101AFC00D168526913F00F0005D113F0200F02D0FA
:101B0C0011F0200F13D128B112F0010213D111F4EE
:101B1C00907F10D113F0800F02D011F0800F6CD198
:101B2C0013F0400F02D011F0400F6AD110BD2046C7
:101B3C00FFF763FFFAE713F0010F06D011F4807F73
:101B4C0003D0E06B40F00100E06313F0040F04D00D
:101B5C001AB1E06B40F00200E06313F0020F04D006
:101B6C001AB1E06B40F00400E06313F0080F07D0EB
:101B7C0011F0200F00D11AB1E26B42F00802E263BF
:101B8C00E26B002AD2D013F0200F02D011F0200FFC
:101B9C0021D123685B6903F04003E26B12F0080F5C
:101BAC0000D123B32046FFF7FCFD23685A6912F0DD
:101BBC00400F18D05A6922F040025A61636B73B11E
:101BCC00124A5A63606BFFF7F5FB0028AED0606BCE
:101BDC00436B9847AAE72046FFF70FFFD9E720464B
:101BEC00FFF755FFA2E72046FFF751FF9EE720467F
:101BFC00FFF74DFF0023E36398E72046FFF7DFFD77
:101C0C0094E72046FFF7E5FE90E700BF1D1C000897
:101C1C0008B5406A0023C385C384FFF738FF08BDAD
:101C2C0000B583B00E4B5A6942F001025A615B69F0
:101C3C0003F001030193019B002211460E20FFF7D4
:101C4C00B9FC0E20FFF7EEFC002211460F20FFF727
:101C5C00B1FC0F20FFF7E6FC03B05DF804FB00BFFE
:101C6C00001002400FB400B5B5B036AA52F8041BF0
:101C7C00019202A800F074F882B202A90348FFF79F
:101C8C0049FE35B05DF804EB04B07047B00100209C
:101C9C00002103E00B4B5B58435004310A480B4BBB
:101CAC0042189A42F6D30A4A02E0002342F8043B57
:101CBC00084B9A42F9D3FFF7D7FC00F00FF8FEF768
:101CCC00D5FA704764260008000000207000002040
:101CDC007000002004020020FEE7000070B5002612
:101CEC000C4D0D4C641BA410A64209D100F066FCEF
:101CFC0000260A4D0A4C641BA410A64205D170BDE7
:101D0C0055F8043B98470136EEE755F8043B9847E5
:101D1C000136F2E75C2600085C2600085C26000809
:101D2C006026000803460244934200D1704703F832
:101D3C00011BF9E700B59BB0009104916FF00041D5
:101D4C000591029105490391694600F06FF8002254
:101D5C00009B1A701BB05DF804FB00BF0802FFFF6C
:101D6C0013460A46014602480068FFF7E3BF00BF6E
:101D7C000C0000202DE9F0478E6882469E420C46EE
:101D8C0090461F4638D88A8912F4906F32D0256855
:101D9C0009690133A5EB010965694B4405EB450560
:101DAC0005EBD5756D109D4238BF1D46530531D5D9
:101DBC00294600F04FFB064650B90C234FF0FF307C
:101DCC00CAF80030A38943F04003A381BDE8F08733
:101DDC004A46216900F0CEFAA38923F4906343F0BC
:101DEC008003A38126614E4426603E466561A5EBC7
:101DFC000905A560BE4200D93E46324641462068E0
:101E0C0000F0C6FAA36800209B1BA3602368334430
:101E1C002360DBE72A4600F077FB06460028E1D179
:101E2C005046216900F0CEFAC7E700002DE9F04FCB
:101E3C0098468B8907461B060D4614469DB00ED559
:101E4C000B6963B9402100F005FB2860286120B9BB
:101E5C000C233B604FF0FF30D1E040236B6100233B
:101E6C00099320238DF8293030234FF00109CDF848
:101E7C000C80DFF8A4818DF82A3023469A4613F89B
:101E8C00012B0AB1252AF9D1BAEB040B0BD05B4616
:101E9C00224629463846FFF76DFF013000F0AA8034
:101EAC00099A5A4409929AF80030002B00F0A2804B
:101EBC0000234FF0FF32CDE905230AF1010A049308
:101ECC0007938DF853301A935446052214F8011BCE
:101EDC00514800F041FA049AD8B9D00644BF2023E7
:101EEC008DF85330110744BF2B238DF853309AF8DB
:101EFC0000302A2B15D0544600204FF00A0C079ABC
:101F0C00214611F8013B303B092B4ED9B0B1079259
:101F1C0014E0A0EB080309FA03F31343A24604935D
:101F2C00D2E7039B191D1B680391002BBBBF5B42BF
:101F3C0042F0020207930793B8BF049223782E2B2A
:101F4C000CD163782A2B35D1039B02341A1D1B68E4
:101F5C000392002BB8BF4FF0FF330593DFF8BCA002
:101F6C0003225046217800F0F7F940B14023A0EB52
:101F7C000A0003FA00F0049B01340343049314F8A1
:101F8C00011B062226488DF8281000F0E5F90028E0
:101F9C0038D0244B1BBB039B073323F007030833B8
:101FAC000393099B3344099367E70C4601200CFB10
:101FBC000232A5E700234FF00A0C194601340593B1
:101FCC00204610F8012B303A092A03D9002BC5D032
:101FDC000591C3E7044601230CFB0121F0E703AB99
:101FEC0000932A463846104B04A9AFF30080421CDC
:101FFC000646D6D1AB895B063FF52CAF09981DB0D0
:10200C00BDE8F08F03AB00932A463846064B04A973
:10201C0000F07CF8EBE700BF282600082E2600080D
:10202C003226000800000000811D00082DE9F04751
:10203C00164699468A680B6907469342B8BF134601
:10204C00336091F843200C46DDF820800AB101334F
:10205C0033602368990642BF3368023333602568C6
:10206C0015F0060506D104F1190AE36832689B1ACB
:10207C00AB4228DC94F84320131E226818BF0123BE
:10208C0092062DD44946384604F14302C04701302C
:10209C0020D02368E56803F00603042B18BF002545
:1020AC0032684FF00006A36808BFAD1A226908BF5A
:1020BC0025EAE5759342C4BF9B1AED181A34B54254
:1020CC001AD1002008E00123524649463846C04741
:1020DC00013003D14FF0FF30BDE8F0870135C4E784
:1020EC003020E11881F843005A1C94F84510224422
:1020FC00023382F84310C5E701232246494638468D
:10210C00C0470130E6D00136D9E700002DE9FF4782
:10211C000F7E9146782F80460C469A460C9D01F115
:10212C00430207D8622F0AD8002F00F0D980582F0D
:10213C0000F0A48004F1420584F842703AE0A7F163
:10214C006303152BF6D801A151F823F0B121000837
:10215C00C521000841210008412100084121000847
:10216C0041210008C5210008412100084121000837
:10217C004121000841210008D3220008F521000864
:10218C00B52200084121000841210008F522000871
:10219C0041210008F52100084121000841210008D7
:1021AC00BD2200082B681A1D1B682A6004F1420529
:1021BC0084F842300123A4E020682968060601F166
:1021CC0004030AD50E682B60002E03DA2D23764209
:1021DC0084F843300A235E4819E00E6810F0400F73
:1021EC002B6018BF36B2EFE72B682068191D2960E9
:1021FC00010601D51E6802E04606FBD51E886F2F2E
:10220C000CBF08230A235248002184F84310656848
:10221C00002DA8BF2168A560A4BF21F00401216096
:10222C000EB9002D4DD01546B6FBF3F103FB11672B
:10223C00C75D05F8017D3746BB420E46F4D9082B25
:10224C000BD12368DE0708D5236961689942DEBF8C
:10225C00302305F8013C05F1FF35521B22614B463A
:10226C0021464046CDF800A003AAFFF7DFFE01305F
:10227C004CD14FF0FF3004B0BDE8F087344881F802
:10228C0045702968236851F8046B29601D0614D524
:10229C00DF0744BF43F0200323601EB9236823F0FB
:1022AC00200323601023AFE7236843F0200323604F
:1022BC007823284884F84530E3E7590648BFB6B27E
:1022CC00E6E71546BBE72B682668181D6169286090
:1022DC0035061B6801D5196002E07006FBD5198024
:1022EC00002315462361BAE72B6800211A1D2A60CA
:1022FC001D686268284600F02FF808B1401B60602A
:10230C0063682361002384F84330A8E72A464946D2
:10231C0040462369D0470130ABD023689B0713D4C8
:10232C00E068039B9842B8BF1846A4E701233246E5
:10233C0049464046D04701309BD00135E3680399AC
:10234C005B1AAB42F2DCEBE7002504F11906F5E76A
:10235C00392600084A260008034610B5C9B20244C3
:10236C009342184601D1002003E0047801338C42DB
:10237C00F6D110BD0A44914200F1FF3300D17047F1
:10238C0010B511F8014B914203F8014FF9D110BD72
:10239C00884210B501EB020402D98442234607D8C7
:1023AC00431EA14208D011F8012B03F8012FF8E7C6
:1023BC00014602448A4200D110BD13F8014D02F8C7
:1023CC00014DF7E738B50546002940D051F8043CDB
:1023DC000C1F002BB8BFE41800F0CCF81C4A136893
:1023EC0033B9636014602846BDE8384000F0C8B8C3
:1023FC00A34208D9206821188B4201BF19685B6879
:10240C0009182160EDE71A465B680BB1A342FAD9B3
:10241C0011685018A0420BD1206801445018834217
:10242C001160E0D118685B68014411605360DAE711
:10243C0002D90C232B60D6E7206821188B4201BFF0
:10244C0019685B680918216063605460CBE738BD7C
:10245C00F0010020F8B5CD1C25F0030508350C2D36
:10246C0038BF0C25002D064601DBA94203D90C23ED
:10247C0033600020F8BD00F07DF821490A6814464D
:10248C009CB9204F3B6823B92146304600F062F8D6
:10249C0038602946304600F05DF8431C23D10C23EC
:1024AC003046336000F06CF8E3E723685B1B17D40D
:1024BC000B2B03D923601C44256004E06368A24203
:1024CC000CBF0B605360304600F05AF804F10B005F
:1024DC00231D20F00700C21ACCD01B1AA350C9E749
:1024EC0022466468CCE7C41C24F00304A042E3D069
:1024FC00211A304600F02EF80130DDD1CFE700BFB5
:10250C00F0010020F4010020F8B5074614460E46F1
:10251C0021B91146BDE8F840FFF79CBF22B9FFF77F
:10252C0051FF25462846F8BD00F030F8A0420FD2E6
:10253C0021463846FFF78EFF05460028F2D031467B
:10254C002246FFF717FF31463846FFF73BFFE9E716
:10255C003546E7E738B50023054D044608462B60A1
:10256C0000F01EF8431C02D12B6803B1236038BD68
:10257C00F8010020014800F011B800BFFC01002058
:10258C00014800F00CB800BFFC01002051F8043CDD
:10259C00181F002BBCBF0B58C018704770477047F2
:1025AC00044A05491368002B08BF0B4618441060F9
:1025BC00184670470002002008020020F8B500BF42
:1025CC00F8BC08BC9E467047F8B500BFF8BC08BC08
:0425DC009E46704760
:1025E00031353A35313A32320000000074696D6598
:1025F0003D25732C20256C640D0A000002030405A0
:10260000060708090A0B0C0D0E0F10100000000041
:102610000000000000000000010203040607080992
:102620000000000001020304232D302B2000686C01
:102630004C006566674546470030313233343536E5
:10264000373839414243444546003031323334351E
:0C2650003637383961626364656600004B
:04265C003101000840
:042660000D01000860
:1026640001000000100000000024F400100000200D
:102674000000000000000000000000000000000056
:102684000000000000000000000000000000000046
:102694000000000000000000000000000000000036
:1026A4000000000000000000000000000000000026
:1026B4000000000000000000000000000000000016
:1026C4000000000000000000000000000000000006
:0400000508001C9D36
:00000001FF
